:020000040800F2
:10000000400D00203D4000084540000847400008E2
:10001000494000084B4000084D4000080000000027
:100020000000000000000000000000004F40000839
:100030005140000800000000534000087D210008E6
:100040005740000857400008574000085740000834
:1000500057400008574000085D200008792000083C
:1000600095200008B1200008CD2000085740000866
:100070005740000857400008574000085740000804
:1000800057400008574000085740000857400008F4
:100090005740000857400008574000081D1F00083F
:1000A00057400008574000085740000857400008D4
:1000B00057400008574000085740000857400008C4
:1000C00057400008574000085740000857400008B4
:1000D00057400008574000085740000857400008A4
:1000E000A91F0008574000085740000800F002F818
:1000F00000F099F80AA090E8000C82448344AAF129
:100100000107DA4501D100F08EF8AFF2090EBAE826
:100110000F0013F0010F18BFFB1A43F0010318473B
:10012000E041010000420100103A24BF78C878C1C4
:10013000FAD8520724BF30C830C144BF04680C60ED
:10014000704700000023002400250026103A28BF35
:1001500078C1FBD8520728BF30C148BF0B60704739
:100160006E2904F00487702905F05582662911F084
:100170003583652911F03283672911F02F836129B6
:1001800011F02E8303681B0A28BF41F08001692902
:1001900004F0FE81642904F0FB81752904F0F881E4
:1001A0006F2905F0E381782905F02182E92904F01F
:1001B0002B82E42904F02882F52904F02582EF2916
:1001C00005F0E081F82905F020820368DB0928BFEB
:1001D00041F08001632905F06987732905F06E8776
:1001E000E32905F07987F32905F07E870020704721
:1001F0001FB59DE8030004F0A7FD05F021FD0400F4
:100200000020002110F0FCF8401C6060002000215C
:1002100010F00CF9E06004F0A7F81FBD10B5002045
:1002200005F068FC10BD05F0E6FC1146FFF7E0FFA5
:1002300000F008F806F0FEF803B4FFF7EFFF03BC88
:1002400004F050FD80B500F0EBFB4FF4803000F07F
:1002500008FC312000F038FC0028FAD042F20000FF
:100260000221C4F202000160002000F075FC0020B1
:1002700000F086FC4FF4806000F078FC4FF4803092
:100280004FF4E01100F046FC012000F04EFC392054
:1002900000F01AFC0028FAD0022000F04BFC00F01D
:1002A00053FC0828FBD10120012100F00AFD4FF08A
:1002B0000060002100F04AF84FF4407000F00CF8A4
:1002C000042000F05BF84FF47A7001F05FFF03F058
:1002D0002BFB03F0F9FBFCE740F080604EF60C517D
:1002E00040F0FD70CEF2000108607047C2784EF217
:1002F0000011CEF20001EAB110B54EF60C52072300
:10030000CEF20002126890F801E0847890F800C004
:1003100023EA12220F23D340C2F1040223400EFA33
:1003200002F21A4301EB0C03120183F80023BDE82B
:10033000104000E080310078012300F01F02C0F37C
:10034000421003FA02F241F8202070474FF6807203
:10035000C1F6FF72114008434EF60851CEF200017B
:10036000086070474EF610520029CEF20002116864
:100370000CBF21EA00000843106070474EF21001E4
:100380000428CEF200010A6822F0040308BF42F0FC
:1003900004030B607047000040F200400021C4F2EB
:1003A0000100016041608160C1604FF6FF71C0F2E1
:1003B0000F0141617047827940F2004CC4F2010C98
:1003C00032B30268DCF800309343CCF80030DCF83C
:1003D00004309343CCF80430037943EA0C031968E2
:1003E000114319600268DCF808109143CCF808103A
:1003F000DCF80C109143CCF80C104079102810D187
:10040000DCF808001043CCF808000CF10C000AE0FE
:100410000179006841EA0C010A6822EA00000860DC
:10042000704740EA0C0001681143016070470021E9
:100430004FF44062016082808171704740F2104148
:10044000C4F201010A6810430860704740F2144189
:10045000C4F201010968084018BF0120704740F24A
:100460001441C4F201010860704740F20041C4F237
:1004700001010A68024018BF01224969084018BFFB
:1004800001201040704740F21441C4F2010108609D
:100490007047000080B5A0F18040A0F584304FEA9D
:1004A000B020062888BF80BDDFE800F0040A1016DF
:1004B0001C2228000420012100F01BFC042024E061
:1004C0000820012100F015FC08201EE01020012169
:1004D00000F00FFC102018E02020012100F009FCA2
:1004E000202012E04020012100F003FC40200CE01D
:1004F0008020012100F0FDFB802006E04FF4807099
:10050000012100F0F6FB4FF480700021BDE880402F
:1005100000F0EFBB80B50120012100F0EAFB0120D3
:100520000021BDE8804000F0E4BB2DE9F04391F8E4
:1005300003E00EF00F0C1EF0100F1CBF8A784CEA7F
:10054000020C098811F0FF0F20D0026800234FF041
:1005500001094FF00F08002609FA06F70F4210D0E4
:1005600008FA03F40CFA03F5BEF1480F22EA04027C
:1005700042EA050204D0BEF1280F08BF476100E03F
:10058000076101360433082EE6D10260B1F5807FA1
:1005900038BFBDE8F0834368082200244FF001090A
:1005A0004FF00F0809FA02F70F4210D008FA04F5CD
:1005B0000CFA04F6BEF1480F23EA050343EA0603EA
:1005C00004D0BEF1280F08BF476100E00761013287
:1005D0000434102AE6D14360BDE8F0834FF6FF7182
:1005E000C0F20241016070478068084018BF0120D6
:1005F0007047806880B27047C068084018BF01200B
:100600007047C06880B270470161704741617047B0
:1006100000F11003002A08BF00F1140319607047AD
:10062000C160704741F48032826181618261816979
:100630008069704741EA001000214FF68073C4F2D0
:1006400001010A681A401043086070471C21C4F277
:10065000202108607047B0B540F2040E002800F475
:1006600040151FFA80FCC4F2010E7246B8BF183262
:10067000B5F5401F1368C0F3034408D1DEF800400D
:1006800023F0706324F07064CEF800400DE0C502E2
:1006900006D447F6F07505EA50450CFA05F501E079
:1006A0000325A540AB4343F0706331B147F6F071C9
:1006B00001EA50400CFA00F003431360B0BD80B56E
:1006C0000C2240F2080E0F2302EA810201F0FC0125
:1006D000C4F2010E03FA02FC51F80E30904023EAF6
:1006E0000C0341F80E3051F80E20104341F80E0073
:1006F00080BDDC21C4F220210860704780B545F23E
:100700000041C4F20001884207D04FF4800001216B
:1007100000F0FBFA4FF4800006E04FF400100121D6
:1007200000F0F3FA4FF400100021BDE8804000F023
:10073000ECBA70B586B0044601A80D46A68800F054
:100740006AFA4DF68360039948F2A063C4F21B3045
:10075000C0F20103A1FB000226F03F0040EA9240F4
:10076000A080208820F001002080900C2A689A4206
:1007700009D85200B1FBF2F14FF6FC720A40042A8C
:1007800038BF042122E0EB884BF6FF76B34204D158
:1007900002EB4202B1FBF2F105E019235A43B1FB2F
:1007A000F2F141F4804140F6FF7211424FF496722B
:1007B00002FB00F044F6D35208BF41F00101C1F240
:1007C000620241F40041A0FB020290090130208442
:1007D000A1834FF6F531208840F001002080208869
:1007E0000840A9880843698908432080A889298985
:1007F0000843208106B070BD002241F288310023F9
:10080000CBF6FF7280E80E004FF480418181704783
:100810000288002942F0010308BF22F0010303808F
:1008200070478288002942F4006308BF22F4006305
:10083000838070478288002942F4805308BF22F4E5
:100840008053838070470288002942F4807308BF78
:1008500022F48073038070470288002942F40073F9
:1008600008BF22F40073038070470288002942F415
:10087000806308BF22F4806303807047828901F09F
:10088000FE0122F0FE021143818170478289002916
:1008900042F0010308BF22F0010383817047028800
:1008A000002942F0400308BF22F040030380704754
:1008B000002A30F8042F0CBF22EA01011143018005
:1008C000704701827047008AC0B2704741F001034F
:1008D000002A08BF01F0FE030382704781B00022A6
:1008E000009200900098084400900098008801B0A1
:1008F00070470288002913466FF3DF3318BF42F4B4
:100900000043038070470288B1F5006F22F4006352
:1009100008BF42F40063038070470288B1F5005FAE
:1009200022F4005308BF42F400530380704702884A
:10093000002942F4805308BF22F48053038070479B
:100940000288B1F5006F22F4006308BF42F400632F
:10095000038070470288002942F0200308BF22F07C
:10096000200303807047008B000A7047028800292B
:1009700042F0100308BF22F0100303807047028882
:10098000002922F0800308BF42F0800303807047F3
:10099000828BB1F5804F22F4804308BF42F480433C
:1009A00083837047828A008B60F3174202EA01005A
:1009B000401AB0FA80F040097047818A008B60F3DA
:1009C00017410846704782B00022019200920090C1
:1009D000080F019021F07F40019911B10099143165
:1009E00002E00099000C1831009100990968084054
:1009F00018BF012002B07047C943818270478288C6
:100A0000808A084002EA114118BF012011F4E06118
:100A100018BF012108407047C94381827047000018
:100A200041F200000022C4F20200CFF6FF0201688A
:100A300041F001010160416811404FF6FF724160D1
:100A4000CFF6F662016811400160016821F480214F
:100A50000160416821F4FE0141604FF41F01816093
:100A6000704741F20001B0F5802FC4F202010A681C
:100A700022F480320A600A6822F480220A6006D0DA
:100A8000B0F5803F18BF70474FF4803001E04FF45D
:100A9000A0200A6810430860704781B000200090D1
:100AA00041F20000C4F2020002680099013112F420
:100AB000003F0091009902D1B1F5A06FF4D1006818
:100AC000C0F3404001B0704741F200010122C4F27E
:100AD0000201B2EB501F04D04309022B0CBF20319E
:100AE000243100F01F00096802FA00F0084018BF26
:100AF0000120704741F20001C4F202010A6822F0AD
:100B0000F80242EAC000086070470021C4F24221A6
:100B100008607047084341F20401C4F202010A6808
:100B200022F47C121043086070476021C4F2422115
:100B30000860704741F20401C4F202010A6822F021
:100B4000030210430860704741F20400C4F202003F
:100B5000006800F00C00704741F20401C4F2020189
:100B60000A6822F0F00210430860704741F2040165
:100B7000C4F202010A6822F4E06210430860704780
:100B800041F20401C4F202010A6822F4605242EA0E
:100B9000C0000860704741F209020029C4F2020255
:100BA00011780CBF21EA0000084310707047D8216B
:100BB000C4F242210860704741F20401C4F202010C
:100BC0000A6822F4404210430860704741F2200155
:100BD00000220428C4F202010A700A7004D001281D
:100BE00018BF7047012000E005200870704740F2F0
:100BF0008041C4F242210860704741F22001C4F2F2
:100C000002010A6810430860704740F23C41C4F298
:100C100042210860704710B541F20401C4F202019C
:100C20000A6802F00C0341F20022C0F27A02082B9B
:100C300017D10B6840F60014C0F23D04C3F38343A0
:100C4000D1F800E003F1020C1EF4803F02D10CFB4E
:100C500004F206E00B6813F4003F08BF144604FBDF
:100C60000CF2026043F630040B68C0F60104C3F3D3
:100C70000313E35CDA4042600B68C3F30223E35CD6
:100C800022FA03F383600B68C3F3C223E35CDA4008
:100C900043F61C03C260C0F601030968C1F3813149
:100CA000595CB2FBF1F1016110BD41F2140200295F
:100CB000C4F2020211680CBF21EA00000843106070
:100CC000704741F218020029C4F2020211680CBFF9
:100CD00021EA000008431060704741F21C0200291D
:100CE000C4F2020211680CBF21EA00000843106040
:100CF000704741F20C020029C4F2020211680CBFD5
:100D000021EA000008431060704741F210020029F8
:100D1000C4F2020211680CBF21EA0000084310600F
:100D2000704740F24041C4F24221086070474C21B4
:100D3000C4F242210860704741F20701C4F2020187
:100D40000870704741F22400C4F20200016841F0CB
:100D500080710160704741F20801C4F20201096824
:100D6000084018BF0120704741F20A01C4F2020195
:100D70000870704780B543F60001C4F20001884254
:100D800018D043F60041C4F2000188421AD043F261
:100D90000001C4F20101884218BF80BD4FF48050A9
:100DA0000121FFF7A6FF4FF480500021BDE88040ED
:100DB000FFF79FBF4FF480400121FFF7A6FF4FF4DC
:100DC000804006E04FF400400121FFF79EFF4FF402
:100DD00000400021BDE88040FFF797BF02880B88E4
:100DE00002F441521A434B881A438B881A43CB882A
:100DF0001A430B891A434B891A438B891A43CB89AF
:100E00001A430280828B22F400628283098A018263
:100E10007047F0B585B004460D464FF24001A08BF7
:100E20000840A08302202084A68BA868022803D152
:100E3000E8880022022130E0AF886846FFF7EBFE29
:100E4000002F4FF006016FF0010708BF0521E88869
:100E5000B0F5007F08BF0821009A22FA01F1AA68C4
:100E600001EB81014900B1FBF2F14CF6CD420531B5
:100E7000CCF6CC4289B2A1FB0212C2F3C003C3EB91
:100E8000D202C2F34F0107EB520292B2FD2A4FEA9F
:100E9000032288BF022188BF002211430843208417
:100EA0002888698830430843A9880843A9890843EA
:100EB00040F40060A08305B0F0BD0021C1608160F6
:100EC0004160016007210182704700210222C0E9D0
:100ED00000118260818170470288002942F040033E
:100EE00008BF22F0400303807047828B002942F440
:100EF000806308BF22F4806383837047002A4FEA2F
:100F000011114FF0010330F8042F03FA01F10CBF67
:100F100022EA0101114301807047002A30F8042FB2
:100F20000CBF22EA010111430180704781817047A3
:100F300080897047B0F800C04FF6FF6291424CF4D0
:100F4000807308BF2CF48073038070478288002967
:100F500042F0040308BF22F0040383807047028834
:100F600022F40062028002881143018070470188E8
:100F700041F48051018070470288002942F40053F7
:100F800008BF22F400530380704700F118020129C2
:100F900008BF00F1140210887047008A7047028869
:100FA000B1F5804F22F4804308BF42F480430380B0
:100FB00070470089084018BF01207047C94301816C
:100FC0007047024601F00F030120B2F804C01289F5
:100FD00000FA03F3134207D0090900FA01F111EAFC
:100FE0000C0F08BF002070470020704701F00F0170
:100FF000012202FA01F1C943018170478160002199
:10100000828001614FF44061818143F6F861C0F64E
:10101000010108310160704781600099828003619D
:1010200041730021017343F6F861C0F601010831F4
:10103000016070478160009982800361417301996A
:10104000017343F6F861C0F6010108310160704791
:101050008188FF290DDC0F291CDC4A1E072A33D8A2
:101060000620DFE802F03E0431483131314A0720E2
:101070007047B1F5006F18DBB1F5005F2ADAB1F502
:10108000006F04BF31207047B1F5805F04BF32208C
:10109000704719E03F2925DC102904BF0A2070475A
:1010A000202904BF2B2070470EE0B1F5807F04BFDC
:1010B0002E207047B1F5007F04BF2F207047B1F597
:1010C000806F04BF302070470620B1F5004F08BF85
:1010D0003520704704BF33207047B1F5804FF3D1FE
:1010E00034207047402904BF2C207047802904BF5A
:1010F0002D207047E8E7082070470920704700BF9F
:101100008088FF280DDC0F2819DC421E072A45D8ED
:101110000021DFE802F04804433343434335012113
:1011200041E0B0F5006F12DBB0F5005F1ADAB0F500
:10113000006F27D0B0F5805F30D10C2133E03F281D
:1011400016DC102820D0202828D105212BE0B0F56E
:10115000807F1BD0B0F5007F1AD0B0F5806F1DD115
:101160000A2120E016D0B0F5804F17D10E211AE0E9
:10117000402811D0802811D1072114E0022112E06B
:10118000032110E00B210EE004210CE008210AE00D
:10119000092108E00D2106E0062104E00021B0F558
:1011A000004F08BF0F21C8B2704700BF10B582B012
:1011B0000446A268A2F18040A0F584304FEAB02135
:1011C000042907D80220DFE801F013030E101200F3
:1011D00003200DE041F600410820C4F201018A42DB
:1011E00008BF072004E0042002E0052000E00620FC
:1011F0002168CA69C1B22046904720680021C269AF
:1012000020469047A08801A9ADF8040044F60300E9
:10121000ADF80600A068FFF788F9206910B12046F4
:1012200000F003F8012002B010BD70B50446256936
:10123000ADB12046FFF70CFF064620682946002383
:101240003246D0F824C02046E047204600F00AF895
:1012500020683146C26A20469047012070BD0020B8
:1012600070BD00BFB0B582B00446A168A1F1804056
:10127000A0F584304FEAB020042807D80025DFE825
:1012800000F013030E10120001250DE041F600409E
:101290000625C4F20100814208BF052504E00225AD
:1012A00002E0032500E004252046FFF729FF014660
:1012B000E8B2FFF704FAA08801210090207B8DF8A6
:1012C0000400607B8DF806108DF805006846FFF776
:1012D00072F8012002B0B0BD81601021828181735B
:1012E00043F63061C0F6010108310160704781604A
:1012F00043F6306182818373C0F6010108310160D9
:10130000704700BF10B582B00446A268A2F18040C9
:10131000A0F584304FEAB021042907D80220DFE885
:1013200001F013030E10120003200DE041F60041FE
:101330000820C4F201018A4208BF072004E004200B
:1013400002E0052000E006202168CA69C1B22046FB
:10135000904720680021C26920469047A089032158
:101360008DF8061001A9ADF80400A07B8DF80700E8
:10137000A068FFF7DAF8A189A0680022FFF748F912
:10138000012002B010BD10B50446E27BA189A0681F
:1013900022B10122FFF73CF9002003E00022FFF711
:1013A00037F90120E07310BD0171009982600022BD
:1013B000037302640284C0E9041243F63871C0E981
:1013C0000622C0F60101083101607047B0B582B055
:1013D00004460020012101906069FFF746FA4FF6AC
:1013E000FF7040250190C0F20305606904E0481ECB
:1013F000002901900BD060692946FFF7D3FA0199C3
:101400000028F4D0A1616069FFF75DFA04E0206C68
:1014100040F040002064FF2002B0B0BDB0B582B003
:1014200004460020002101906069FFF71EFA4FF684
:10143000FF7040250190C0F20305606904E0481E7A
:10144000002901900BD060692946FFF7ABFA01999A
:101450000028F4D0A1616069FFF735FA04E0206C40
:1014600040F080002064FF2002B0B0BDF0B583B032
:1014700015460E46044606F03FFC216C002200276C
:10148000084331462064204600F04CF8216C0843A4
:101490002946206401976069FFF713FA4FF6FF7041
:1014A00084250190C0F20705606904E0481E002908
:1014B00001900AD060692946FFF774FA0199002863
:1014C000F4D021620021206C04E0206C042140F063
:1014D0000400206408430121206400200290606918
:1014E000FFF7BAF94FF6FF7010250290C1F2000520
:1014F000606904E0481E002902900AD0606929460C
:10150000FFF761FA02990028F4D121630021206CD1
:1015100004E0206C022140F00200206408432064B3
:1015200003B0F0BD70B582B00026044615460196A2
:101530006069FFF7CBF9012D15D095BB4FF6FF7011
:1015400082250190C0F20705606904E0481E002969
:10155000019021D060692946FFF724FA01990028FB
:10156000F4D0032013E04FF6FF7002250190C0F283
:101570000305606904E0481E002901900CD06069F1
:101580002946FFF70FFA01990028F4D0042004EB54
:1015900080000026816104E0206C022640F00200F9
:1015A0002064F0B202B070BD70B582B00D46044642
:1015B00006F0A2FB216C0122084329462064204644
:1015C000FFF7B0FF216C084320642046FFF726FF99
:1015D00005460020012101906069FFF73DF94FF6B3
:1015E000FF7010260190C1F20006606904E0481EF9
:1015F000002901900AD060693146FFF7E4F90199AA
:101600000028F4D121630021206C04E0206C022129
:1016100040F00200206408432064284602B070BDF8
:10162000F0B581B00027064614460D468DF80370CC
:101630009DF80300FF281CD000279DF803103046BA
:1016400000F01AF840B9F8B20137B0FBF4F101FB31
:1016500014009DF80310295430688168304688478B
:101660009DF8030001308DF803009DF80300FF286A
:10167000E3D1F8B201B0F0BDF0B581B040F2FC6743
:101680000D4604464FF6FF76C2F200073E606069E1
:101690004FF40031FFF797F9396820B1481E00294F
:1016A0003860F4D131E0616301216069FFF7CBF864
:1016B0003E6001266069C0F2030604E0481E00296E
:1016C000386022D060693146FFF76CF9396800282C
:1016D000F4D0E161294600226069FFF7F7F84FF680
:1016E000FF7082253860C0F20705606904E0481E7B
:1016F0000029386009D060692946FFF753F9396835
:101700000028F4D06162002004E0206C40F0020068
:101710002064012001B0F0BD70470CF0D8BEB0B518
:1017200086B0044645F200452079C4F2000598B120
:1017300001281ED0022846D105F580602C21606169
:101740002068C2692046904720680321C26920466C
:1017500090474FF4406019E065612B212068C26911
:101760002046904720680321C26920469047C02048
:101770000CE065612B212068C269204690472068F3
:101780000321C269204690474FF44070ADF8040031
:1017900045F600016069C4F20001884209D0A84200
:1017A00011D14FF400100121FFF7AFFA4FF40010F0
:1017B00006E04FF480000121FFF7A7FA4FF4800004
:1017C0000021FFF7A2FA41F6034001A9ADF8060097
:1017D00005F53840FEF7A9FE40F200405022C4F261
:1017E0000000CDF812000020CBF6FF700390D4E982
:1017F0000410ADF81020029102A9FEF79AFF60696B
:101800000121FFF705F8012006B0B0BD2DE9F04336
:1018100083B01D464FF0000816460F460446002DC3
:10182000CDF8008053D0204606F066FA216C0022E5
:101830000843394620642046FFF774FE84274FF69C
:10184000FF79C0F2070716F8011BCDF80480606924
:10185000FFF737F8CDF8049060693946FFF7A2F832
:10186000019948B9481E00290190F5D1206C042146
:1018700040F00400206402E021620021206C084353
:10188000013D2064DFD10020012102906069FEF754
:10189000E3FF4FF6FF7010250290C1F2000560696A
:1018A00004E0481E002902900AD060692946FFF72B
:1018B0008AF802990028F4D121630021206C04E009
:1018C000206C022140F002002064084320640020C4
:1018D00003B0BDE8F0832DE9F04F81B01E4691467C
:1018E0000D468346002E00F0208140F200774FF62F
:1018F000FF785C46C2F20007C7F8008054F8140F66
:1019000006E03868411E0028396000F00381206835
:101910004FF40031FFF757F80028F2D12068012179
:10192000FEF7A3FF20684FF2FF71FFF709F8206868
:101930000121FEF788FFC7F8008040F2010A206805
:10194000C0F2030A06E03868411E0028396000F042
:10195000E18020685146FFF725F80028F3D0206881
:1019600029460122FEF7B2FF4FF6FF7040F204084D
:101970003860C1F200082068A8F1020506E0386866
:10198000411E0028396000F0C58020682946FFF715
:101990001AF80028F3D0012E25D120680021FEF787
:1019A00064FFEFF3108072B62068018B0121FEF70F
:1019B00053FF4FF6FF7062B608F13C0538602068AF
:1019C00006E03868411E0028396000F0A3802068D6
:1019D0002946FEF7F8FF0028F3D02068FEF773FFD2
:1019E00089F8000082E02068022E1BD14FF40061CC
:1019F000FEF7A6FFEFF3108072B62068018B00217E
:101A0000FEF733FF4FF6FF7062B63860206841463C
:101A1000FEF7D9FF002859D13868411E00283960E7
:101A2000F4D177E0018B4FF6FF753D6012E0386826
:101A3000411E002839606DD020684146FEF7C3FF83
:101A40000028F4D02068013EFEF73DFF09F8010BA5
:101A50003D602068032EF0D105E03868411E002863
:101A6000396057D020684146FEF7ADFF0028F4D01A
:101A700020680021FEF7F9FEEFF3108072B62068AF
:101A8000FEF721FF89F8000001212068FEF7E4FE3F
:101A900062B62068FEF717FF89F801004FF6FF7065
:101AA0000AF13F053860206805E03868411E0028CB
:101AB00039602FD020682946FEF774FF0028F4D043
:101AC0002068FEF700FF89F802000FE0EFF31080B6
:101AD00072B601212068FEF7BFFE2068008A89F8EF
:101AE000000062B62068008A89F801004FF6FF7096
:101AF00008F10C053860206805E03868411E0028B0
:101B0000396007D020682946FEF75DFF0028F4D130
:101B100010200BE0DBF80000816858468847DBF8AE
:101B2000400040F00200CBF840000020C0B201B0FD
:101B3000BDE8F08F01710099826003731022417338
:101B400040F60001C4F2010141610283002201F567
:101B50002051C26143F67872C0F601020832026079
:101B600001617047B0B586B004462079032872D869
:101B7000DFE800F002411A3443F600050C21C4F2FC
:101B8000000505F5784020612068C269204690472D
:101B9000E02005F550456946C1F60300009028464F
:101BA000FEF7C3FC102016E043F600052421C4F222
:101BB000000525612068C269204690474EF200006A
:101BC00005F554456946C1F6030000902846FEF726
:101BD000ACFC4FF480502083656127E043F60000A1
:101BE0002521C4F2000000F5806020612068C269F0
:101BF000204690472FE043F600050C21C4F2000573
:101C000005F5784020612068C26920469047382059
:101C10006946C1F60300009005F55440FEF785FCC7
:101C20004FF40040208305F55040606100204FF0E4
:101C30000072ADF80400217B02900392002908BFD6
:101C40004FF48270ADF80600607BADF810004FF4E1
:101C5000E020CDF81200208B6946ADF8000041F27B
:101C60000300ADF802006069FEF75FFC40F2F80087
:101C7000C2F200000078BFF35F8F10F0010F17D0A1
:101C800040F20475C2F200052846FFF73BFBE56110
:101C90000122A868A989FEF7BBFC206901A9FFF70A
:101CA0009DF820690121FFF717F9012006B0B0BDAA
:101CB00040F2F800C2F200000CF01EFE0028DFD057
:101CC0006169228B40F20470C2F20000FFF704FB4E
:101CD00040F2F800C2F2000001210160D0E70446A2
:101CE00040F2F800C2F2000000210160204605F039
:101CF0006EF9C0690A46012A8189806814BF0022F2
:101D00000122FEF785BCB0B50D46044620690221CC
:101D1000FFF74FF90028F9D020692946FFF706F9A7
:101D200020690121FFF745F90028F9D02069FFF764
:101D3000FFF8C0B2B0BDA521E5E7000040F2DC51DC
:101D4000C2F20001086800B1704740F2F360C2F2CD
:101D500000000860704710B5152806D8012401213D
:101D600004FA00F0FEF7ADFF14E0342808D8163866
:101D700001240121C0B204FA00F0FEF7AEFF09E031
:101D80003B2806D80124012104FA00F0FEF78DFF5C
:101D900000E00024204610BD10B5152806D8012407
:101DA000002104FA00F0FEF78CFF14E0342808D874
:101DB000163801240021C0B204FA00F0FEF78DFFAE
:101DC00009E03B2806D80124002104FA00F0FEF7C0
:101DD0006CFF00E00024204610BD000002F1090065
:101DE0003E2806D843F22073C0F6010353F82000C2
:101DF0000160C1B12B2A06DB302A01DA172202E08A
:101E0000362AB8BF282280B582B00F208DF8042072
:101E1000ADF8050000208DF8070001A8FEF766FA6E
:101E200002B0BDE88040012070472B2906DB302935
:101E300001DA172102E03629B8BF282180B582B027
:101E400000208DF805208DF804108DF806308DF8EF
:101E5000070001A8FEF74AFA012002B080BD10B5C4
:101E600040F28464C2F20004206800B110BD40F268
:101E7000F400C2F200000078BFF35F8F10F0010F92
:101E800005D040F2F860C2F20000206010BD40F2C0
:101E9000F400C2F200000CF02FFD0028F1D040F257
:101EA000F400C2F2000001210160EAE72B2906DB01
:101EB000302901DA172102E03629B8BF28214EF275
:101EC00080104EF29C12CEF20000CEF2000240EAE8
:101ED000D10001F01F011040012202FA01F101605E
:101EE000012070472B2906DB302901DA172102E097
:101EF0003629B8BF28214EF200104EF21C12CEF245
:101F00000000CEF2000240EAD10001F01F011040B3
:101F1000012202FA01F101600120704780B5202002
:101F2000FEF7A3FA38B12020FEF7ADFA40F2386090
:101F3000C2F2000032E04020FEF797FA38B14020AC
:101F4000FEF7A1FA40F23C60C2F2000026E08020D9
:101F5000FEF78BFA38B18020FEF795FA40F2406028
:101F6000C2F200001AE04FF48070FEF77EFA40B132
:101F70004FF48070FEF787FA40F24460C2F200002E
:101F80000CE04FF40070FEF770FA60B14FF400708F
:101F9000FEF779FA40F24860C2F20000006810B122
:101FA000BDE88040004780BD80B54FF48060FEF7FB
:101FB0005CFA40B14FF48060FEF765FA40F254607D
:101FC000C2F2000044E04FF40060FEF74EFA40B168
:101FD0004FF40060FEF757FA40F25860C2F200007A
:101FE00036E04FF48050FEF740FA40B14FF4805095
:101FF000FEF749FA40F25C60C2F2000028E04FF4BC
:102000000050FEF732FA40B14FF40050FEF73BFAB1
:1020100040F26060C2F200001AE04FF48040FEF728
:1020200024FA40B14FF48040FEF72DFA40F264608C
:10203000C2F200000CE04FF40040FEF716FA60B167
:102040004FF40040FEF71FFA40F26860C2F2000051
:10205000006810B1BDE88040004780BD80B5012018
:10206000FEF711FA40F22460C2F20000006810B1DD
:10207000BDE88040004780BD80B50220FEF703FA2E
:1020800040F22860C2F20000006810B1BDE8804054
:10209000004780BD80B50420FEF7F5F940F22C60C2
:1020A000C2F20000006810B1BDE88040004780BD6A
:1020B00080B50820FEF7E7F940F23060C2F2000078
:1020C000006810B1BDE88040004780BD80B5102099
:1020D000FEF7D9F940F23460C2F20000006810B196
:1020E000BDE88040004780BD80B52020FEF7CBF9D9
:1020F00040F23860C2F20000006810B1BDE88040D4
:10210000004780BD10B50C46FFF718FE2046BDE81D
:102110001040FFF720BE10B50C46FFF70FFE20461B
:10212000BDE81040FFF738BEB0B514460D46FFF7C6
:1021300096FE29462246BDE8B040FFF74FBE10B5D7
:102140000C46FFF78CFE2146BDE81040FFF7CABEE3
:1021500010B50C46FFF783FE2146BDE81040FFF79F
:10216000A5BE70B51C4615460E46FFF778FE3146F3
:102170002A462346BDE87040FFF757BE40F2E450C0
:10218000C2F200000168013101607047B0B586B04D
:1021900005460024CDB101A8FEF73DFD0298B0FB35
:1021A000F5F00138B4EB106F0ED14EF21001F022B1
:1021B000CEF2000148604EF62350CEF200000270CD
:1021C00000208860072008600124204606B0B0BDCA
:1021D00040F2E451C2F200010A681044824207D280
:1021E0000B68934238BF70470B688342F8D305E011
:1021F0000B689342FCD20B688342F9D3704700000E
:102200000121017140F2E271C1804FF0A0510160E3
:1022100005210172704780B584B0014601A800F025
:1022200004F89DF8060004B080BDB0B50446012056
:102230000D46207140F2E270E0804FF0A050206027
:1022400005202072284600F04DF8A87800F00F0114
:10225000C0F3021000EB800001EB4000A070E878B2
:1022600000F00F01C0F3021000EB800001EB400012
:102270006070297901F00F0011F0800F05D1C1F3D2
:10228000011101EB8101490004E0C1F34011494211
:1022900001F00C010844207068792072A87900F0E0
:1022A0000F01C0F3021000EB800001EB4000E07072
:1022B000E87900F00F01C0F3021000EB800001EBA1
:1022C00040002071287A00F00F01000900EB800027
:1022D00001EB4000C0B200F5FA60E080B0BD427290
:1022E000C160704710B582B0044600200DF10502B0
:1022F00001238DF80500617AE068FFF787FAE0684E
:10230000617AA21C0723FFF7E6FA02B010BD01F0C4
:102310000F00C1F3021101EB810100EB4100704796
:1023200001F00F0011F0800F05D1C1F3011101EB95
:102330008101490004E0C1F34011494201F00C0160
:102340000844C0B2704701F00F00090901EB810198
:1023500000EB4100C0B270472DE9F04182B0DEB21F
:1023600004463B2E47D8C8B2172844D8D5B23B2DD7
:1023700041D84CF6CD4702210DF105080223CCF6D9
:10238000CC478DF80510A0FB0712D10801EB8102A4
:10239000A0EB4200424640EA01108DF80600617A47
:1023A000E068FFF733FAA5FB070142460223C8089D
:1023B00000EB8001A5EB410141EA00108DF8060019
:1023C00001208DF80500617AE068FFF71FFAA6FB8F
:1023D000070142460223C80800EB8001A6EB410139
:1023E00041EA00108DF8060000208DF80500617AA2
:1023F000E068FFF70BFA02B0BDE8F08180B582B06B
:102400008DF806208DF805100DF105020223417AA2
:10241000C068FFF7FBF902B080BD4CF6CD40CCF6AA
:10242000CC40A1FB0002D00800EB8002A1EB4201EE
:1024300041EA0010C0B2704770B582B00446002077
:1024400001F0CCFE019001A801F084FF0546A869C7
:10245000052807D80726DFE800F011030A0C0E1044
:1024600001260BE0062818BF0020064606E00226DB
:1024700004E0032602E0042600E00526297BD5E9D6
:1024800004030130C2B203F26C7083B2204600F044
:1024900024F8D5E901014AF6AB22C2F6AA22063198
:1024A0001E2881FB02234FEA930202EBD37202EB58
:1024B0004202A1EBC2014FF01E02C8BFE22295F911
:1024C000003049B2104442B22046FFF745FFF1B256
:1024D000204600F05EF802B070BD2DE9F04182B0F8
:1024E0000D4604461646681EC0B21E284ED8701E01
:1024F000C0B20B284AD8A3F5FA60C0F3CC007C2800
:1025000044D806204CF6CD470DF105088DF805009E
:1025100003F13000CCF6CC470223C0B2A0FB071277
:10252000D10801EB8102A0EB4200424640EA0110D3
:102530008DF80600617AE068FFF768F9A6FB0701ED
:1025400042460223C80800EB8001A6EB410141EAA4
:1025500000108DF8060005208DF80500617AE0680E
:10256000FFF754F9A5FB070142460223C80800EB18
:102570008001A5EB410141EA00108DF8060004201E
:102580008DF80500617AE068FFF740F902B0BDE818
:10259000F0814A1ED2B2062A88BF704780B582B049
:1025A0008DF8061003210DF1050202238DF80510A8
:1025B000417AC068FFF72AF902B0BDE88040704751
:1025C0002DE9F04184B0804668464146FFF72DFE74
:1025D0000320BDF806609DF803509DF804708DF847
:1025E0000D0048F21F50C5F2EB10A6FB0001480990
:1025F000642100FB11600EF0E0F9002300220024AA
:10260000C3F6F4730EF02CFA0EF0A8F91DA106F033
:102610000303032F3944B3FA83F338BF012444F68C
:10262000251711F8011C5B09C2F2924723404A1991
:102630000244D21AD24312F1080FD8BF6FF007023A
:102640000244C01AD21A084402230A4428442A44E5
:102650000732A2FB0776971B06EB5707BE08F6006A
:10266000A6EB9707D71BBA1A10440DF10D028DF88F
:102670000E0098F80910D8F80C00FFF7C7F804B05E
:10268000BDE8F0810602020500030501040602040C
:102690002DE9F04184B08846014601A8FFF7C5FD49
:1026A0009DF804409DF805309DF8060030210A2C65
:1026B00007D34CF6CD42CCF6CC42A4FB022601EB6C
:1026C000D60140F20F064CF6CD423A250A2BC2F253
:1026D0000006CCF6CC423170A4FB0217B5704FEA6D
:1026E000D70101EB8101A4EB41014FF0300441F02F
:1026F0003001717024BFA3FB021704EBD704B8F1BB
:10270000010F314601F8055FA3FB02754FEAD507BB
:1027100001F8024C07EB8707A3EB470343F03003B4
:1027200001F8013C13D030210A2824BFA0FB023756
:1027300001EBD701B171A0FB0212D10801EB8101BD
:10274000A0EB410006F1080140F03000F0710020DC
:10275000087040F20F00C2F2000004B0BDE8F08142
:10276000F0B583B00D46014668461F461646FFF792
:102770005CFDBDF806109DF803009DF80420032EB3
:1027800036D0022E72D0012E40F05A8130260A280F
:1027900007D34CF6CD43CCF6CC43A0FB033406EB79
:1027A000D40640F204034CF6CD4C0A2AC2F20003D0
:1027B000CCF6CC4C1E70A0FB0C469F704FEAD606A0
:1027C00006EB8606A0EB460040F0300058704FF054
:1027D000300024BFA2FB0C6400EBD400D8705F7102
:1027E000A2FB0C07F80800EB8000A2EB400030E0F1
:1027F00030260A2A07D34CF6CD43CCF6CC43A2FBB5
:10280000033406EBD40640F204034CF6CD4C0A2800
:10281000C2F20003CCF6CC4C1E70A2FB0C469F709B
:102820004FEAD60606EB8606A2EB460242F03002DD
:102830005A704FF0300224BFA0FB0C6402EBD402AC
:10284000DA705F71A0FB0C27FA0802EB8202A0EBA2
:10285000420040F03000012D187112D140F2DA70C0
:10286000A1F5FA62814234D230203CE0012D4ED1F4
:1028700040F2DA76A1F5FA63B14280F0818030212E
:1028800088E044F6D350C1F26200A1FB0002302080
:1028900000EB921792099F714FF47A7702FB17129F
:1028A00048F21F57C5F2EB17A2FB072640EA561263
:1028B000DA71A1FB07277A09642702FB1712A2FB32
:1028C0000C2740EAD7000A46187203F10A000933C0
:1028D0000DE046F26760C6F2666082FB0001881078
:1028E00000EBD1703030987103F10800073346F2E5
:1028F0006761C6F2666182FB0117B90801EBD77107
:1029000001EB8101A2EB41013031197096E044F6F0
:10291000D35340F204044FF0300CC1F26203C2F210
:102920000004A1FB03360CEB9615B60925704FF495
:102930007A7506FB151648F21F55C5F2EB15A6FB76
:1029400005634CEA53136370A1FB053673096426D3
:1029500003FB16134CF6CD46CCF6CC46A3FB06354E
:102960004CEAD503E51CA370A1FB0636F308261D2F
:1029700003EB8303A1EB430141F0300302211FE08D
:1029800046F26761C6F2666183FB0116B11001EB86
:10299000D671303146F26766C6F2666683FB06651D
:1029A000AE1006EBD57640F2040506EB8606C2F2C1
:1029B0000005A3EB4603AE1C05F8011B00213033D4
:1029C0002B7030250A2A377007D34CF6CD43CCF64E
:1029D000CC43A2FB033605EBD60540F204034CF6CC
:1029E000CD4C0A28C2F20003CCF6CC4C03EB010616
:1029F000F570A2FB0C454FEAD50505EB8505A2EB6A
:102A0000450241F0040542F030025A5541F00502FA
:102A10009F544FF0300224BFA0FB0C7502EBD5028F
:102A2000B271A0FB0C27FA0802EB8202A0EB420075
:102A300040F03000F07141F00800184400210170AE
:102A400040F20400C2F2000003B0F0BD10B584B043
:102A50000C46014601A8FFF7E8FB43F2047043F27D
:102A6000E861012CC0F60100C0F6010108BF014673
:102A70009DF80C0001EB800050F8040C04B010BD70
:102A800010B584B00C46014601A8FFF7CEFB43F217
:102A9000886043F2B861012CC0F60100C0F6010164
:102AA00008BF01469DF8080001EB800050F8040CB7
:102AB00004B010BDB0B55FFA82FC080EBCF1020F85
:102AC0000DD3ACF1010300240FF28C0E00251EF88B
:102AD000044080B201352044ECB2A342F7DC4FF64B
:102AE000330340F26D14BCF1020FCFF6FF7303EB1A
:102AF00012434FEAE37503EB95734FEA124502F474
:102B0000403204FB05F5B2FA82F205EB93034FF075
:102B100000054FEA521288BF01252A4010444DF6A5
:102B20006F4218441044CAB280B200EB400002EB7E
:102B3000C000C1F30722C1F30741C0EB001002EB54
:102B40008000C0EB001001EB800044F28031C3F63E
:102B50006D010844B0BD00BF1F1C1F1E1F1E1F1F9C
:102B60001E1F1E1F70B582B00C460F2105460F2692
:102B700000F011F800F0F7008DF805600DF1050286
:102B8000022340EAC4008DF80600697AE868FEF77F
:102B90003DFE02B070BDB0B582B004468DF80510A0
:102BA0000DF105050123617AE0682A46FEF72EFE45
:102BB000E068617A2A460123FEF78DFE9DF8050044
:102BC00002B0B0BD70B582B00C460E2105460E268F
:102BD000FFF7E1FF00F0FB008DF805600DF1050245
:102BE000022340EA84008DF80600697AE868FEF75F
:102BF0000DFE02B070BD70B582B00C460E210546C8
:102C00000E26FFF7C8FF00F0E7008DF805600DF114
:102C10000502022340EAC4008DF80600697AE868DC
:102C2000FEF7F4FD02B070BDB0B511210446FFF708
:102C3000B2FF054620461221FFF7ADFF04462846A5
:102C40000EF00CFC0546A0090EF0F0FB4FF07A5197
:102C50000EF080FC29460EF03FFAB0BDC068016856
:102C6000896808472DE9F04184B00C46014601A867
:102C7000FFF7DBFA9DF80710BDF80A709DF80560B4
:102C80009DF806809DF8085001A80BF083F89DF888
:102C90000400C00703D1BDF80500208004E00398BC
:102CA000018821800BF013FC2D202946A07001A87B
:102CB0000BF070F89DF80400C00704D1BDF80500C2
:102CC000A4F8030005E003980188A4F803100BF0B2
:102CD000FEFB2D203946607101A80BF05BF89DF8D2
:102CE0000400C00704D1DDF80500C4F8060005E0C3
:102CF00003980168C4F806100BF0E9FB01A83946F7
:102D00000BF048F89DF80400C00703D1BDF805009A
:102D1000608104E00398018861810BF0D8FB3A20C0
:102D20003146207301A80BF035F89DF80400C00768
:102D300004D1BDF80500A4F80D0005E00398018852
:102D4000A4F80D100BF0C3FB3A204146E07301A834
:102D50000BF020F89DF80400C00703D1BDF8050072
:102D6000208204E00398018821820BF0B0FB20460A
:102D700004B0BDE8F0810000B0B582B00546069809
:102D80001446CDE9003047F683432846C0F60003D9
:102D9000FEF750F943F670610020C0F60101287576
:102DA0000831296040F2E251C2F200010C8028840F
:102DB000C5E9060005F124001C2101F0A4FA28460B
:102DC00002B0B0BD80B5FEF7F1F9012080BD00BFB3
:102DD00040F2E051C2F200010A78072A49D8DFE840
:102DE00002F04A040F1F0B23274440F2E452C2F2C0
:102DF00000021268C2613CE0826942F0400237E0A2
:102E000040F2E453C269C2F200031B689A1A38BF49
:102E1000013AA2F14603B3F5A57F2DD8062229E099
:102E2000826942F0200223E0826942F008021FE03A
:102E300080B540F2F46C40F2E45EC2F2000CC2F2E3
:102E4000000EDCF80020DEF800309A1A38BF013A94
:102E5000B2F5967F91BF0722DEF80020CCF8002063
:102E600005220A70BDE880401AE0826942F0100233
:102E7000826100220A7013E0A2F52F73B3F5487F38
:102E800001D80322F6E7A2F5FA63B3F57A6F01D809
:102E90000422EFE741F2D4739A4238BF00E0E8E73A
:102EA00010B50446A069A8B3810706D5A16A21B16F
:102EB0008847A06920F002002BE0410706D5E16AAF
:102EC00021B18847A06920F0040022E0010706D55F
:102ED000216B21B18847A06920F0080019E0C106E4
:102EE00006D5616B21B18847A06920F0100010E081
:102EF000810606D5A16B21B18847A06920F020008A
:102F000007E0400606D5E06B20B18047A06920F0BD
:102F10004000A06110BD00BF033903290BD8DFE8D2
:102F200001F002040608303004E0343002E03830AA
:102F300000E03C300260012070470000027243F65E
:102F4000CC62C0F601020832C0E900217047704728
:102F50000BF0BDBAF0B581B00C46054600F023F881
:102F60002060284600F03CF86060284600F047F8F2
:102F7000A06000210027256828460EF032F9261DA2
:102F800038B946F266612846C3F666710EF01BF941
:102F900000B927603068002100240EF014F900B950
:102FA000346001B0F0BD80B582B00DF1060202219F
:102FB00000F05EF8BDF8061047F6FC7000EA51001C
:102FC0000DF0FBFC4AF6FC1246F24D23CDF2F12245
:102FD000C3F650730DF044FD0DF03EFA02B080BD13
:102FE000B0B5044600F0F3F80EF020FA054620696B
:102FF0000EF034FA014628460EF006F9B0BDB0B521
:1030000082B004460DF105020323E068010A8DF841
:10301000061005218DF805108DF80700217A6068EB
:10302000FEF7F4FB0DF102022046032100F020F828
:10303000BDF902000EF0FAF9054660690EF00EFACD
:10304000014628460EF0E0F802B0B0BD80B582B06F
:103050008DF80510110A8DF807200DF105020323E4
:103060008DF80610017A4068FEF7D0FB02B080BDF3
:1030700070B582B005468DF805100DF105061446B1
:103080000123297A68683246FEF7C0FB6868297A0E
:1030900032460223FEF71FFC9DF805009DF806103E
:1030A00041EA0020208002B070BDB0B582B0044675
:1030B0000A204FF4805102220DF105050323C4E9D3
:1030C0000310002062612A468DF8070041F20500D6
:1030D000ADF80500217A6068FEF798FB1F202A46AC
:1030E00003238DF807004FF47050ADF80500217AE6
:1030F0006068FEF78BFB02B0B0BDB0B582B004468D
:1031000019204FF4205101220DF105050323C4E9D4
:103110000310002062612A468DF8070042F6050080
:10312000ADF80500217A6068FEF770FB1F202A4683
:1031300003238DF807004FF47050ADF80500217A95
:103140006068FEF763FB02B0B0BDB0B582B0044664
:1031500014204FF4005101220DF105050323C4E9A9
:103160000310002062612A468DF8070042F2050034
:10317000ADF80500217A6068FEF748FB1F202A465B
:1031800003238DF807004FF48060ADF80500217A25
:103190006068FEF73BFB02B0B0BD80B582B00DF1B8
:1031A00006020221FFF764FFBDF8061047F6FC7027
:1031B00000EA510002B080BD80B582B00DF1060278
:1031C0000121FFF755FFBDF9060002B080BD10B523
:1031D00082B004460DF105020323E068010A8DF870
:1031E000061005218DF805108DF80700217A60681A
:1031F000FEF70CFB0DF1020220460421FFF738FF19
:10320000BDF9020002B010BD80B582B00DF106021A
:103210000121FFF72DFFBDF906000DF0CEFB41F2B5
:103220007B4247F6E123C4F2AE72C3F684730DF01D
:1032300017FC0DF011F902B080BD000010B5044676
:10324000FEF74AF843F68450C0F6010008302060CB
:103250002046FEF757F8204610BDB0B504460122BF
:103260000125A189A068FDF7D3F92575B0BDB0B5DA
:10327000044600220025A189A068FDF7C9F925753B
:10328000B0BD80B582B0002201E0019A0132019206
:10329000019A8A42F9D3FEF776F802B080BD70B584
:1032A00082B000260D460446019602E001980130E6
:1032B000019001989042F9D32046FEF764F80196F8
:1032C00002E00198013001900198A842F9D320460C
:1032D000FEF759F802B070BDF0B581B00026054682
:1032E0000C4600960098A0421ED20127A989A86822
:1032F0000122FDF78DF9C8202F75FEF769FFA98916
:10330000A8680022FDF784F9C8202E75FEF760FF3B
:10331000A989A8680122FDF77BF92F750098013073
:1033200000900098A042E1D301B0F0BDC0E90013C5
:1033300000998260C160704710B50446206801683A
:10334000896888476068016889688847A06801685B
:1033500089688847E068016889688847204600F0E6
:1033600002F8012010BD10B504460022A068818932
:103370008068FDF74DF94FF47A70FEF729FFA068D9
:10338000012281898068FDF743F92046002121222E
:1033900000F01EF820460021BF2200F019F8204658
:1033A0000021042200F014F820460021132200F02E
:1033B0000FF820460021202200F00AF820460021C4
:1033C0000C2200F005F8204600F01DF8012010BD89
:1033D000B0B5044615460A466068012A81898068AE
:1033E00014BF00220122FDF713F920680021FEF727
:1033F00080FC20682946FEF786FC20680121BDE894
:10340000B040FEF776BCB0B504464FF4FC752046DC
:1034100001210022FFF7DCFF013DF8D12046002109
:103420008022FFF7D5FF204600214022BDE8B040B2
:10343000CEE70C2905D00D2918BF704700210D22B9
:10344000C6E700210C22C3E7B0B5054641F0800075
:1034500014460021C2B22846FFF7BAFF44F04000EC
:103460000021C2B22846BDE8B040B1E770B50C46B5
:1034700005460026A25D28460121FFF7A9FF013677
:10348000B6F5FC7FF6D170BD70B5044601EB810046
:1034900043F640010026C0F601010844A0F1A00552
:1034A000AA5D20460121FFF793FF0136052EF7D1D3
:1034B000204601210022BDE8704089E7B0B50446EE
:1034C000087840B14D1CC1B22046FFF7DDFF15F86A
:1034D000010B0028F7D1B0BD2DE9F04381B00F46B4
:1034E000044602EB42008021984641EA4000002158
:1034F0005FFA80F920464A46FFF76AFF47F0400727
:10350000204600213A46FFF763FF44F2D1162020FF
:103510000125C0F60106C1B22046FFF7B5FF705D78
:1035200001350F2DF7D1204600214A46FFF750FF05
:10353000204600213A46FFF74BFF98F8000070B193
:1035400008F101050026C1B22046FFF79DFF0136B4
:10355000F0B20D2803D815F8010B0028F3D101B003
:10356000BDE8F08370B50D46064602EB42008021AF
:103570001C4641EA40000021C2B23046FFF728FF56
:1035800045F0400230460021FFF722FF3046214639
:10359000BDE8704078E770B50C46002180220546F2
:1035A0000026FFF715FF284600214022FFF710FFF5
:1035B000A15D2846FFF768FF0136542EF8D170BD93
:1035C00010B5044643F6DC602E22C0F6010000F17F
:1035D0000801204640F8041B542100F08CFE2046D0
:1035E00010BD70470AF073BF0430542200F004BECF
:1035F00010B5DDF808C0BCF1000F08BF10BD42F2E5
:1036000093444FEA520EC9F24924AEFB044E4FEAEE
:103610009E04E400A4EB9E04A2EB440E4AF6AB2405
:10362000CAF6AA24A1FB0442920802EB4202A1EBD3
:103630004201C1EBC1010EEB41010844043013F813
:10364000011BBCF1010C00F8011BF8D110BD19B130
:103650000430542200F0D0BD704701290CD029BBA2
:1036600040F2D85240F2D951C2F20002C2F2000137
:10367000127808780A7014E040F2D85040F2D9511C
:10368000C2F20000C2F200010078087040F2DA5184
:103690000130C2F20001C0B20978B0FBF1F202FBC6
:1036A000110040F2D851C2F20001087070470000CA
:1036B000C162704710B50446E06AFFF73DFEE06A5C
:1036C00005A300210022FFF707FF2046292100F073
:1036D0001AFE012010BD00BF496E697469616C69F2
:1036E0007A696E670000000010B50C462178032946
:1036F00008BF10BD40F2D8524CF6CD43C2F20002D2
:10370000CCF6CC4392F800C0ACFB0332D20802EBFB
:103710008202ACEB420250F82200026892689047A5
:103720000320207010BD10B540F2D8514CF6CD42A8
:10373000C2F20001CCF6CC420978A1FB0223DA08E0
:1037400002EB8202A1EB420150F8211009B9016895
:1037500051B1C46A0868C2680846904701462046CD
:10376000BDE81040FFF717BF10BD0000B0B504461C
:10377000FFF726FF43F6B060C0F6010000F1080134
:10378000204640F85C1BFFF71BFF0020302184F827
:10379000E40042F23E00A4F8580004F1B40000F046
:1037A000B2FD2046B0BD05462046FFF71AFF284669
:1037B00003F00DFC10B5044643F6B060C0F60100FE
:1037C00000F10801204640F85C1BFFF70AFF204685
:1037D000BDE81040FFF705BF10B5044643F6B060E2
:1037E000C0F6010000F10801204640F85C1BFFF71D
:1037F000F8FE2046FFF7F5FEBDE810400AF067BE70
:1038000080B54AF6AB2CB430CAF6AA2CA1FB0CCE7C
:103810004FEA9E0C0CEB4C0CA1EB4C0140F8312014
:10382000042242EAC101435080BD10B5DDF808C052
:10383000BCF1000F08BF10BD42F293444FEA520E94
:10384000C9F24924AEFB044E4FEA9E04E400A4EB07
:103850009E04A2EB440E4AF6AB24CAF6AA24A1FBAE
:103860000442920802EB4202A1EB4201C1EBC1010A
:103870000EEB41010844603013F8011BBCF1010C50
:1038800000F8011BF8D110BD022904D001290CD089
:1038900099B9012112E090F8E410042242EAC10132
:1038A0000844D0F8B40040B1004790F8E41000EBB1
:1038B000C100D0F8B40000B10047704770B582B0C5
:1038C00004460E460120002294F8E41004F15C0541
:1038D000009004F159032846FFF78AFE94F8E400AB
:1038E000052805D048B97EB1012E09D000200EE090
:1038F00046B1012E16D1002007E01EB1012E06D1DF
:10390000013002E0FF3000E0052084F8E4000121EE
:1039100004F1580300220091C1B22846FFF768FE67
:1039200002B070BD0520F2E780B586B040F6000118
:1039300043F6E31308200222009001A8C4F201011B
:10394000C0F60003FDF768FBFDF730FC40F28C3059
:10395000C2F20000FDF72AFC40F25810C2F200004B
:10396000FFF730FA40F2581043F6F3120321C2F287
:103970000000C0F60002FFF7CFFA40F2581043F6FD
:1039800001220521C2F20000C0F60002FFF7C4FACE
:1039900040F2581043F60F220621C2F20000C0F692
:1039A0000002FFF7B9FA40F2FC00C2F20000FDF796
:1039B000B6FE40F24010C2F20000FFF776FB40F284
:1039C000B400C2F20000FFF775FE00F027F840F2E5
:1039D000A030C2F20000FFF741F906B080BD03F04D
:1039E000F6FA40F2E460C2F20000016801310160C1
:1039F000704740F220000021C2F2000001707047C1
:103A000040F220000121C2F200000170704740F234
:103A100020000221C2F200000170704770B540F230
:103A20001C3644F28B11C2F20006C0F6010130468A
:103A3000FFF7DAFD40F2342544F284215422C2F229
:103A40000005C0F6010105F1600000F01AFC43F624
:103A50009D5243F6B75328460021C0F60002C0F637
:103A60000003FFF7CDFE43F6D9522846012100237B
:103A7000C0F60002FFF7C4FE40F2B4004CF6CD429F
:103A8000C2F20000CCF6CC4290F82810A1FB023420
:103A9000E30803EB8303A1EB430340F823604B1CD3
:103AA0000231DEB2A6FB0224E20802EB8202A6EBA0
:103AB000420240F8225040F2883280F82810C2F2C8
:103AC0000002137070BD70472DE9F04182B040F2E2
:103AD0005810C2F20000FFF77BF940F2B40440F244
:103AE0002001C2F20004C2F200012046FFF7FCFDF3
:103AF0002046FFF718FE40F2307500200622C2F281
:103B00000005294600F036F840F21C780020062215
:103B1000C2F20008414600F02DF840F21C3604279E
:103B200010A303210022C2F2000600973046FFF7DF
:103B30005FFD07243046032104222B460094FFF743
:103B400057FD0AA33046042100220097FFF750FDDD
:103B500030460421042243460094FFF749FD02B099
:103B6000BDE8F08156203D200000000049203D20A6
:103B7000000000002DE9F04190460D4606460DF08C
:103B800039FC29460022044600F06FF90746B8F1D7
:103B9000000F08BFBDE8F08120460DF047FC01464C
:103BA00030460DF0A3FD3D442E2105F8011B0DF01C
:103BB00067FA044640460E460CF0FFFE0B46002115
:103BC00002460020C4F224010BF0B8FE2246334620
:103BD0000CF046FF0CF040FC0DF00CFC2946424670
:103BE000BDE8F04141E140F28C30C2F20000818832
:103BF0008068FCF7F9BC10B540F2B034C2F20004A2
:103C00002046FFF72AFB4FF47A70FEF7E1FA2046D0
:103C1000FFF72DFB4FF47A70BDE81040FEF7D8BADD
:103C200040F25810C2F20000FFF7D2B880B540F25F
:103C3000B0300121C2F20000FFF74EFB40F2E40079
:103C400004A301210022C2F20000BDE88040FFF77A
:103C500043BC00BF436C69636B00000080B540F259
:103C6000B0300221C2F20000FFF736FB40F2E40060
:103C700004A301210022C2F20000BDE88040FFF74A
:103C80002BBC00BF4C6F6E672050726573730000D1
:103C900080B540F2B0300321C2F20000FFF71CFBF8
:103CA00040F2E40004A301210022C2F20000BDE8BA
:103CB0008040FFF711BC00BF4C6F6E67204C6F6EE9
:103CC000672050726573000040F2FC0040F2E8612A
:103CD0000A22C2F20000C2F20001FDF7A1BC70B5D9
:103CE00040F25810C2F20000FFF772F840F2F2659D
:103CF00044F2AC0640F2E40400210022C2F20005C6
:103D0000C0F60106C2F20004287800F00700335C18
:103D10002046FFF727FC28780021022200F0070048
:103D2000335C2046FFF71EFC28780021042200F0B7
:103D30000700335C2046FFF715FC28780021062297
:103D400000F00700335C2046FFF70CFC28780021C8
:103D5000082200F00700335C2046FFF703FC2878B8
:103D600000210A2200F00700335C2046FFF7FAFB2F
:103D700028780C22411C00F00700335C2970204693
:103D80000021FFF7EFFB9620BDE87040FEF720BA58
:103D900040F2B030C2F20000FDF7F5BA40F2D85060
:103DA00040F2D952C2F20000C2F200020178117052
:103DB00000210170704710B540F2B034C2F2000427
:103DC0002046FDF7E0FAC820FEF702FA2046BDE8DB
:103DD0001040FDF7D8BA00BF10B582B040F22024E1
:103DE000C2F200042046FDF7CEFAA189A068FCF7D4
:103DF00003FC40F2342100284FF003004FF00B0287
:103E0000C2F20001009040F2342091F8E410C2F2B6
:103E1000000014BF02A303A3FFF707FD02B010BD0B
:103E20004F4E20004F46460040F2D85040F2D95243
:103E3000C2F20000C2F200020178117040F2883133
:103E4000C2F200010978017070470229B8BF7047BB
:103E50000139002210F802C0435C835400F801C00D
:103E6000013901328A42F5DB704770B50D461646BE
:103E70000021A0B146F26762C6F2666280FB02349E
:103E8000A31003EBD47303EB8304A0EB44040930C9
:103E90003034122818466C5401F10101EED8B142B9
:103EA00005DA6818711A302200F01DFA00E00E469B
:103EB000022E09DB701E00216A5C2B5C6B542A54B5
:103EC000013801318142F7DB0020A855304670BD32
:103ED0002DE9F04381B040F6000640F28C30042218
:103EE000C4F20106C2F200003146FDF787F840F245
:103EF000B03006F500614FF40052C2F20000FFF747
:103F00009DF9002031464FF400620823009040F2F2
:103F10005810C2F20000FEF72FFF41F6802040F259
:103F2000FC08002100220023C0F20600C2F20008B3
:103F300000904046FDF738FA40F2000941F219704E
:103F40004146C0F60009C0F600004A4600F04FF9AD
:103F500040F2401741468022C2F200073846FEF781
:103F6000EDFF42F64F7039464A46C0F6000000F0B9
:103F70003EF940F200271820002100220023C2F25F
:103F8000000700903846FDF7D5FD06F5806440F245
:103F900074360222C2F2000621463046FDF79CF933
:103FA00040F2EC1521460122C2F200052846FDF739
:103FB00093F940F2202021464FF48062C2F20000C3
:103FC000FDF78AF940F2E404009039462A46334668
:103FD000C2F200042046FFF7A9F940F2B4002146DE
:103FE000C2F20000FFF764FB40F23424C2F2000486
:103FF0002046FFF7BBFB43F2B57021464A46C0F6A8
:10400000000000F0F4F840F21C34C2F20004204634
:10401000FFF7D6FA43F2E35021464A46C0F60000C5
:1040200000F0E5F840F2A0304146D022C2F2000094
:1040300001B0BDE8F043FEF752B9000009488047DF
:1040400009480047FEE7FEE7FEE7FEE7FEE7FEE77A
:10405000FEE7FEE7FEE7FEE704480549054A064B92
:10406000704700007D400008ED0000084007002078
:10407000400D0020400900204009002082B041F29C
:1040800000000022C4F20200CFF6FF02016841F0F6
:1040900001010160416811404FF6FF724160CFF6A7
:1040A000F662016811400160016821F4802101601D
:1040B000416821F4FE0141604FF41F01816000213D
:1040C00001910091016841F480310160016801F4BF
:1040D00000310091019901310191009919B90199BB
:1040E000B1F5A06FF2D1016811F4003F0CBF0021BF
:1040F000012100910099012932D14FF48051425899
:1041000042F010024250425822F0030242504258FC
:1041100042F002024250416841604168416041689A
:1041200041F480614160416821F47C114160416843
:1041300041F4E8114160016841F08071016001685B
:1041400011F0007FFBD0416821F00301416041681C
:1041500041F002014160416801F00C010829FAD1E7
:104160004EF608504FF00061CEF20000016002B040
:10417000704741F20400C4F20200016801F00C0231
:1041800041F20021C0F27A01082A16D1026840F6F5
:104190000013C0F23D03C2F3834202F1020C026835
:1041A00012F4803F02D10CFB03F106E0026812F426
:1041B000003F08BF0B4603FB0CF140F2000243F640
:1041C0002003C2F20002C0F6010311600068C0F3D0
:1041D0000310185C21FA00F01060704710B5044617
:1041E00000211120ABBE002C00D0206010BD0B467A
:1041F0000146184600F0FDBB032A40F2308010F063
:10420000030C00F0158011F8013BBCF1020F624471
:1042100098BF11F801CB00F8013B38BF11F8013B02
:10422000A2F1040298BF00F801CB38BF00F8013BAF
:1042300011F0030300F02580083AC0F0088051F81F
:10424000043B083A51F804CBA0E80810F5E7121D2A
:104250005CBF51F8043B40F8043BAFF30080D20749
:1042600024BF11F8013B11F801CB48BF11F8012B15
:1042700024BF00F8013B00F801CB48BF00F8012B38
:10428000704710B5203AC0F00B80B1E81850A0E894
:104290001850B1E81850A0E81850203ABFF4F5AF14
:1042A0005FEA027C24BFB1E81850A0E8185044BF70
:1042B00018C918C0BDE810405FEA827C24BF51F8DD
:1042C000043B40F8043B08BF7047D20728BF31F8D1
:1042D000023B48BF11F8012B28BF20F8023B48BF22
:1042E00000F8012B704702F0FF0343EA032242EA81
:1042F000024200F062BC02F0FF0343EA032242EAFA
:10430000024200F002B84FF0000200B51346944696
:104310009646203922BFA0E80C50A0E80C50B1F11D
:104320002001BFF4F7AF090728BFA0E80C5048BF31
:104330000CC05DF804EB890028BF40F8042B08BFCF
:10434000704748BF20F8022B11F0804F18BF00F8CB
:10435000012B7047014900F051BC000028000020EB
:10436000704770477047000070B5064C7C44064D9E
:104370007D4403E0206820448047241DAC42F9D1ED
:1043800070BD0000EC000100EC000100704700006F
:10439000004870475400002070B5064600F0B4FC99
:1043A000056806F10B0020F00704B4429CBF002012
:1043B00070BD2B466A68BAB11068A04210D304F1F0
:1043C000080188423CBF5068586007D351681019F3
:1043D00041601168091B016058601460101D70BDB8
:1043E00013465268002AE7D12146284600F098FC7F
:1043F0000028DED170BD70B50446051F00F084FCB6
:104400000068002C14BF446870BD002C18BFAC427B
:104410003CBF20466468F8D301680A18AA4218BF56
:10442000456003D12A680546114401602868411996
:10443000A1421CBF6C6070BD61686960216808445E
:10444000286070BD2DE9F04791460C46804600F08B
:104450005BFC0768604234EA000001D1042C02D200
:104460000520BDE8F087601E40F0070609F10B004B
:1044700020F007054D459CBF0020BDE8F0873B4676
:104480007A6882B31468101D404206EA000C644545
:1044900025D9A4EB0C00854221D8BCF1000F0BD02C
:1044A000104601686244A1EB0C0111604168516043
:1044B000C0F800C058600346116805F10800814249
:1044C00005D35019491B016015605860034652F826
:1044D000040F58600020C8F80020BDE8F08713469C
:1044E0005268002ACED12946384600F019FC00282F
:1044F000C5D10620BDE8F08710B5FFF749FF006879
:1045000010BD10B50446FFF743FF046010BD000066
:104510000FB47CB50C0009AA009002D000EB440057
:10452000801E0C4B7B4469460190089800F0B5FF53
:10453000054634B101986946801C0190002000F0C6
:10454000BFFFA54204D34FF0FF307CBC5DF814FBE5
:104550002846FAE7990F00000FB47CB50C0009AAB1
:10456000009001D02044401E084B7B4469460190D6
:10457000089800F024FF05461CB10020694600F0B1
:1045800031FF28467CBC5DF814FB0000810E000062
:104590002DE9F0410646002410687529314616A51C
:1045A00010D000F079FC002802DA404213A507E0A1
:1045B00031688A0701D512A502E0490704D511A583
:1045C000012401E000F071FC00210A2206F1240719
:1045D00009E0B0FBF2FCB0FBF2F302FB1C00303050
:1045E00078541846491C0028F3D123462A46304601
:1045F000BDE8F04100F062BC000000002D000000AA
:104600002B000000200000002DE9F0418046D21D63
:1046100022F007020025D2E90002F52915A614D0E0
:10462000011E72F1000106DA0023D0EB030063EBF8
:10463000020211A608E0D8F800108B0701D50FA6DA
:1046400002E0490701D50EA601251146002408F114
:10465000240704E000F0AEFB30323A55641C50EA07
:104660000102F7D12B46324621464046BDE8F041D3
:1046700000F024BC000000002D0000002B00000012
:10468000200000002DE9F05F894604464FF0000A43
:10469000DFF874B1FB44C0F820A02046E1688847E9
:1046A000002874D0252806D0D4E901219047206A3B
:1046B000401C2062F1E700265F462046E1688847FB
:1046C0002028054607DB312D05D2781910F8200C7B
:1046D00008B10643F1E7B00701D526F00406C4F897
:1046E0001CA00027C4F818A02A2D09D028460BF0DA
:1046F000B8F838B304EB8708303DC8F8185019E013
:1047000059F8041B204604EB87029161E168884751
:10471000012F054618D1E069002820DA26F020068E
:104720001DE0D8F8180000EB800005EB40003038A1
:10473000C8F818002046E168884705460BF091F854
:104740000028EED1012F0AD02E2D08D12046E16895
:1047500088477F1C0546022F46F02006C4DBA0696F
:10476000002803DA404246F00106A061F00701D0BC
:1047700026F010066C2D0BD0682D09D04C2D39D0A9
:104780006A2D35D0742D35D07A2D33D016E038E02F
:10479000E1682F4620468847B842054609D16C2F6C
:1047A00026D04FF48060E1680643204688470546DE
:1047B00004E06C2F1AD04FF4807006430DB3A5F1BE
:1047C0004100192802D8203546F400664A46294699
:1047D000204626604E46FBF7C3FC80B101280BD073
:1047E000F61D26F0070000F1080956E74020E4E72F
:1047F0008020D8E70020D6E706F104094DE72846D7
:1048000052E7206ABDE8F09FD8EE00002DE9F0479E
:1048100091460F4680460446002614F8015B2DB1F0
:1048200000F06AFA0068405DC007F6D12B2D02D077
:104830002D2D18D0641E4A463946204600F0F6FE5B
:1048400027B13968A14201D1C7F800804FF00204B6
:1048500071050BD54042002803DDFFF799FD046088
:10486000A007BDE8F08746F48066E4E70028F8DAA0
:10487000FFF78EFD04606FF00040F2E72DE9F05F76
:1048800093460F46804604460026FFF781FDD0F888
:104890000090824614F8015B2DB100F02DFA0068FB
:1048A000405DC007F6D12B2D02D02D2D1AD0641EED
:1048B0000021CAF800105A463946204600F0B6FEDC
:1048C000014627B13868A04201D1C7F80080DAF864
:1048D0000000022809D0CAF80090700505D54842AA
:1048E000BDE8F09F46F48066E2E70846F8E700F08E
:1048F00049BF00F08FBF2DE9F04791460F46804633
:104900000446002634F8025B25B1284600F097FAE9
:104910000028F7D12B2D02D02D2D18D0A41E4A46E9
:104920003946204600F0B4FF27B13968A14201D1D1
:10493000C7F800804FF0020471050BD540420028F3
:1049400003DDFFF725FD0460A007BDE8F08746F40E
:104950008066E4E70028F8DAFFF71AFD04606FF0DC
:104960000040F2E72DE9F05F93460F46804604468B
:104970000026FFF70DFDD0F80090824634F8025B68
:1049800025B1284600F05BFA0028F7D12B2D02D084
:104990002D2D1AD0A41E0021CAF800105A463946FF
:1049A000204600F075FF014627B13868A04201D1CA
:1049B000C7F80080DAF80000022809D0CAF8009091
:1049C000700505D54842BDE8F09F46F48066E2E7F1
:1049D0000846F8E701F00AB801F04FB810B500201A
:1049E00001F0A9F8FBF71AFCBDE81040012000F027
:1049F00079B92DE9F041074615460E461020FFF71C
:104A0000CBFC04000AD06760C4E9026500F080F9BD
:104A10000168216004600020BDE8F0810120FBE70F
:104A200040EA010310B59B070FD1042A0DD310C82B
:104A300008C9121F9C42F8D020BA19BA884201D97D
:104A4000012010BD4FF0FF3010BD1AB1D30703D0C5
:104A5000521C07E0002010BD10F8013B11F8014B7B
:104A60001B1B07D110F8013B11F8014B1B1B01D197
:104A7000921EF1D1184610BD10B5431C02E010F88B
:104A8000011B71B18107FAD14FF0013202C88C1AB3
:104A90008C4314EAC211F9D0C01A0A0603D0C01E12
:104AA00010BDC01A10BD0A0401D0801E10BD09023D
:104AB000FCD0401E10BD520001F044B8520001F07D
:104AC00045B810B502E0801C891C521E3AB103881B
:104AD0000C88A342F7D098B2A1B2401A10BD0020B2
:104AE00010BD002101E0801C491C0288002AFAD177
:104AF000084670472DE9F0410F46144605468046AA
:104B0000800704D084B12F80541E08F10205022CC6
:104B10000AD3284624F0010647EA07427100FFF74E
:104B2000F4FBA41B05EB460504B12F804046BDE80D
:104B3000F081431A28BF9A427FF65EAB10441144BD
:104B4000032A40F2268010F0030F1EBF11F8013D2A
:104B5000521E00F8013D10F0030F7FF4F6AF11F084
:104B6000030301F00A80083AC0F00B8051F8043DBD
:104B7000083A51F804CD40F8043D40F804CDFFF761
:104B8000F3BF121D5CBF51F8043D40F8043DAFF384
:104B90000080D20724BF11F8013D11F801CD48BFB4
:104BA00011F8012C24BF00F8013D00F801CD48BFE9
:104BB00000F8012C70474FF000020429C0F0128069
:104BC00010F0030C3FF4A1ABCCF1040CBCF1020FCC
:104BD00018BF00F8012BA8BF20F8022BA1EB0C0195
:104BE000FFF793BB5FEAC17C24BF00F8012B00F8FC
:104BF000012B48BF00F8012B7047000070B50C4630
:104C0000016800204A1C3ED03C22B1FBF2F302FBBB
:104C10001313B1FBF2F12360B1FBF2F302FB1313A8
:104C2000B1FBF2F118226360B1FBF2F302FB131344
:104C3000B1FBF2F146F2E0320A440721A360B2FB75
:104C4000F1F301FB132140F2B553B2FBF3F5A1617F
:104C5000B2FBF3F103FB15228900B2F5B77F08D34D
:104C60009B10521EB2FBF3F52944B2FBF3F503FB94
:104C700015220F4BE261616189077B440CD03B2A0E
:104C80000AD3521C08E02C212046FFF73CFB0120F0
:104C9000E0600AE0521A401C195C9142FAD9521C99
:104CA000C4E903204FF0FF302062204670BD0000B1
:104CB00042E9000080E8FF1FC0F834D0C0F838E0B7
:104CC000C0F83CE04FF00000704700BF80EC200BC4
:104CD000704700BF80EC200B704700BFC0EC200B7A
:104CE0007047000001491820ABBEFEE72600020015
:104CF000004870475400002010B500F0A1FF001DCF
:104D000010BD00BFFDB60000004870475C000020E9
:104D1000004870478C00002070477047704770470C
:104D200038B504460A4600206946AFF300800028E3
:104D300008BF38BD02460099204600F099FF0120C7
:104D400038BD012001F09CBBF8B5AFF300800546EB
:104D500000200C46102000BF0646A819A0420DD91D
:104D6000324669460020AFF30080070008BF01F01B
:104D700087FB0098A04218BF0546C419FFF7C4FF7F
:104D800005600746F01D20F007004619284600F090
:104D90000AF8B44208BFF8BDA21B31463868BDE826
:104DA000F84000F065BF00210160C0E901107047C4
:104DB0001020704730B5B0F10A0271F100034FEADC
:104DC000900E4EEA817EB0EB0E0061EB91014FEA4E
:104DD000101E4EEA017E10EB0E0041EB11114FEA5E
:104DE000102E4EEA016E10EB0E0041EB11214FEA3E
:104DF000104E4EEA014E10EB0E0041EB11414018EF
:104E000041F100014FEAD00040EA41704FEAD10180
:104E10004FEA810444EA907410EB800544EB0104EE
:104E20006D1944EB0404521BA3414FF0000348BF2B
:104E30000A3200D530BD401C41F1000130BD10B533
:104E400000F039FF00F0010010BD70B5044685691F
:104E50000068C10601D5302600E02026C00707D033
:104E600070BDD4E9012130469047206A401C206281
:104E70006D1EF6D570BD70B5044685690078C00713
:104E800007D170BDD4E9012120209047206A401C41
:104E900020626D1EF6D570BD09684A0501D540B285
:104EA0007047C905FCD500B2704709684A0501D5AD
:104EB000C0B27047C905FCD580B270472DE9F047F4
:104EC0000D4699469246044600F12408016888067A
:104ED00004D5E06921F01001216000E00120A84222
:104EE00001DD471B00E00027A1697A1902EB0900E8
:104EF000081AA0612078C00602D42046FFF7A5FF5B
:104F0000002608E0D4E901211AF806009047206A3B
:104F1000401C761C20624E45F4DB2078C0060AD582
:104F20002046FFF792FF06E0D4E9012130209047A8
:104F3000206A401C2062381EA7F10107F4DC07E05C
:104F4000D4E9012118F805009047206A401C20622E
:104F5000281EA5F10105F3DC2046FFF78CFF207821
:104F6000000602D50220BDE8F0870120FBE71168AA
:104F70000268006A530501D508700AE0D30501D51F
:104F8000088006E0130603D5C217C1E9000200E05D
:104F90000860012070472DE9FF4F0C461E464FF078
:104FA000FF378BB0D2E90001DDF860800A908A46B5
:104FB000C1F30A5505B93D46002108464FF00000EF
:104FC000BAF1000F00F4400005DA00EB80004FF466
:104FD000400101EA50004FEA9059B9F1010F00DD9C
:104FE000B9460A9850EA4A000ED044F61050A5F28D
:104FF000FF3545432F14B8F1000F1ED07542291E0E
:105000001EDDC9F100021CE0B8F1010F4FF00000F5
:1050100001D0302103E0F24305E02154401CB042AE
:10502000FBDB30460022002121540B99C1F8088097
:10503000C1E900200FB0BDE8F08FBD1B6D1CDEE79D
:105040004A4600DA694206A801F062F906AB93E825
:10505000070003AB83E8070050460A9909F0D2FE27
:105060008DE80700A0F500501F3800900398002D30
:105070000ADD42F21F014A460844002303A90390B7
:1050800068460AF07DF909E0A0F500504A461F384D
:10509000002303A9039068460AF09CF98DE80700F5
:1050A0000004000C03D04FF0FF30410800E0104630
:1050B000B8F1000F03D00022009215461EE0751EC5
:1050C00005D4FFF777FE303262556D1EF9D5B34631
:1050D0000122084302D000227F1C04E020783028FF
:1050E00001D100227F1E002A099784D01DE0112DD6
:1050F00007DAFFF75FFE303262556D1C50EA01029D
:10510000F5D1084302D00098C8B10EE00021681E16
:1051100005E0235C625C63542254401E491C8142BA
:10512000F7DBAB46A81B401E0990002004F80B00DB
:105130000B98099AC0F80880C0E9002B7AE711267D
:105140004FF0000857E72DE9F04F88460446D21D7E
:1051500022F0070191B0D1E90001CDE90A010AF07E
:1051600085FA02460B98C00F01D02D2007E0206879
:10517000810701D52B2002E0202101EAC000032A8B
:10518000099001D0072A05DB03464146204600F07E
:1051900043FF0BE12078800601D5E06900E006209E
:1051A000B8F1650F814606D0B8F1660F18D0B8F196
:1051B000670F70D131E00020B9F1110F009001DBD1
:1051C000112301E009F101030AAA01A90CA8FFF7C4
:1051D000E2FEDDE90C70002609F10105834647E097
:1051E00001204B4600904FF000470AAA01A90CA8E5
:1051F000FFF7D1FEDDE90DB00C995D46002610B930
:1052000009F101000D18B9EB050003D4C0F1FF3618
:1052100009F10105A5EB09002BE0B9F1010F01DA55
:105220004FF001090020B9F1110F0090484601DD4F
:10523000112300E003460AAA01A90CA8FFF7ABFE60
:10524000DDE90C704D4600268346207800070AD41D
:10525000AB4500DA5D4601A8012D04DD411911F8C6
:10526000011C302907D04F4502DA17F1040F04DA88
:10527000012082460FE06D1EEEE7002F02DCED1BE1
:105280003E4403E0781CA84200DD7D1CB81B00F101
:10529000010A4FF000472078000703D4AA4501DB3C
:1052A0004FF0FF3A0021B7F1004F0DF143088DF8A0
:1052B000431024D002202B23002F01DA7F422D231C
:1052C0000A21021EA0F1010000DC5FB197FBF1FC96
:1052D00097FBF1F201FB1C7C17460CF1300C08F82F
:1052E00001CDEEE7A8F1010003702188090501D581
:1052F000452100E06521A0F1010800F8011C099892
:105300000FA9A1EB0807FF1D00B10120411901EB16
:10531000EA70A1693844081A401EA0612078C006CE
:1053200002D42046FFF791FD099828B1D4E9012164
:105330009047206A401C20622078C00622D5204673
:10534000FFF783FD1EE0002E04DBB34502DD01A85C
:10535000805D00E03020D4E901219047206A401CA4
:105360002062761CAAF101005FEA000A0AD100F06F
:1053700067FCC0680168405CD4E901219047206A5D
:10538000401C2062281EA5F10105DCDC07E0D4E901
:10539000012118F8010B9047206A401C2062381E3A
:1053A000A7F10107F3DC2046FFF765FD032011B0EC
:1053B00041E6000001694A1C02610878704700B5A7
:1053C0008FB0CDE901310021059105497944CDE93E
:1053D000031011466846FFF755F90FB000BD0000F5
:1053E000E5FFFFFF0A6802F8010B0A607047D1E988
:1053F00000239A4202D2531C0B60107070470000C9
:105400002DE9FE4390460F460446DFF88090F944AC
:105410000026D9E900103546CDE9001008E0795D95
:105420006A4602A800F0E6FF012800D1761C6D1C38
:105430002078800602D5E069B04204DD4545EEDB08
:10544000785D0028EBD1A069801BA0612046FFF7A2
:10545000FCFCD9E900100026CDE900100FE0B95D91
:105460006A4602A800F0C6FF012807D1D4E901214D
:10547000BDF808009047206A401C2062761CAE42AE
:10548000EDDB2046FFF7F7FCBDE8FE837EE1000080
:1054900001698A1C02610888704700B58FB0CDE9A8
:1054A00001310121059105497944CDE903101146E7
:1054B0006846FFF7E7F80FB000BD0000E5FFFFFF0B
:1054C000D1E900239A4202D2931C0B6010807047EE
:1054D00070B50C460546012A05D02878800600D50F
:1054E000EA69002302E0012306E05B1C934203D239
:1054F00034F813000028F8D1A86904EB4306C01A59
:10550000A861286A184428622846FFF79EFC04E038
:10551000D5E9012134F8020B9047B442F8D328466C
:10552000FFF7A9FC70BD000030B4002100F1240495
:1055300008E002F00705D208303542EA4372DB0882
:105540006554491C52EA0305F3D10468002310A2F4
:10555000250708D504F020040C4304D0C4690123B6
:105560000CA2641EC46130BCFFF7A8BC10B5044691
:1055700021461068FFF799FC02462046BDE810401E
:105580000023D1E7D21D22F00701D1E90023CBE7A8
:105590000000000030000000F0B40D46018809054D
:1055A00002D5214C7C4402E01F4C7C440E34002187
:1055B00000F1240608E002F00F071209E75D42EA55
:1055C00003721B097754491C52EA0307F3D102788E
:1055D0000023120704D5702D06D009B1022311341F
:1055E0002246F0BCFFF76ABC01231034F8E770B51F
:1055F00004460D4621461068FFF757FC024629462F
:105600002046BDE870400023C6E7D21D22F0070304
:10561000D3E90023C0E70368126843F02003036066
:105620000823C3610023B7E7F0DF00002DE9F05F36
:10563000824615468B4600270AF10104B9460078D8
:10564000302801D09DB113E014F8010B0127782810
:1056500003D0582801D045B10AE00DB1102D07D173
:10566000002714F8010B102502E0082500E00A25A8
:105670000026B0460EE005FB080005FB06F10127F9
:105680001FFA80F801EB1046B6F5803F00D3B9460B
:1056900014F8010B294600F02BFD0028EBDABBF1D2
:1056A000000F05D00FB1641E00E05446CBF8004057
:1056B000B9F1000F06D0FEF76BFE02210160C81E93
:1056C000BDE8F09F48EA0640FAE700000FB40B007F
:1056D00010B54FF000048AB00FA900910E99CC606C
:1056E000234C7C44234A7A44CDE9064200D004236B
:1056F0006FF00042CDE901321F4A7A446B460892AE
:10570000024600200CF0CEF80AB010BC5DF814FB85
:10571000F0B507464FF0FF301E4615460C463B4697
:1057200085B06A460091CDE9010131460020049020
:1057300004A8FFF7CBFF04990346601825B109B10F
:10574000024600E022462A6000290ED0002B02DD2E
:105750000099814209D03B466A463146001B0094BD
:10576000CDE9010404A8FFF7B1FF05B0F0BD0000CA
:10577000270A0000410A0000A7050000002303607B
:10578000FFF7C6BF2DE9F04791460E468046044616
:10579000002514F8017B2FB1FFF7AEFA0068C05D59
:1057A000C007F6D12B2F02D02D2F1ED0641E4A46E3
:1057B0003146204600F0CAFC26B13268A24201D12F
:1057C000C6F800804FF002046A0518D50023D0EB1C
:1057D000030563EB01025D1B934109DB0023D0EB62
:1057E000030063EB0101BDE8F08745F48065DEE767
:1057F000FEF7CEFD046000204FF00041F3E7021EEB
:1058000071F10002EFDAFEF7C3FD04604FF0FF30E4
:105810004108E8E72DE9F05F93460F4680460446CD
:105820000026FEF7B5FDD0F80090824614F8015B23
:105830002DB1FFF761FA0068405DC007F6D12B2D4E
:1058400002D02D2D1FD0641E0021CAF800105A4628
:105850003946204600F07AFC024627B13868A0425B
:1058600001D1C7F80080DAF8000002280ED0CAF88B
:10587000009070050AD500200346D2EB000063EBD0
:105880000101BDE8F09F46F48066DDE71046F8E7C9
:105890002DE9F05F824615468B4600270AF1020487
:1058A000B9460088302801D09DB113E034F8020BCE
:1058B0000127782803D0582801D045B10AE00DB15E
:1058C000102D07D1002734F8020B102502E008251F
:1058D00000E00A250026B0460EE005FB080005FBA7
:1058E00006F101271FFA80F801EB1046B6F5803F5C
:1058F00000D3B94634F8020B294600F0F9FB002822
:10590000EBDABBF1000F05D00FB1A41E00E0544646
:10591000CBF80040B9F1000F06D0FEF739FD0221A7
:105920000160C81EBDE8F09F48EA0640FAE70000A3
:105930000FB40B0010B54FF000048AB00FA900910E
:105940000E99CC60244C7C44244A7A44CDE906422A
:1059500000D004236FF00042CDE90132204A7A449E
:105960006B460892024600200BF09CFF0AB010BC68
:105970005DF814FBF0B507464FF0FF301E461546A4
:105980000C463B4685B06A460091CDE9010131469F
:105990000020049004A8FFF7CBFF0499034604EB12
:1059A000410025B109B1024600E022462A600029E3
:1059B0000FD0002B02DD009981420AD03B466A4697
:1059C0003146001B00944010CDE9010404A8FFF704
:1059D000AFFF05B0F0BD0000C5080000DF08000003
:1059E000DDF4FFFF00230360FFF7C4BF2DE9F0479C
:1059F00091460E4680460446002534F8027B27B1C6
:105A00003846FFF71CFA0028F7D12B2F02D02D2F94
:105A10001ED0A41E4A463146204600F018FC26B18E
:105A20003268A24201D1C6F800804FF002046A0534
:105A300018D50023D0EB030563EB01025D1B9341F6
:105A400009DB0023D0EB030063EB0101BDE8F08725
:105A500045F48065DEE7FEF79BFC046000204FF014
:105A60000041F3E7021E71F10002EFDAFEF790FC4D
:105A700004604FF0FF304108E8E72DE9F05F9346FE
:105A80000F46804604460026FEF782FCD0F80090C0
:105A9000824634F8025B25B12846FFF7D0F900288A
:105AA000F7D12B2D02D02D2D1FD0A41E0021CAF816
:105AB00000105A463946204600F0C9FB024627B17D
:105AC0003868A04201D1C7F80080DAF80000022847
:105AD0000ED0CAF8009070050AD500200346D2EB1C
