:020000040800F2
:1000000088110020D1B70008D9B70008DBB7000875
:10001000DDB70008DFB70008E1B700080000000006
:10002000000000000000000000000000E3B700082E
:10003000E5B7000800000000E7B7000875140008E5
:10004000EBB70008EBB70008EBB70008EBB7000808
:10005000EBB70008EBB70008412A0008612A000846
:10006000812A0008A12A0008C12A0008EBB700086D
:10007000EBB70008EBB70008EBB70008EBB70008D8
:10008000EBB70008EBB70008EBB70008EBB70008C8
:10009000EBB70008EBB70008EBB70008A928000889
:1000A000EBB70008EBB70008EBB70008EBB70008A8
:1000B000EBB70008EBB70008EBB70008EBB7000898
:1000C000EBB70008EBB70008EBB70008EBB7000888
:1000D000EBB70008EBB70008EBB70008EBB7000878
:1000E0005D290008EBB70008EBB7000800F002F844
:1000F00000F04BF80AA090E8000C82448344AAF177
:100100000107DA4501D100F040F8AFF2090EBAE874
:100110000F0013F0010F18BFFB1A43F0010318473B
:10012000A00A0100C00A0100103A24BF78C878C1B3
:10013000FAD8520724BF30C830C144BF04680C60ED
:10014000704700000023002400250026103A28BF35
:1001500078C1FBD8520728BF30C148BF0B60704739
:1001600064290BF09D8473290BF08387002070476E
:100170001FB59DE803000CF017F80BF02FFE1FBD14
:1001800010B500200CF05AF810BD0CF092F8114692
:10019000FFF7EEFF00F008F80CF0CAF803B4FFF721
:1001A000EFFF03BC0BF0D6FF10B500F033FE4FF4A9
:1001B000803000F051FE00BF312000F0A7FE002883
:1001C000FAD042F200000221C4F2020001600020D5
:1001D00000F0E8FE002000F0F9FE4FF4806000F02F
:1001E000EBFE4FF480304FF4E01100F0B7FE012039
:1001F00000F0C0FE392000F089FE0028FAD002206D
:1002000000F0BEFE00F0C6FE0828FBD1012001214F
:1002100000F080FF4FF00060002100F0B7F84FF4CD
:10022000407000F079F8042000F0C8F84FF47A70BC
:1002300001F040F940F27004C2F20004204603F0DD
:10024000C1FD204603F014FEFEE700BF70B540F28A
:10025000700440F21861C2F20004C2F200012046AC
:1002600003F0A8FD40F28026FA214FF47A72C2F220
:100270000006304603F07CFD40F200054DF22140BF
:100280003146C0F60005C0F600002A460BF008FD16
:10029000261D012142F21072304604F0EBF84DF2B7
:1002A000B90031462A46C0F600000BF0F9FC04F113
:1002B00008060A2142F21072304603F05BFE4DF24E
:1002C000E92031462A46C0F600000BF0E9FC04F1B3
:1002D0000C0601214CF25032304604F021F94DF267
:1002E000A52031462A46C0F600000BF0D9FC4AF2A0
:1002F0002012103441F28831C0F20702204604F087
:10030000AFF94DF2FD0021462A46C0F60000BDE8D7
:1003100070400BF0C5BC000040F080604EF60C5100
:1003200040F0FD70CEF2000108607047C2784EF2D6
:100330000011CEF20001EAB110B54EF60C520723BF
:10034000CEF20002126890F801E0847890F800C0C4
:1003500023EA12220F23D340C2F1040223400EFAF3
:1003600002F21A4301EB0C03120183F80023BDE8EB
:10037000104000E080310078012300F01F02C0F33C
:10038000421003FA02F241F8202070474FF68072C3
:10039000C1F6FF72114008434EF60851CEF200013B
:1003A000086070474EF610520029CEF20002116824
:1003B0000CBF21EA00000843106070474EF21001A4
:1003C0000428CEF200010A6822F0040308BF42F0BC
:1003D00004030B607047000040F200400021C4F2AB
:1003E0000100016041608160C1604FF6FF71C0F2A1
:1003F0000F014161704700BF827940F2004CC4F2A6
:10040000010C4AB30268DCF800309343CCF80030AA
:10041000DCF804309343CCF80430037943EA0C034E
:100420001968114319600268DCF808109143CCF890
:100430000810DCF80C109143CCF80C10407910280F
:1004400013D1DCF808001043CCF808000CF10C00C4
:1004500001681143016070470179006841EA0C01AD
:100460000A6822EA00000860704740EA0C00016850
:1004700011430160704700BF00214FF440620160EA
:1004800082808171704700BF40F21041C4F20101C7
:100490000A6810430860704740F21441C4F2010139
:1004A0000968084018BF0120704700BF40F214419E
:1004B000C4F201010860704740F20041C4F201013A
:1004C0000A68024018BF01224969084018BF01208C
:1004D0001040704740F21441C4F2010108607047B7
:1004E00080B5A0F18040A0F584304FEAB020062806
:1004F00088BF80BDDFE800F0040E18222C364000D3
:100500000420012100F01EFE04200021BDE88040EF
:1005100000F018BE0820012100F014FE0820002180
:10052000BDE8804000F00EBE1020012100F00AFE60
:1005300010200021BDE8804000F004BE20200121F1
:1005400000F000FE20200021BDE8804000F0FABD50
:100550004020012100F0F6FD40200021BDE8804050
:1005600000F0F0BD8020012100F0ECFD8020002192
:10057000BDE8804000F0E6BD4FF48070012100F03E
:10058000E1FD4FF480700021BDE8804000F0DABD4D
:1005900080B50120012100F0D5FD01200021BDE83A
:1005A000804000F0CFBD00BF80B591F803E00EF0B1
:1005B0000F0C1EF0100F1CBF8A784CEA020C098841
:1005C00011F0FF0F00F0E3800268BEF1480F14D075
:1005D000BEF1280F2AD1CB0757D18B075DD44B072B
:1005E00063D40B0769D4CB066FD48B0676D44B0645
:1005F0007DD40B0600F18380C8E0CB0740F08280F9
:100600008B0700F188804B0700F18E800B0700F10B
:100610009480CB0600F19A808B0600F1A0804B06F7
:1006200000F1A6800B0600F1AB80AFE022F00F03D3
:1006300011F0010F18BF43EA0C0211F0020F1CBFAA
:1006400022F0F00242EA0C124B0744BF22F470621F
:1006500042EA0C220B0744BF22F4704242EA0C32F9
:10066000CB0644BF22F4702242EA0C428B0644BF00
:1006700022F4700242EA0C524B0644BF22F0706230
:1006800042EA0C620B067DD480E022F00F020123C7
:1006900042EA0C0243618B07A1D522F0F00202234B
:1006A00042EA0C1243614B079BD522F4706204238B
:1006B00042EA0C2243610B0795D522F470420823CD
:1006C00042EA0C324361CB068FD522F4702210230C
:1006D00042EA0C4243618B067FF589AF22F4700237
:1006E000202342EA0C5243614B067FF582AF22F091
:1006F0007062402342EA0C6243610B0646D58023B8
:1007000043613FE022F00F02012342EA0C02036141
:100710008B077FF578AF22F0F002022342EA0C1239
:1007200003614B077FF572AF22F47062042342EA43
:100730000C2203610B077FF56CAF22F47042082393
:1007400042EA0C320361CB067FF566AF22F47022D9
:10075000102342EA0C4203618B067FF560AF22F45E
:100760007002202342EA0C5203614B067FF55AAF18
:1007700022F07062402342EA0C6203610B0605D549
:100780008023036122F0704242EA0C720260B1F5EC
:10079000807F38BF80BD4268BEF1480F15D0BEF1E2
:1007A000280F2BD1CB0559D48B0560D44B0567D4CA
:1007B0000B056ED4CB0475D48B047DD44B0400F1AF
:1007C0008580090440F1DB8089E0CB0500F18B8056
:1007D0008B0500F192804B0500F199800B0500F12B
:1007E000A080CB0400F1A7808B0400F1AE804B0405
:1007F00000F1B580090440F1C280B9E022F00F0396
:1008000011F4807F18BF43EA0C0211F4007F1CBF73
:1008100022F0F00242EA0C124B0544BF22F470624F
:1008200042EA0C220B0544BF22F4704242EA0C3229
:10083000CB0444BF22F4702242EA0C428B0444BF32
:1008400022F4700242EA0C524B0444BF22F0706260
:1008500042EA0C62090440F192808CE022F00F021F
:100860004FF4807342EA0C0243618B059ED522F05F
:10087000F0024FF4007342EA0C1243614B0597D526
:1008800022F470624FF4806342EA0C2243610B054C
:1008900090D522F470424FF4006342EA0C32436177
:1008A000CB0489D522F470224FF4805342EA0C42E3
:1008B00043618B047FF582AF22F470024FF4005342
:1008C00042EA0C5243614B047FF57BAF22F0706229
:1008D0004FF4804342EA0C62436109044FD54FF460
:1008E0000041416147E022F00F024FF4807342EA79
:1008F0000C0203618B057FF56EAF22F0F0024FF41E
:10090000007342EA0C1203614B057FF567AF22F4D6
:1009100070624FF4806342EA0C2203610B057FF59D
:1009200060AF22F470424FF4006342EA0C3203617C
:10093000CB047FF559AF22F470224FF4805342EA82
:100940000C4203618B047FF552AF22F470024FF426
:10095000005342EA0C5203614B047FF54BAF22F087
:1009600070624FF4804342EA0C620361090406D5C9
:100970004FF40041016122F0704141EA0C72426083
:1009800080BD00BF4FF6FF71C0F2024101607047A9
:100990008068084018BF0120704700BF806880B29F
:1009A000704700BFC068084018BF0120704700BFF3
:1009B000C06880B2704700BF0161704741617047F5
:1009C00000F11003002A08BF00F1140319607047FA
:1009D000C160704741F480328261816182618169C6
:1009E0008069704741EA001000214FF68073C4F21D
:1009F00001010A681A401043086070471C21C4F2C4
:100A000020210860704700BFB0B540F2040E0028F6
:100A100000F440151FFA80FCC4F2010E7246B8BF04
:100A20001832B5F5401F1368C0F3034409D1DEF84E
:100A3000004023F0706324F07064CEF8004099B950
:100A400019E0C5020AD447F6F07505EA50450CFADC
:100A500005F5AB4343F0706331B90CE00325A540C5
:100A6000AB4343F0706331B147F6F07101EA504097
:100A70000CFA00F003431360B0BD00BF80B50C2238
:100A800040F2080E0F2302EA810201F0FC01C4F2D9
:100A9000010E03FA02FC51F80E30904023EA0C03D9
:100AA00041F80E3051F80E20104341F80E0080BD81
:100AB000DC21C4F2202108607047000080B545F2B7
:100AC0000041C4F2000188420BD04FF480000121A4
:100AD00000F044FB4FF480000021BDE8804000F0AE
:100AE0003DBB4FF40010012100F038FB4FF4001023
:100AF0000021BDE8804000F031BB00BF70B586B07A
:100B0000044601A80D46A68800F0AEFA4DF68360B3
:100B1000039948F2A063C4F21B30C0F20103A1FBA9
:100B2000000226F03F0040EA9240A080208820F09A
:100B300001002080900C2A689A4209D85200B1FB2B
:100B4000F2F14FF6FC720A40042A38BF042122E079
:100B5000EB884BF6FF76B34204D102EB4202B1FBC5
:100B6000F2F105E019235A43B1FBF2F141F480415F
:100B700040F6FF7211424FF4967202FB00F044F609
:100B8000D35208BF41F00101C1F2620241F40041B9
:100B9000A0FB0202900901302084A1834FF6F531B9
:100BA000208840F00100208020880840A988084360
:100BB000698908432080A88929890843208106B0D3
:100BC00070BD00BF002241F288310023CBF6FF72D6
:100BD00080E80E004FF4804181817047028800292F
:100BE00042F0010308BF22F001030380704700BFF9
:100BF0008288002942F4006308BF22F400638380E6
:100C0000704700BF8288002942F4805308BF22F455
:100C100080538380704700BF0288002942F48073AC
:100C200008BF22F480730380704700BF0288002948
:100C300042F4007308BF22F400730380704700BFC2
:100C40000288002942F4806308BF22F48063038095
:100C5000704700BF828901F0FE0122F0FE021143BD
:100C6000818170478289002942F0010308BF22F088
:100C700001038381704700BF0288002942F04003CE
:100C800008BF22F040030380704700BF002A30F8FD
:100C9000042F0CBF22EA010111430180704700BFFD
:100CA00001827047008AC0B2704700BF41F0010363
:100CB000002A08BF01F0FE030382704781B00022C2
:100CC000009200900098084400900098008801B0BD
:100CD000704700BF0288002913466FF3DF3318BF47
:100CE00042F40043038070470288B1F5006F22F49C
:100CF000006308BF42F40063038070470288B1F5C7
:100D0000005F22F4005308BF42F400530380704791
:100D10000288002942F4805308BF22F480530380E4
:100D2000704700BF0288B1F5006F22F4006308BF6E
:100D300042F40063038070470288002942F02003D8
:100D400008BF22F020030380704700BF008B000A19
:100D5000704700BF0288002942F0100308BF22F04C
:100D600010030380704700BF0288002922F080032F
:100D700008BF42F080030380704700BF828BB1F54B
:100D8000804F22F4804308BF42F48043838370473E
:100D9000828A008B60F3174202EA0100401AB0FA1F
:100DA00080F04009704700BF818A008B60F31741D3
:100DB0000846704782B00022019200920090080F0E
:100DC000019021F07F40019919B1009914310091EF
:100DD00003E00099000C183100910099096808405F
:100DE00018BF012002B07047C9438182704700BF1D
:100DF0008288808A084002EA114118BF012011F45C
:100E0000E06118BF01210840704700BFC9438182DB
:100E10007047000041F200000022C4F20200CFF649
:100E2000FF02016841F001010160416811404FF685
:100E3000FF724160CFF6F6620168114001600168FF
:100E400021F480210160416821F4FE0141604FF4EA
:100E50001F018160704700BF41F20001B0F5802F93
:100E6000C4F202010A6822F480320A600A6822F49D
:100E700080220A6009D0B0F5803F18BF70474FF458
:100E800080300A681043086070474FF4A0200A6859
:100E900010430860704700BF81B00020009041F20D
:100EA0000000C4F2020000BF02680099013112F490
:100EB000003F0091009923D1B1F5A06F20D00268C6
:100EC0000099013112F4003F0091009918D1B1F559
:100ED000A06F15D002680099013112F4003F009113
:100EE00000990DD1B1F5A06F0AD0026800990131C7
:100EF00012F4003F0091009902D1B1F5A06FD3D157
:100F00000068C0F3404001B0704700BF41F20001EB
:100F10000122C4F20201B2EB501F04D04309022B9C
:100F20000CBF2031243100F01F00096802FA00F0E4
:100F3000084018BF0120704741F20001C4F20201CD
:100F40000A6822F0F80242EAC0000860704700BF59
:100F50000021C4F242210860704700BF084341F2FB
:100F60000401C4F202010A6822F47C1210430860F2
:100F7000704700BF6021C4F242210860704700BF83
:100F800041F20401C4F202010A6822F00302104394
:100F90000860704741F20400C4F20200006800F0EB
:100FA0000C00704741F20401C4F202010A6822F009
:100FB000F00210430860704741F20401C4F20201DC
:100FC0000A6822F4E06210430860704741F20401AD
:100FD000C4F202010A6822F4605242EAC0000860CA
:100FE000704700BF41F209020029C4F202021178E1
:100FF0000CBF21EA0000084310707047D821C4F2EA
:1010000042210860704700BF41F20401C4F20201AE
:101010000A6822F4404210430860704741F2200100
:1010200000220428C4F202010A700A7005D00128C7
:1010300018BF70470120087070470520087070477E
:1010400040F28041C4F242210860704741F2200121
:10105000C4F202010A6810430860704740F23C4144
:10106000C4F242210860704710B541F20401C4F295
:1010700002010A6802F00C0341F20022C0F27A0277
:10108000082B17D10B6840F60014C0F23D04C3F3DF
:101090008343D1F800E003F1020C1EF4803F02D13B
:1010A0000CFB04F206E00B6813F4003F08BF144683
:1010B00004FB0CF2026040F2C0340B68C0F601047D
:1010C000C3F30313E35CDA4042600B68C3F302230B
:1010D000E35C22FA03F383600B68C3F3C223E35C8F
:1010E000DA4040F2AC33C260C0F601030968C1F3D4
:1010F0008131595CB2FBF1F1016110BD41F2140282
:101100000029C4F2020211680CBF21EA0000084362
:101110001060704741F218020029C4F202021168FF
:101120000CBF21EA000008431060704741F21C0226
:101130000029C4F2020211680CBF21EA0000084332
:101140001060704741F20C020029C4F202021168DB
:101150000CBF21EA000008431060704741F2100202
:101160000029C4F2020211680CBF21EA0000084302
:101170001060704740F24041C4F24221086070475D
:101180004C21C4F242210860704700BF41F20701C0
:10119000C4F202010870704741F22400C4F2020058
:1011A000016841F080710160704700BF41F20801A1
:1011B000C4F202010968084018BF0120704700BF4F
:1011C00041F20A01C4F202010870704780B543F68B
:1011D0000001C4F20001884218D043F60041C4F275
:1011E000000188421ED043F20001C4F2010188428E
:1011F00018BF80BD4FF480500121FFF7A3FF4FF4CB
:1012000080500021BDE88040FFF79CBF4FF4804034
:101210000121FFF7A3FF4FF480400021BDE880408B
:10122000FFF79CBF4FF400400121FFF797FF4FF4F9
:1012300000400021BDE88040FFF790BF02880B8886
:1012400002F441521A434B881A438B881A43CB88C5
:101250001A430B891A434B891A438B891A43CB894A
:101260001A430280828B22F400628283098A0182FF
:10127000704700BFF0B585B004460D464FF24001FF
:10128000A08B0840A08302202084A68BA868022897
:1012900003D1E8880022022130E0AF886846FFF7DA
:1012A000E3FE002F4FF006016FF0010708BF052194
:1012B000E888B0F5007F08BF0821009A22FA01F102
:1012C000AA6801EB81014900B1FBF2F14CF6CD4275
:1012D0000531CCF6CC4289B2A1FB0212C2F3C003A5
:1012E000C3EBD202C2F34F0107EB520292B2FD2AC6
:1012F0004FEA032288BF022188BF0022114308431E
:1013000020842888698830430843A9880843A9892C
:10131000084340F40060A08305B0F0BD0021C16027
:101320008160416001600721018270470021022233
:10133000C0E9001182608181704700BF02880029E6
:1013400042F0400308BF22F040030380704700BF13
:10135000828B002942F4806308BF22F48063838378
:10136000704700BF002A4FEA11114FF0010330F817
:10137000042F03FA01F10CBF22EA0101114301809D
:10138000704700BF002A30F8042F0CBF22EA010189
:1013900011430180704700BF818170478089704789
:1013A000B0F800C04FF6FF6291424CF4807308BF62
:1013B0002CF48073038070478288002942F0040374
:1013C00008BF22F004038380704700BF028822F424
:1013D000006202800288114301807047018841F455
:1013E00080510180704700BF0288002942F40053F9
:1013F00008BF22F400530380704700BF00F11802B9
:10140000012908BF00F1140210887047008A704754
:101410000288B1F5804F22F4804308BF42F4804334
:10142000038070470089084018BF0120704700BF43
:10143000C9430181704700BF024601F00F0301203C
:10144000B2F804C0128900FA03F3134207D0090965
:1014500000FA01F111EA0C0F08BF002070470020CC
:10146000704700BF01F00F01012202FA01F1C943E8
:101470000181704740F24850C2F20000016801311A
:101480000160704740F248504EF2180148F6396248
:10149000C2F20000CEF20001C3F6E3020068096860
:1014A000A1FB02124FF47A71484300F57A70A0EB69
:1014B00012107047B0B586B005460024CDB101A822
:1014C000FFF7D2FD0298B0FBF5F00138B4EB106FD6
:1014D0000ED14EF21001F022CEF2000148604EF61D
:1014E0002350CEF2000002700020886007200860C0
:1014F0000124204606B0B0BD40F24851C2F20001BE
:101500000A68104482420BD30B689342FCD20B68EA
:101510008342F9D307E000BF0B68834228BF7047BE
:101520000B689342F8D2704781600021828001618C
:101530004FF44061818140F64021C0F6010108313D
:1015400001607047816000998280036141730021CE
:10155000017340F64021C0F6010108310160704777
:10156000816000998280036141730199017340F6A3
:101570004021C0F6010108310160704781887F2950
:1015800011DDB1F5006F80F23780B1F5007F80F298
:101590004180802904BF2D207047B1F5807F04BFB2
:1015A0002E20704747E04A1E3F2A00F24480062062
:1015B000DFE802F04020414741414149414141417A
:1015C0004141414B41414141414141414141414101
:1015D0004141414D414141414141414141414141EF
:1015E00041414141414141414141414141414141EB
:1015F0004141414F07207047B1F5005F13DAB1F563
:10160000006F04BF31207047B1F5805F04BF322006
:10161000704710E004BF2F207047B1F5806F04BF02
:101620003020704707E004BF33207047B1F5804F8A
:1016300001D1342070470620B1F5004F08BF352096
:10164000704708207047092070470A2070472B20F8
:1016500070472C20704700BF81887F2911DDB1F5CC
:10166000006F80F23880B1F5007F80F241808029E0
:1016700000F06380B1F5807F02BF0820C0B27047E0
:1016800045E04A1E3F2A00F242800020DFE802F0D7
:101690003D203F463F3F3F493F3F3F3F3F3F3F4C5D
:1016A0003F3F3F3F3F3F3F3F3F3F3F3F3F3F3F4F3A
:1016B0003F3F3F3F3F3F3F3F3F3F3F3F3F3F3F3F3A
:1016C0003F3F3F3F3F3F3F3F3F3F3F3F3F3F3F5217
:1016D0000120C0B27047B1F5005F11DAB1F5006FBB
:1016E0002ED0B1F5805F02BF0C20C0B270470EE073
:1016F00029D0B1F5806F02BF0A20C0B2704706E062
:1017000024D0B1F5804F02D10E20C0B27047002026
:10171000B1F5004F08BF0F20C0B270470220C0B221
:1017200070470320C0B270470420C0B27047052044
:10173000C0B270470620C0B270470720C0B27047E1
:101740000B20C0B270470920C0B270470D20C0B254
:10175000704700BF10B582B00446A268A2F1804075
:10176000A0F584304FEAB021042907D80220DFE831
:1017700001F013030E10120003200DE041F60041AA
:101780000820C4F201018A4208BF072004E00420B7
:1017900002E0052000E006202168CA69C1B22046A7
:1017A000904720680021C26920469047A08801A97F
:1017B000ADF8040044F60300ADF80600A068FEF79B
:1017C000F3FE206910B1204600F004F8012002B0B9
:1017D00010BD00BF70B504462169002904BF002078
:1017E00070BDA0887F2810DDB0F5006F80F23680D4
:1017F000B0F5007F80F23D80802800F04680B0F593
:10180000807F40F054802E2656E0421E3F2A00F290
:101810004E800626DFE802F050204B3B4B4B4B3D01
:101820004B4B4B4B4B4B4B3F4B4B4B4B4B4B4B4B14
:101830004B4B4B4B4B4B4B414B4B4B4B4B4B4B4B02
:101840004B4B4B4B4B4B4B4B4B4B4B4B4B4B4B4BE8
:101850004B4B4B4B4B4B4B4307262DE0B0F5005FFA
:101860000DDAB0F5006F1CD0B0F5805F1FD13226C5
:1018700022E018D0B0F5806F19D130261CE014D0CA
:10188000B0F5804F13D1342616E02D2614E008263B
:1018900012E0092610E00A260EE02B260CE02C268A
:1018A0000AE0312608E02F2606E0332604E006266B
:1018B000B0F5004F08BF3526206832460023456A40
:1018C0002046A847204600F007F820683146C26A43
:1018D00020469047012070BD10B582B00446A26832
:1018E000A2F18040A0F584304FEAB021042929D824
:1018F0004FF0000CDFE801F00503343A40004FF0F0
:10190000010CA2887F2A3CDDB2F5006F0CDAB2F53B
:10191000007F80F25F80802A00F06880B2F5807FCF
:1019200040F07680082178E0B2F5005F80F25880C0
:10193000B2F5006F00F05C80B2F5805F40F0688027
:101940000C216AE041F600414FF0060CC4F201019F
:101950008A4208BF4FF0050CA2887F2AD4DC10E031
:101960004FF0020CA2887F2ACEDC0AE04FF0030C75
:10197000A2887F2AC8DC04E04FF0040CA2887F2AEA
:10198000C2DC531E3F2B00F243800021DFE803F04E
:101990004520403240404034404040404040403686
:1019A000404040404040404040404040404040383F
:1019B0004040404040404040404040404040404027
:1019C0004040404040404040404040404040403A1D
:1019D000012122E018D0B2F5806F19D10A211CE054
:1019E00014D0B2F5804F13D10E2116E0072114E078
:1019F0000B2112E0022110E003210EE004210CE093
:101A000005210AE0062108E0092106E00D2104E095
:101A10000021B2F5004F08BF0F215FFA8CF0C9B268
:101A2000FFF72CF8A08801210090207B8DF804009E
:101A3000607B8DF806108DF805006846FEF7DCFC2B
:101A4000012002B010BD00008160102182818173ED
:101A500040F6B011C0F6010108310160704700BFC7
:101A6000816040F6B01182818373C0F601010831B4
:101A70000160704710B582B00446A268A2F18040B0
:101A8000A0F584304FEAB021042907D80220DFE80E
:101A900001F013030E10120003200DE041F6004187
:101AA0000820C4F201018A4208BF072004E0042094
:101AB00002E0052000E006202168CA69C1B2204684
:101AC000904720680021C26920469047A0890321E1
:101AD0008DF8061001A9ADF80400A07B8DF8070071
:101AE000A068FEF761FDA189A0680022FEF768FFEB
:101AF000012002B010BD00BF10B50446E27BA189F1
:101B0000A0682AB10122FEF75BFF0020E07310BD40
:101B10000022FEF755FF0120E07310BD017100990E
:101B200082600022037302640284C0E9041240F65A
:101B30008021C0E90622C0F601010831016070472A
:101B4000B0B582B004460020012101906069FFF722
:101B500077F84FF6FF7040250190C0F203056069E9
:101B600001E000BF60692946FFF712F9019950B9F9
:101B7000481E00290190F5D1206C40F040002064FF
:101B8000FF2002B0B0BDA1616069FFF78BF802B021
:101B9000B0BD00BFB0B582B0044600200021019066
:101BA0006069FFF74DF84FF6FF7040250190C0F2D5
:101BB0000305606901E000BF60692946FFF7E8F8A6
:101BC000019950B9481E00290190F5D1206C40F0D0
:101BD00080002064FF2002B0B0BDA1616069FFF702
:101BE00061F802B0B0BD00BF70B584B015460E46B6
:101BF00004460BF0C9FB216C0022084331462064E7
:101C0000002001906069FFF751F84FF6FF708226BF
:101C10000190C0F20706606901E000BF60693146CB
:101C2000FFF7B6F8019948B9481E00290190F5D18F
:101C3000206C022140F00200206402E06162002179
:101C4000206C084329462064002002906069FFF759
:101C500027F84FF6FF70B51C0290606901E000BFE5
:101C600060692946FFF794F8029948B9481E00298F
:101C70000290F5D1206C042140F00400206402E0C1
:101C800021620021206C0843012120640020039080
:101C90006069FEF7CBFF4FF6FF7010250390C1F28D
:101CA0000005606901E000BF60692946FFF782F81E
:101CB000039900280CD0481E00290390F4D1206C11
:101CC000022140F0020020640843206404B070BD8B
:101CD00021630021206C0843206404B070BD00BF64
:101CE00070B582B000260446154601966069FEF77D
:101CF000DDFF012D1BD095BB4FF6FF7082250190B3
:101D0000C0F2070560692946FFF742F8019908B15A
:101D1000032028E0481E002901901BD06069294655
:101D2000FFF736F801990028F4D003201BE04FF6A6
:101D3000FF7002250190C0F20305606901E000BF59
:101D400060692946FFF724F8019958B9481E00290F
:101D50000190F5D1206C022640F002002064F0B220
:101D600002B070BD042004EB800000268161F0B257
:101D700002B070BD70B584B00D4604460BF004FB94
:101D8000216C0122084329462064002001906069EB
:101D9000FEF78CFF4FF6FF7002250190C0F203059D
:101DA000606900E060692946FEF7F2FF019948B9D1
:101DB000481E00290190F5D1206C022140F002005C
:101DC000206402E0A1620021206C0843002120640D
:101DD000002002906069FEF733FF4FF6FF703E353A
:101DE0000290606901E000BF60692946FEF7D0FFFC
:101DF0000299002809D1481E00290290F4D1206CD4
:101E0000FF2540F08000206404E0A1616069FEF7D6
:101E100049FF05460020012103906069FEF706FF97
:101E20004FF6FF7010260390C1F20006606900E0D3
:101E300060693146FEF7BEFF0399002809D0481EAD
:101E400000290390F4D1206C022140F002002064AC
:101E500002E021630021206C08432064284604B07E
:101E600070BD00BFF0B581B00027064614460D4690
:101E70008DF803709DF80300FF281DD0002700BFD8
:101E80009DF80310304600F01BF840B9F8B2013756
:101E9000B0FBF4F101FB14009DF8031029543068E5
:101EA0008168304688479DF8030001308DF80300B3
:101EB0009DF80300FF28E3D1F8B201B0F0BD00BFE8
:101EC000F0B581B040F214770D4604464FF6FF7628
:101ED000C2F200073E6000BF60694FF40031FEF7B8
:101EE00069FF396820B1481E00293860F4D12FE01D
:101EF000616301216069FEF78FFE3E600126606923
:101F0000C0F2030601E000BF60693146FEF740FF02
:101F1000396820B9481E00293860F5D118E0E16120
:101F2000294600226069FEF7C1FE4FF6FF70822548
:101F30003860C0F20705606901E000BF60692946AA
:101F4000FEF726FF396850B9481E00293860F5D1E0
:101F5000206C40F002002064012001B0F0BD6162FD
:101F6000002001B0F0BD00BF704700BF0CF091BB76
:101F7000B0B586B0044645F200452079C4F20005AC
:101F800000284CD0012827D0022840F08A8005F58F
:101F900080602C2160612068C269204690472068DB
:101FA0000321C269204690474FF4406045F6000186
:101FB000ADF80400C4F200016069884251D0A84223
:101FC0006FD14FF400100121FFF7C8F84FF4001053
:101FD0000021FFF7C3F864E065612B212068C26926
:101FE0002046904720680321C269204690474FF45D
:101FF000407045F60001ADF80400C4F200016069CC
:10200000884239D0A8424CD14FF400100121FFF78B
:10201000A5F84FF400100021FFF7A0F841E065613A
:102020002B212068C2692046904720680321C2699D
:1020300020469047C02045F60001ADF80400C4F2E8
:1020400000016069884222D0A8422AD14FF40010D2
:102050000121FFF783F84FF400100021FFF77EF80D
:102060001FE04FF480000121FFF778F84FF4800063
:102070000021FFF773F814E04FF480000121FFF70F
:102080006DF84FF480000021FFF768F809E04FF485
:1020900080000121FFF762F84FF480000021FFF774
:1020A0005DF841F6034001A9ADF8060005F538409A
:1020B000FEF77AFA40F200405022C4F20000CDF858
:1020C00012000020CBF6FF700390D4E90410ADF8A5
:1020D0001020029102A9FEF711FD60690121FEF7AF
:1020E0007DFD012006B0B0BD2DE9F04383B01D4653
:1020F0004FF0000816460F460446002DCDF8048028
:1021000074D020460BF040F9216C00220843394678
:102110002064CDF808806069FEF7C8FD4FF6FF70B7
:1021200082270290C0F20707606900E060693946C3
:10213000FEF72EFE0299002808D1481E00290290C1
:10214000F4D1206C40F00200206400E061624FF0A6
:1021500000084FF6FF79023716F8011BCDF808800A
:102160006069FEF79DFDCDF8089000BF60693946B3
:10217000FEF70EFE029968B9481E00290290F5D1BB
:10218000206C042140F0040020640843013D2064D9
:10219000E2D106E021620021206C0843013D206469
:1021A000DAD10020012102906069FEF73FFD4FF671
:1021B000FF7010250290C1F20005606901E000BFC8
:1021C00060692946FEF7F6FD0299002809D0481EED
:1021D00000290290F4D1206C022140F0020020641A
:1021E00002E021630021206C08432064002003B03A
:1021F000BDE8F0832DE9F04F81B01E4691460D46B3
:102200008346002E41D040F218774FF6FF785C46A7
:10221000C2F20007C7F8008054F8140F4FF40031E1
:10222000FEF7C8FD30B90BE020684FF40031FEF72F
:10223000C1FD28B13868411E00283960F4D119E188
:1022400020680121FEF7FCFC20684FF2FF71FEF7C9
:1022500069FD20680121FEF7DFFCC7F8008040F22D
:10226000010A2068C0F2030A5146FEF791FD30B121
:1022700010E000BF20685146FEF78AFD50B938686B
:10228000411E00283960F5D1F4E00020C0B201B051
:10229000BDE8F08F206829460122FEF707FD4FF6C2
:1022A000FF7040F204083860C1F200082068A8F10D
:1022B00002052946FEF77EFD00B3012E2FD12068CE
:1022C0000021FEF7BDFCEFF3108072B62068018B91
:1022D0000121FEF7ABFC4FF6FF7062B608F13C053A
:1022E000386020682946FEF765FD90B135E000BFF3
:1022F00020682946FEF75EFD0028DED13868411EC1
:1023000000283960F4D1B5E020682946FEF752FD77
:1023100018BB3868411E00283960F5D1AAE0206852
:10232000022E20D14FF40061FEF7FCFCEFF3108089
:1023300072B62068018B0021FEF782FC4FF6FF7019
:1023400062B6386020684146FEF734FDA8BB3868A5
:10235000411E00283960F5D18CE02068FEF7A2FC10
:1023600089F800006BE0018B4FF6FF753D60032E8E
:102370000DD118E02068013EFEF794FC09F8010B2E
:102380003D602068032E02D10DE000BF2068414669
:10239000FEF710FD0028EDD13868411E0028396095
:1023A000F4D167E020684146FEF704FDB0B9386813
:1023B000411E00283960F5D15CE0EFF3108072B661
:1023C00001212068FEF732FC2068008A89F80000AD
:1023D00062B62068008A89F8010030E02068002198
:1023E000FEF72EFCEFF3108072B62068FEF75AFC61
:1023F00089F8000001212068FEF718FC62B6206809
:10240000FEF750FC89F801004FF6FF700AF13F0516
:10241000386020682946FEF7BBFC28B10AE0206836
:102420002946FEF7B5FC28B93868411E00283960F6
:10243000F5D11FE02068FEF735FC89F802004FF661
:10244000FF7008F10C05386029462068FEF7B2FCE1
:1024500000B300BF3868411E002839600AD02068E8
:102460002946FEF7A7FC0028F4D11020C0B201B025
:10247000BDE8F08FDBF80000816858468847DBF83C
:10248000400040F00200CBF840000020C0B201B094
:10249000BDE8F08F1020C0B201B0BDE8F08F0000A1
:1024A00001710099826003731022417340F60001AC
:1024B000C4F2010141610283002201F52051C26191
:1024C00040F6C022C0F60102083202600161704786
:1024D00070B586B00446207903286ED8DFE800F096
:1024E000023F183240F600050C21C4F2010505F543
:1024F000205020612068C26920469047E02069464C
:10250000C1F6030000902846FEF74EF810203DE08B
:1025100040F600052421C4F20105A5F550402061D4
:102520002068C269204690474EF2000005F580659C
:102530006946C1F6030000902846FEF735F84FF4CF
:10254000805023E040F600002521C4F20100A0F5F0
:102550004C4020612068C269204690472DE040F63B
:1025600000050C21C4F2010505F52050206120680A
:10257000C2692046904738206946C1F603000090A2
:1025800005F58060FEF710F84FF40040208300202E
:1025900065614FF00072ADF80400217B0290039258
:1025A000002908BF4FF48270ADF80600607BADF8DB
:1025B00010004FF4E020CDF81200208B6946ADF8F2
:1025C000000041F20300ADF802006069FDF7ECFF86
:1025D00040F29006C2F200063078BFF35F8F10F031
:1025E000010F14D0351D2846FFF744FAE56101229A
:1025F000F068318AFEF7E4F9206901A9FEF71EFEB2
:1026000020690121FEF79AFE012006B070BD40F25C
:102610009005C2F2000528460CF00FFA0028E1D020
:102620006169228B281DFFF70FFA40F29000C2F279
:10263000000001210160D5E7044640F29000C2F29B
:10264000000000210160204609F086FFC0690A46AB
:10265000012A8189806814BF00220122FEF7B0B9E7
:10266000B0B50D46044600BF20690221FEF7DAFE30
:102670000028F9D020692946FEF78EFE2069012145
:10268000FEF7D0FE0028F9D02069FEF787FEC0B221
:10269000B0BD00BF10B5044620690221FEF7C2FE9E
:1026A0000028F9D02069A521FEF776FE20690121D6
:1026B000FEF7B8FE0028F9D02069FEF76FFEC0B221
:1026C00010BD000040F24451C2F200010868002829
:1026D00018BF704740F20970C2F2000008607047EE
:1026E00010B5152807D80124012104FA00F0FEF7DF
:1026F00011FD204610BD342809D8163801240121C7
:10270000C0B204FA00F0FEF711FD204610BD3B28D0
:1027100082BF0024204610BD0124012104FA00F0EC
:10272000FEF7ECFC204610BD10B5152807D8012493
:10273000002104FA00F0FEF7EDFC204610BD34281D
:1027400009D8163801240021C0B204FA00F0FEF7BF
:10275000EDFC204610BD3B2882BF0024204610BD62
:102760000124002104FA00F0FEF7C8FC204610BD49
:1027700002F109003E2806D840F2B023C0F601035A
:1027800053F820000160C1B12B2A06DB302A01DAA0
:10279000172202E0362AB8BF282280B582B00F2067
:1027A0008DF80420ADF8050000208DF8070001A881
:1027B000FDF7BCFD02B0BDE880400120704700BFBE
:1027C0002B2906DB302901DA172102E03629B8BFB0
:1027D000282180B582B000208DF805208DF80410E6
:1027E0008DF806308DF8070001A8FDF79FFD012048
:1027F00002B080BD70B540F2BC56C2F2000634682B
:102800000CB1204670BD40F2CC14C2F20004207915
:10281000BFF35F8F10F0010F02D03460204670BD0F
:10282000251D28460CF009F90028F6D0284601217C
:1028300001603460204670BD2B2906DB302901DAA7
:10284000172102E03629B8BF28214EF280104EF23F
:102850009C12CEF20000CEF2000240EAD10001F05C
:102860001F011040012202FA01F1016001207047AE
:102870002B2906DB302901DA172102E03629B8BFFF
:1028800028214EF200104EF21C12CEF20000CEF2C1
:10289000000240EAD10001F01F011040012202FABB
:1028A00001F101600120704780B52020FDF704FE92
:1028B00060B12020FDF70EFE40F2B000C2F2000031
:1028C0000068002848D0BDE8804000474020FDF760
:1028D000F3FD58B14020FDF7FDFD40F2B000C2F21B
:1028E00000004068C0B3BDE8804000478020FDF78D
:1028F000E3FD58B18020FDF7EDFD40F2B000C2F2DB
:102900000000806840B3BDE8804000474FF480700D
:10291000FDF7D2FD60B14FF48070FDF7DBFD40F2B2
:10292000B000C2F20000C068B0B1BDE8804000470E
:102930004FF40070FDF7C0FD002808BF80BD4FF4C4
:102940000070FDF7C7FD40F2B000C2F20000006960
:1029500010B1BDE88040004780BD00BF80B54FF496
:102960008060FDF7A9FD68B14FF48060FDF7B2FD0E
:1029700040F2B000C2F20000406900285FD0BDE81C
:10298000804000474FF40060FDF796FD68B14FF4BA
:102990000060FDF79FFD40F2B000C2F200008069C8
:1029A00000284CD0BDE8804000474FF48050FDF730
:1029B00083FD60B14FF48050FDF78CFD40F2B00014
:1029C000C2F20000C069D0B3BDE8804000474FF4B8
:1029D0000050FDF771FD60B14FF40050FDF77AFD36
:1029E00040F2B000C2F20000006A40B3BDE880408F
:1029F00000474FF48040FDF75FFD60B14FF4804029
:102A0000FDF768FD40F2B000C2F20000406AB0B1CC
:102A1000BDE8804000474FF40040FDF74DFD002821
:102A200008BF80BD4FF40040FDF754FD40F2B000F8
:102A3000C2F20000806A10B1BDE88040004780BD4E
:102A400080B50120FDF746FD40F28850C2F200003B
:102A50000068002808BF80BDBDE88040004700BF77
:102A600080B50220FDF736FD40F28C50C2F2000026
:102A70000068002808BF80BDBDE88040004700BF57
:102A800080B50420FDF726FD40F29050C2F2000010
:102A90000068002808BF80BDBDE88040004700BF37
:102AA00080B50820FDF716FD40F29450C2F20000F8
:102AB0000068002808BF80BDBDE88040004700BF17
:102AC00080B51020FDF706FD40F29850C2F20000DC
:102AD0000068002808BF80BDBDE88040004700BFF7
:102AE00080B52020FDF7F6FC40F2B000C2F20000F5
:102AF0000068002808BF80BDBDE880400047000096
:102B000010B50C46FFF7DEFD2046BDE81040FFF78C
:102B1000E7BD00BF10B50C46FFF7D4FD2046BDE869
:102B20001040FFF701BE00BFB0B514460D46FFF7D9
:102B300061FE29462246BDE8B040FFF719BE00BF3E
:102B400010B50C46FFF756FE2146BDE81040FFF7D2
:102B50008FBE00BF10B50C46FFF74CFE2146BDE806
:102B60001040FFF769BE00BF70B51C4615460E4603
:102B7000FFF740FE31462A462346BDE87040FFF786
:102B80001FBE000010B582B01446049ACDE9003291
:102B90004DF221332246C0F60003FEF7E1FC40F679
:102BA000F0120021C0F6010201750832026040F205
:102BB000DC02C2F2000254800184C0E90611C0E9BF
:102BC0000911C0E90B11C0E90D11C16302B010BDBC
:102BD00080B5FEF7BFFD012080BD00BF40F2DC01E3
:102BE000C2F200010A78072A15D8DFE802F01604BD
:102BF00017280D2F365340F24852C2F200021268D5
:102C0000C26100220A7065E0826942F0400282617E
:102C100000220A705EE000220A705BE040F2485336
:102C2000C269C2F200031B689A1A38BF013AA2F1C6
:102C30004603B3F5A57F34D806220A704AE08269BC
:102C400042F02002826100220A7043E0826942F071
:102C50000802826100220A703CE080B540F20C7CE0
:102C600040F2485EC2F2000CC2F2000EDCF8002016
:102C7000DEF800309A1A38BF013AB2F5967F91BF5C
:102C80000722DEF80020CCF8002005220A70BDE8FB
:102C900080401FE0826942F01002826100220A70C7
:102CA00018E0A2F52F73B3F5487F02D803220A700B
:102CB00010E0A2F5FA63B3F57A6F02D804220A7025
:102CC00008E041F2D4739A4238BF03E000220A7050
:102CD00000E000BF10B50446A069E0B3810707D546
:102CE000A16A29B18847A06920F00200A06110BD47
:102CF000410707D5E16A29B18847A06920F004009F
:102D0000A06110BD010707D5216B29B18847A069D3
:102D100020F00800A06110BDC10607D5616B29B184
:102D20008847A06920F01000A06110BD810607D57A
:102D3000A16B29B18847A06920F02000A06110BDD7
:102D4000400608D5E06B002808BF10BD8047A06989
:102D500020F04000A06110BD033903290BD8DFE843
:102D600001F002040608303004E0343002E038306C
:102D700000E03C300260012070470000027240F623
:102D80003022C0F601020832C0E90021704700BFBE
:102D9000704700BF0BF07DBC2DE9F04381B00546C4
:102DA00002200DF101060C4601238DF80100324688
:102DB000297A6868FFF798F96868297A3246022309
:102DC000FFF718FA9DF801009DF8021041EA002073
:102DD00047F6FC7101EA50000CF002FB4AF6FC12C7
:102DE00046F24D23CDF2F122C3F650730CF010FBE6
:102DF0000CF0C4F820604FF00509324603234FF071
:102E00000308E868010A8DF802108DF801908DF82A
:102E10000300297A6868FFF767F904203246012326
:102E20008DF80100297A6868FFF75EF96868297AE9
:102E300032460223FFF7DEF99DF801009DF80210EB
:102E400041EA002000B20CF0A1FE074628690CF010
:102E5000B5FE014638460CF087FD6060324603231C
:102E6000E868010A8DF802108DF801908DF80300D2
:102E7000297A6868FFF738F98DF801803246012316
:102E8000297A6868FFF730F96868297A32460223A0
:102E9000FFF7B0F99DF801009DF8021041EA00200B
:102EA00000B20CF073FE064668690CF087FE01461E
:102EB00030460CF059FDA060002100272568284607
:102EC0000CF03FFD261D50B946F266612846C3F658
:102ED00066710CF028FD002808BF276000E027601D
:102EE0003068002100240CF01EFD002808BF34606B
:102EF00001B0BDE8F08300BFB0B582B00446022047
:102F00000DF1050501238DF805002A46217A606838
:102F1000FFF7EAF86068217A2A460223FFF76AF988
:102F20009DF805009DF8061041EA002047F6FC7167
:102F300001EA50000CF054FA4AF6FC1246F24D2316
:102F4000CDF2F122C3F650730CF062FA0CF016F8D1
:102F500002B0B0BDB0B582B004460DF10505032343
:102F6000E0682A46010A8DF8061005218DF8051043
:102F70008DF80700217A6068FFF7B6F804202A462A
:102F800001238DF80500217A6068FFF7ADF86068CD
:102F9000217A2A460223FFF72DF99DF805009DF8B6
:102FA000061041EA002000B20CF0F0FD0546206951
:102FB0000CF004FE014628460CF0D6FC02B0B0BD71
:102FC00070B582B004460DF1050503230326E068C1
:102FD0002A46010A8DF8061005218DF805108DF896
:102FE0000700217A6068FFF77FF88DF805602A46B0
:102FF0000123217A6068FFF777F86068217A2A4612
:103000000223FFF7F7F89DF805009DF8061041EA46
:10301000002000B20CF0BAFD054660690CF0CEFD50
:10302000014628460CF0A0FC02B070BD80B582B00D
:103030008DF80510110A8DF807200DF10502032304
:103040008DF80610017A4068FFF74EF802B080BD97
:1030500070B582B005468DF805100DF105061446D1
:103060000123297A68683246FFF73EF86868297AB2
:1030700032460223FFF7BEF89DF805009DF80610C2
:1030800041EA0020208002B070BD00BFB0B582B020
:1030900004460A204FF4805102220DF10505032356
:1030A000C4E90310002062612A468DF8070041F24E
:1030B0000500ADF80500217A6068FFF715F81F20BC
:1030C0002A4603238DF807004FF47050ADF8050031
:1030D000217A6068FFF708F802B0B0BDB0B582B0E1
:1030E000044619204FF4205101220DF10505032358
:1030F000C4E90310002062612A468DF8070042F6F9
:103100000500ADF80500217A6068FEF7EDFF1F208D
:103110002A4603238DF807004FF47050ADF80500E0
:10312000217A6068FEF7E0FF02B0B0BDB0B582B0B2
:10313000044614204FF4005101220DF1050503232C
:10314000C4E90310002062612A468DF8070042F2AC
:103150000500ADF80500217A6068FEF7C5FF1F2065
:103160002A4603238DF807004FF48060ADF8050070
:10317000217A6068FEF7B8FF02B0B0BDB0B582B08A
:10318000044602200DF1050501238DF805002A46AD
:10319000217A6068FEF7A8FF6068217A2A46022338
:1031A000FFF728F89DF805009DF8061041EA002079
:1031B00047F6FC7101EA500002B0B0BDB0B582B074
:1031C000044601200DF1050501238DF805002A466E
:1031D000217A6068FEF788FF6068217A2A46022318
:1031E000FFF708F89DF805009DF8061041EA002059
:1031F00000B202B0B0BD00BFB0B582B004460DF160
:1032000005050323E0682A46010A8DF8061005210A
:103210008DF805108DF80700217A6068FEF764FFCD
:1032200004202A4601238DF80500217A6068FEF704
:103230005BFF6068217A2A460223FEF7DBFF9DF8D8
:1032400005009DF8061041EA002000B202B0B0BDB2
:10325000B0B582B0044601200DF1050501238DF8BB
:1032600005002A46217A6068FEF73EFF6068217AF1
:103270002A460223FEF7BEFF9DF805009DF80610C2
:1032800041EA002000B20CF0ABF841F27B4247F675
:10329000E123C4F2AE72C3F684730CF0B9F80BF0FC
:1032A0006DFE02B0B0BD000010B50446FEF7CCFBC9
:1032B00040F6D400C0F60100083020602046FEF73A
:1032C000D9FB204610BD00BFB0B504460122012540
:1032D000A189A068FDF774FB2575B0BDB0B50446A3
:1032E00000220025A189A068FDF76AFB2575B0BD05
:1032F00080B582B000220192019A8A4206D317E07B
:10330000019A01320192019A8A4211D2019A013244
:103310000192019A8A420BD2019A01320192019ADA
:103320008A4205D2019A01320192019A8A42E7D378
:10333000FEF7E2FB02B080BD70B582B000260D46FC
:10334000044601960198904206D317E00198013097
:1033500001900198904211D201980130019001989A
:1033600090420BD20198013001900198904205D211
:1033700001980130019001989042E7D32046FEF772
:10338000BBFB01960198A84206D317E001980130D3
:1033900001900198A84211D2019801300190019842
:1033A000A8420BD20198013001900198A84205D2A1
:1033B0000198013001900198A842E7D32046FEF71A
:1033C0009BFB02B070BD00BFF0B581B00026054682
:1033D0000C4600960098A0421ED20127A989A86831
:1033E0000122FDF7EDFAC8202F75FEF785F8A989AF
:1033F000A8680022FDF7E4FAC8202E75FEF77CF8D5
:10340000A989A8680122FDF7DBFA2F750098013021
:1034100000900098A042E1D301B0F0BDC0E90013D4
:1034200000998260C160704710B504462068016849
:10343000896888476068016889688847A06801686A
:1034400089688847E068016889688847204600F0F5
:1034500003F8012010BD00BF10B504460022A0688B
:1034600081898068FDF7ACFA4FF47A70FEF744F872
:10347000A068012281898068FDF7A2FA60680022B5
:1034800081898068FDF79CFA20680021FFF7DEF84B
:1034900020682121FFF7E4F820680121FFF7D6F822
:1034A0006068002281898068FDF78AFA206800211F
:1034B000FFF7CCF82068BF21FFF7D2F82068012180
:1034C000FFF7C4F86068002281898068FDF778FA08
:1034D00020680021FFF7BAF820680421FFF7C0F840
:1034E00020680121FFF7B2F86068002281898068B6
:1034F000FDF766FA20680021FFF7A8F8206813217D
:10350000FFF7AEF820680121FFF7A0F860680022FD
:1035100081898068FDF754FA20680021FFF796F84A
:1035200020682021FFF79CF820680121FFF78EF822
:103530006068002281898068FDF742FA20680021D6
:10354000FFF784F820680C21FFF78AF82068012132
:10355000FFF77CF8204600F01FF8012010BD00BFE7
:10356000B0B5044615460A466068012A818980681C
:1035700014BF00220122FDF723FA20680021FFF783
:1035800065F820682946FFF76BF820680121BDE83F
:10359000B040FFF75BB800BFB0B504464FF4FC7510
:1035A00060688189806800BF89B20122FDF708FA4E
:1035B00020680021FFF74AF820680021FFF750F843
:1035C00020680121FFF742F86068013D8189806829
:1035D000EAD10022FDF7F4F920680021FFF736F860
:1035E00020688021FFF73CF820680121FFF72EF8C2
:1035F0006068002281898068FDF7E2F92068002177
:10360000FFF724F820684021FFF72AF820680121FD
:10361000BDE8B040FFF71AB810B504460C290FD02A
:103620000D2918BF10BD6068002281898068FDF7F0
:10363000C7F920680021FFF709F820680D210BE089
:103640006068002281898068FDF7BAF9206800214E
:10365000FEF7FCFF20680C21FFF702F8206801212B
:10366000BDE81040FEF7F2BF70B504460E461546A1
:103670000022606881898068FDF7A2F92068002136
:10368000FEF7E4FF46F080012068C9B2FEF7E8FFCC
:1036900020680121FEF7DAFF6068002281898068D6
:1036A000FDF78EF920680021FEF7D0FF45F04001BC
:1036B0002068C9B2FEF7D4FF20680121BDE8704040
:1036C000FEF7C4BFF0B581B00C460546002700BF29
:1036D0006868E65D012281898068FDF771F92868D4
:1036E0000021FEF7B3FF28683146FEF7B9FF2868CE
:1036F0000121FEF7ABFF0137B7F5FC7FE8D101B040
:10370000F0BD00BF2DE9F04104460D46012260687E
:1037100081898068FDF754F920680021FEF796FF43
:1037200040F2D03105EB8500C0F601010D1820688C
:1037300015F8A01C15F89F7C15F89E6C15F89D8C4B
:10374000FEF78EFF20680121FEF780FF60680122EE
:1037500081898068FDF734F920680021FEF776FF43
:1037600020683946FEF77CFF20680121FEF76EFFD6
:103770006068012281898068FDF722F920680021B4
:10378000FEF764FF20683146FEF76AFF20680121DA
:10379000FEF75CFF6068012281898068FDF710F9FF
:1037A00020680021FEF752FF20684146FEF758FFCF
:1037B00020680121FEF74AFF606801228189806844
:1037C000FDF7FEF820680021FEF740FF15F89C1C6D
:1037D0002068FEF745FF20680121FEF737FF60688B
:1037E000012281898068FDF7EBF820680021FEF74F
:1037F0002DFF20680021FEF733FF20680121BDE87E
:10380000F041FEF723BF00BFB0B50446087800289A
:1038100008BFB0BD4D1C00BFC1B22046FFF772FF0C
:1038200015F8010B0028F7D1B0BD00BFF0B581B08D
:1038300004460F46164600221D466068818980684E
:10384000FDF7BEF820680021FEF700FF06EB4600FA
:10385000802141EA4000C6B220683146FEF700FFF1
:1038600020680121FEF7F2FE6068002281898068ED
:10387000FDF7A6F820680021FEF7E8FE47F04007B4
:1038800020683946FEF7ECFE20680121FEF7DEFED7
:1038900020462021FFF736FF20462021FFF732FF88
:1038A00020462021FFF72EFF20462021FFF72AFF88
:1038B00020462021FFF726FF20462021FFF722FF88
:1038C00020462021FFF71EFF20462021FFF71AFF88
:1038D00020462021FFF716FF20462021FFF712FF88
:1038E00020462021FFF70EFF20462021FFF70AFF88
:1038F00020462021FFF706FF20462021FFF702FF88
:103900006068002281898068FDF75AF820680021EC
:10391000FEF79CFE20683146FEF7A2FE20680121DA
:10392000FEF794FE6068002281898068FDF748F800
:1039300020680021FEF78AFE20683946FEF790FED7
:1039400020680121FEF782FE287868B10135002643
:10395000C1B22046FFF7D6FE0136F0B20D2803D8DB
:1039600015F8010B0028F3D101B0F0BDF0B581B01E
:1039700005460E46174600221C4668688189806805
:10398000FDF71EF828680021FEF760FE07EB4700F0
:10399000802141EA4000C1B22868FEF761FE286834
:1039A0000121FEF753FE6868002281898068FDF7D7
:1039B00007F828680021FEF749FE286846F0400114
:1039C000FEF74EFE28680121FEF740FE28462146FC
:1039D00001B0BDE8F04095E670B505460C46002202
:1039E0000026686881898068FCF7EAFF2868002162
:1039F000FEF72CFE28688021FEF732FE28680121A0
:103A0000FEF724FE6868002281898068FCF7D8FFF1
:103A100028680021FEF71AFE28684021FEF720FEE4
:103A200028680121FEF712FEA15D2846FFF76AFE15
:103A30000136542EF8D170BD40F62C1140F21862B8
:103A40004FF0000CC0F60101C2F200020831016023
:103A5000116821B3134653F8181F19B3134653F8CE
:103A6000301F09B3134653F8481FF9B1134653F8F2
:103A7000601FE9B1134653F8781FD9B1134653F8C4
:103A8000901FC9B1134653F8A81FB9B1134653F894
:103A9000C01FA9B1134653F8D81F99B1FEE7002102
:103AA000134610E001210EE002210CE003210AE0A0
:103AB000042108E0052106E0062104E0072102E0D8
:103AC000082100E0092101EB4101186002EBC1016E
:103AD00042F210720A618A6081F814C0704700BF18
:103AE00040F218624FF0000CC2F20002116849B3B4
:103AF000134653F8181F41B3134653F8301F31B320
:103B0000134653F8481F21B3134653F8601F11B3EF
:103B1000134653F8781F01B3134653F8901FF1B1C1
:103B2000134653F8A81FE1B1134653F8C01FD1B193
:103B3000134653F8D81F00291EBFFF2108467047BF
:103B4000092111E0002113460EE001210CE00221C1
:103B50000AE0032108E0042106E0052104E0062133
:103B600002E0072100E00821186001EB410002EBB0
:103B7000C00042F210720261826080F814C00846F0
:103B8000704700BF10B540F62C1340F2186E4FF08E
:103B9000000CC0F60103C2F2000E08330360DEF829
:103BA000003023B3734653F8184F1CB3734653F8D1
:103BB000304F0CB3734653F8484FFCB1734653F87B
:103BC000604FECB1734653F8784FDCB1734653F84D
:103BD000904FCCB1734653F8A84FBCB1734653F81D
:103BE000C04FACB1734653F8D84F9CB1FEE70024E8
:103BF000734610E001240EE002240CE003240AE0E6
:103C0000042408E0052406E0062404E0072402E07A
:103C1000082400E00924186004EB44030EEBC303FE
:103C20001A61996083F814C010BD00BF10B540F24E
:103C3000186E4FF0000CC2F2000EDEF800304BB3ED
:103C4000744654F8183F43B3744654F8303F33B3C6
:103C5000744654F8483F23B3744654F8603F13B396
:103C6000744654F8783F03B3744654F8903FF3B168
:103C7000744654F8A83FE3B1744654F8C03FD3B13A
:103C8000744654F8D83F002B1EBFFF23184610BDC2
:103C9000092311E0002374460EE001230CE0022307
:103CA0000AE0032308E0042306E0052304E00623DA
:103CB00002E0072300E00823206003EB43000EEB43
:103CC000C0000261816080F814C0184610BD00BFBA
:103CD00040F21861C2F200010A68824230D00A46FE
:103CE00052F8183F83422CD00A4652F8303F8342A4
:103CF00027D00A4652F8483F834222D00A4652F85B
:103D0000603F83421DD00A4652F8783F834218D064
:103D10000A4652F8903F834213D00A4652F8A83F11
:103D200083420ED00A4652F8C03F834209D051F870
:103D3000D82F82420A4618BF704700201060704793
:103D40000A4600201060704740F2186100EB400006
:103D50000022C2F2000141F83020704780B5FFF721
:103D60006BFE40F61411C0F601010831016080BD00
:103D700080B5FFF707FF40F61411C0F601010831C6
:103D8000016080BD40F21C30C2F20000FDF772BE3F
:103D900040F21C30C2F20000FDF7AEBE40F21C3013
:103DA00041F200014FF40052C2F20000C4F20101DE
:103DB000FFF77ABA40F2E002C2F20002116000217D
:103DC0005160704710B540F2E004C2F2000421686F
:103DD00000294CD0086828B10168896888472168A3
:103DE000002944D0886920B1016889688847216822
:103DF000E9B3086B20B10168896888472168B1B3CD
:103E0000886C20B1016889688847216879B3086E99
:103E100020B1016889688847216841B3886F20B163
:103E2000016889688847216809B3D1F8900020B1FA
:103E30000168896888472168C9B1D1F8A80020B114
:103E4000016889688847216889B1D1F8C00030B11C
:103E50000168896888472168002908BF10BDD1F82A
:103E6000D80020B101688968BDE81040084710BD3E
:103E70002DE9F04F81B040F2E00B40F21C7540F2AA
:103E8000485A40F210794FF00108C2F2000BC2F21A
:103E90000005C2F2000AC2F20009DBF8000000BF10
:103EA00000210246002300BF002A297034D003EB12
:103EB000430352F83370002F4CD002EBC303D3E915
:103EC0000173DAF80060F71B38BF013F9F4241D30E
:103ED000FDF7D8FACBF80C00DAF80000CBF80800B0
:103EE0002978DBF8000001EB410150F8310001684E
:103EF000C9688847DBF80C70FDF7C4FA0090009899
:103F0000B8420BD2D9F800000130C9F80000F843DC
:103F100000990A1804E000BF00221BE00098C21BB1
:103F20002978DBF8000001EB410300EBC303DA6002
:103F3000DBF80870DBF80860DAF80040BF1BB44219
:103F4000274438BF013F5F601F69BA42024688BFFD
:103F500083F814800131CBB20A2BA5D3A0E700006F
:103F600080B5FFF769FD40F6BC01C0F601010831DC
:103F7000016080BD80B5FFF705FE40F6BC01C0F6CC
:103F800001010831016080BD10B540F2F004C2F2B9
:103F900000042046FFF748FAE06820B18189806874
:103FA0000122FCF70DFD40F2F00004A300210022E5
:103FB000C2F20000BDE81040FFF738BC416D6974E3
:103FC00020436861756468617279000070B584B0DF
:103FD00040F26C160DF106040422C2F200062146DE
:103FE000306800F041F82044562100222346002585
:103FF000A0F8011040F2F0000121C2F20000FFF72A
:1040000015FC40F26810C2F200000168B1F57A7F39
:1040100027D3056070682146042200F025F820446B
:1040200044F26D1100222346A0F80110C57040F241
:10403000F0050221C2F200052846FFF7F7FBF06801
:104040002146042200F010F844F26D1120440022B1
:104050002346C0F24801C0F8011028460321FFF7AB
:10406000E5FB04B070BD00BF2DE9F04F81B0904674
:104070000E4682460BF06EFD81464FF0000B002489
:10408000B9F1000F62D046F267614A46C6F2666136
:1040900082FB0103981000EBD37303EB8300A2EBC8
:1040A000400009323030122A1A46305504F101041A
:1040B000EED8611EB1F1FF3F0BDA301961423022B8
:1040C00007F038FE0024B8F1000F06F804B042D122
:1040D000B3E001293ADB327830703019032900F857
:1040E000012C33DBA01E05217218355C12F8043C4C
:1040F00002F8045CCD1E3354431E9D4226DA331869
:1041000012F8035C13F8017C02F8037C03F8015CED
:10411000871E8D1EBD4219DA12F8027C13F8025C6C
:1041200002F8025C03F8027CC71E4D1EBD420DDA88
:1041300013F8035C12F8017C0438814202F8015C38
:1041400001F1040203F8037C1146CDDBB8F1000F46
:1041500006F804B071D0484606EB040B0BF016FDD0
:10416000014650460BF072FE05462E20D9464146C8
:1041700009F8010B0020C4F2201000F001F90146FB
:1041800028460BF097FD0BF0E5FC0021B0B146F29C
:104190006762C6F2666200BF80FB0235AB1003EBBC
:1041A000D57303EB8305A0EB4505093030351228A4
:1041B000184609F8015001F10101EDD8414507DA2F
:1041C00009EB0100A8EB0101302207F0B3FD4146E5
:1041D00002292FDB8A1E02200BEB00030BEB0205EA
:1041E00013F8017CAE7803F8016CAF70471E97425C
:1041F00020DA1BF800706E780BF800606F70571EA5
:10420000B84217DA5F781BF802605E700BF8027034
:10421000971E461CBE420DDA9F7815F8016C9E7001
:1042200005F8017C031D171F033A0230904218461F
:104230003A46D1DB002009F8010004EB0800C0B2C7
:1042400001B0BDE8F08F00BF10B502293ADB8A1E2D
:104250004FF0020C811800EB0C034C7813F802ECC1
:1042600003F8024CACF1010481F801E0944229DA30
:10427000845C13F801EC03F8014C541E00F802E0D2
:10428000A4451FDA10F80CE011F8014C00F80C40BE
:1042900001F801ECA2F1020E0CF101047445A8BF73
:1042A00010BD93F801E011F8024C5C7001F802ECCB
:1042B000131F0CF104010CF10204033A94428C46E2
:1042C0001A46C7DB10BD00BFF0B581B00D461746DA
:1042D0000021A0B146F26762C6F2666280FB02343A
:1042E000A31003EBD47303EB8304A0EB4404093065
:1042F0003034122818466C5401F10101EED8B9424D
:1043000007DA6818791A302207F014FD022F31DB22
:1043100002E00F46022F2DDBB91E02206B182A186F
:104320005E7812F8024C02F8026C461E5C708E42F7
:1043300020DA12F8016C6C5C02F8014C6E544E1ECF
:10434000B04217DA2E5C13F8014C2C5403F8016CC0
:104350008E1E441CB4420DDA567813F8024C547089
:1043600003F8026C021D0B1F03390230884210460D
:104370001946D3DB0020E855384601B0F0BD00BF38
:1043800070B50E460446002E04BF4FF07E5070BD3F
:1043900006EBD67041102046FFF7F2FF054616F0F7
:1043A000010F03D129460BF085FC70BD012E07DB00
:1043B00021460BF07FFC014628460BF07BFC70BDCC
:1043C00029460BF077FC21460BF0CEFA70BD00BFFA
:1043D000B0B50D460446002D04BF0120B0BD6908EC
:1043E0002046FFF7F5FF15F0010F08BF012400FB81
:1043F00004F14843B0BD00BF2DE9F04182B040F266
:10440000F0041820002100220023C2F200040090D2
:1044100004F14C052846FEF743F840F6004804F145
:1044200010060222C4F2010830464146FDF70CFB9B
:1044300004F12407414601223846FDF705FB04F14B
:10444000380041464FF48062FDF7FEFA00902046A6
:1044500029463A463346FEF7E1FF02B0BDE8F08157
:1044600080B5FFF7E9FA40F67401C0F601010831A2
:10447000016080BD80B5FFF785FB40F67401C0F692
:1044800001010831016080BD10B540F28824C2F2FC
:1044900000042046FEF79CFB44F2CD422046032157
:1044A000C0F60002FEF758FC44F2D1422046052136
:1044B000C0F60002FEF750FC44F2D5422046062129
:1044C000C0F60002BDE81040FEF746BC704700BFD2
:1044D000704700BF704700BF40F28820C2F2000062
:1044E000FEF77CBB80B582B0002040F600014FF49F
:1044F00000620823009040F28820C4F20101C2F259
:104500000000FEF73FFB02B080BD000080B5FFF762
:1045100093FA40F6A401C0F601010831016080BDA4
:1045200080B5FFF72FFB40F6A401C0F6010108316A
:10453000016080BD10B540F2E014C2F2000404F145
:104540001800FDF715FD2046BDE81040FEF79EBDA2
:104550002DE9F04140F2601840F2E010C2F200088C
:10456000C2F2000008F10C01FEF716FC98E8A20068
:10457000D8F8106030460BF05FF904463046294603
:10458000C8F800400BF058F9791CB1F57A7FC8E9FA
:10459000010118BFBDE8F0810025C4F27A45294623
:1045A0000BF0E2F9C8F80400204629460BF0DCF9CC
:1045B000C8F800000BF014F942F200030022C4F224
:1045C000AC030AF0B5FD0446D8F818000D460BF010
:1045D00007F902460B46204629460AF001FD0AF07B
:1045E000CDFCC8F81800BDE8F08100BF70B582B0FE
:1045F00040F2E01441F68020002100220023C2F2A4
:104600000004C0F2060004F1180500902846FDF7EA
:1046100085FA40F2000641F669702946C0F60006A8
:10462000C0F60000324607F03BFB204629468022B8
:10463000FEF7A4FB42F6915021463246C0F6000038
:1046400002B0BDE8704007F02BBB000080B5FFF75B
:10465000F3F940F68C01C0F601010831016080BD1C
:1046600080B5FFF78FFA40F68C01C0F601010831E2
:10467000016080BD704700BFF0B581B040F64410C6
:1046800040F6BB310122C2F20000C0F6010103F086
:1046900035FD40F2801740F2207424A11222C2F2AC
:1046A0000007C2F200043870204604F047F80028E2
:1046B000387001D001B0F0BDE168204605F0D4F8B3
:1046C0000028387005D040F22070C2F2000005F0DA
:1046D000C1F840F26C157C1C0422C2F20005214690
:1046E0002868FFF7C1FC686807F10B05042229461A
:1046F000FFF7BAFC40F22076002010A122462B469C
:10470000C2F200063875B872304606F04DFD3046EC
:1047100005F0A0F840F6BB3100200022C0F60101F0
:1047200003F0ECFC387001B0F0BD00BF506F77654E
:10473000724A756C7932382E74787400566F6C74C6
:10474000616765203D2025732C43757272656E7418
:10475000203D2025730A0000B0B51222044603F064
:10476000EDFF40F280150028C2F20005287018BF46
:10477000B0BDE168204605F077F80028287004BF36
:104780000020B0BD204605F065F82878B0BD00BF18
:10479000B0B540F6441040F6BB310122C2F2000031
:1047A000C0F6010103F0AAFC40F280150028C2F215
:1047B0000005287018BFB0BD40F2207405F1150146
:1047C0001222C2F20004204603F0B8FF002828702D
:1047D00001D02870B0BDE168204605F045F80028FA
:1047E000287008D040F22070C2F2000005F032F8C4
:1047F00028782870B0BD00202870B0BDB0B540F654
:10480000441040F6BB310122C2F20000C0F60101A3
:1048100003F074FC40F280150028C2F200052870F5
:1048200001D00020B0BD40F2207405F11501122224
:10483000C2F20004204603F081FF002828701EBF4A
:1048400028700020B0BDE168204605F00DF8002872
:10485000287009D040F22070C2F2000004F0FAFF84
:1048600028780028DDD101E00020287040F24024A3
:1048700005F121020BA1C2F20004204607F0AAF8BC
:1048800040F220752046C2F20005294606F018FCC9
:1048900008A0294606F014FC284604F0DBFF01209E
:1048A000B0BD00BF537461727420646174650925E2
:1048B000730A00004E6F0954696D657374616D7001
:1048C0000954656D702C20430A0000002DE9F04763
:1048D00040F2801A40F6A43180460122C2F2000A5A
:1048E000C0F601010AF11504204607F073F840F6FE
:1048F000441040F6BB310122C2F20000C0F60101B3
:1049000003F0FCFB00288AF800001EBF00252846A3
:10491000BDE8F08740F2207640F6A4390127002553
:10492000C2F20006C0F6010930462146002203F01B
:1049300005FF00288AF800000ED1304604F08AFFF7
:10494000013720464946BAB207F044F89AF8000009
:104950000028E9D0002511E004280FD1B8F1000F9C
:1049600008D140F6A431781E82B2C0F6010120467B
:1049700007F030F801252846BDE8F0872846BDE855
:10498000F08700BFB0B582B04FF4FE700121FCF794
:10499000C1FB40F60004002001AD8DF807004FF682
:1049A000FF70C4F201042946ADF8040004F58060EC
:1049B000FBF7FAFD04F500602946FBF7F5FD04F569
:1049C00040602946FBF7F0FD04F580502946FBF7CF
:1049D000EBFD04F5A0502946FBF7E6FD04F5C050B9
:1049E0002946FBF7E1FD4FF460502946ADF804007D
:1049F0002046FBF7D9FD4FF4FC700021FCF78AFB41
:104A0000102029468DF807000820ADF80400204644
:104A1000FBF7CAFD204608210022FBF7D1FF02B0B8
:104A2000B0BD00BF10B540F220700BA10122C2F250
:104A3000000003F083FE002818BF10BD40F2207470
:104A400008A0C2F20004214606F03AFB204604F01A
:104A500001FF002010BD00BF6D6573736167652E97
:104A6000747874004D79204E616D65206973204122
:104A70006D6974204368617564686172790A000029
:104A800001290BDBB0B501F0010C012909D100248B
:104A90000021BCF1000F00F0B08079E00020C0B22E
:104AA0007047A1EB0C0E002409228023002100BFD7
:104AB000455C6C40E5B214F0800F18BF85F0090426
:104AC000E4B282EA440513EA440F08BF650082EAB3
:104AD000450413EA450F08BF6C0082EA440513EA57
:104AE000440F08BF650082EA450413EA450F08BF7A
:104AF0006C0082EA440513EA440F08BF650082EAAD
:104B0000450413EA450F08BF6C0082EA440513EA26
:104B1000440F08BF650044180231647884EA4504F4
:104B2000E5B214F0800F18BF85F00904E4B282EA00
:104B3000440513EA440F08BF650082EA450413EAFE
:104B4000450F08BF6C0082EA440513EA440F08BF12
:104B5000650082EA450413EA450F08BF6C0082EA4B
:104B6000440513EA440F08BF650082EA450413EACE
:104B7000450F08BF6C0082EA440513EA440F08BFE2
:104B800065008E454FEA450492D1BCF1000F34D048
:104B9000405C80236040C1B210F0800F18BF81F0EC
:104BA00009000921C0B281EA400213EA400F08BFA0
:104BB000420081EA420013EA420F08BF500081EA36
:104BC000400213EA400F08BF420081EA420013EAA4
:104BD000420F08BF500081EA400213EA400F08BFAD
:104BE000420081EA420013EA420F08BF500081EA06
:104BF000400513EA400F08BF450005F07F00BDE8FF
:104C0000B040C0B2704700BF70B501290ADB4A1E30
:104C100001F0030C032A08D200230021BCF1000F8D
:104C200047D17AE0002398B270BDA1EB0C0E0023AF
:104C30004FF4FF52002100BF445C1BBA84EA1343C7
:104C4000C3F30314634002EA431483EA033363406B
:104C50004418043165781BBAA678E4788E4585EA55
:104C60001343C3F3031583EA050302EA431583EAFA
:104C7000033383EA05031BBA86EA1343C3F3031520
:104C800083EA050302EA431583EA033383EA050353
:104C90001BBA84EA1343C3F3031483EA040302EA4E
:104CA000431483EA033383EA0403C5D1BCF1000F44
:104CB00033D0425C1BBABCF1010F82EA1342C2F34B
:104CC000031383EA02034FF4FF5202EA431683EA16
:104CD000033383EA060320D008441BBABCF1020F59
:104CE000417881EA1341C1F3031381EA030102EA27
:104CF000411281EA013181EA02030ED0807819BAAB
:104D000080EA1140C0F3031148404FF4FF5101EA1B
:104D1000401180EA003080EA010398B270BD00BF04
:104D20002DE9F04387B080460025D8F8000018B17F
:104D3000284607B0BDE8F08308200121FCF7EAF916
:104D40004FF4804001214FF48049FCF7EFF941F224
:104D5000000043F6080406AFC1F20300C4F20004E9
:104D6000394606904DF2F83026183046FBF71CFC09
:104D70004AF200003946C1F6030006903046FBF7C0
:104D800013FC482039468DF81B003046ADF81890CA
:104D9000FBF70AFC4FF08270A4F10806CDE901058B
:104DA0004FF0007001AD0390382029460490072091
:104DB000ADF814003046FCF741FA30460021FCF70C
:104DC00013FB30460121FCF7B9FA00BF304602213F
:104DD000FCF728FB0028F9D03046FCF7DFFA404604
:104DE00000F0B4FD48B3404600F0B0FD28B34046A3
:104DF00000F0ACFD08B3404600F0A8FDE8B1404625
:104E000000F0A4FDC8B1404600F0A0FDA8B14046A6
:104E100000F09CFD88B1404600F098FD68B1404626
:104E200000F094FD48B1404600F090FD28B14FF0ED
:104E3000FF35284607B0BDE8F08340F610464FF432
:104E400080500021C4F2010670600D2002F0D0FCF9
:104E50004FF47A7040F2E733FF2100BF0246184654
:104E6000A18000BF238813F0010F0BD1238813F01A
:104E7000010F07D1238813F0010F03D1238813F00A
:104E8000010FEFD0A3885BB2002B03DA431E00288A
:104E9000E4D114E0012A12DBFF20A080208810F06A
:104EA000010F0BD1208810F0010F07D1208810F0DE
:104EB000010F03D1208810F0010FEFD0A088FF2050
:104EC000A08000BF208810F0010F0BD1208810F0C7
:104ED000010F07D1208810F0010F03D1208810F0B6
:104EE000010FEFD0A088FF20A08000BF208810F025
:104EF000010F0BD1208810F0010F07D1208810F08E
:104F0000010F03D1208810F0010FEFD0A088FF20FF
:104F1000A08000BF208810F0010F0BD1208810F076
:104F2000010F07D1208810F0010F03D1208810F065
:104F3000010FEFD0A088FF20A08000BF208810F0D4
:104F4000010F0BD1208810F0010F07D1208810F03D
:104F5000010F03D1208810F0010FEFD0A088FF20AF
:104F6000A08000BF208810F0010F0BD1208810F026
:104F7000010F07D1208810F0010F03D1208810F015
:104F8000010FEFD0A088FF20A08000BF208810F084
:104F9000010F0BD1208810F0010F07D1208810F0ED
:104FA000010F03D1208810F0010FEFD0A088FF205F
:104FB000A08000BF208810F0010F0BD1208810F0D6
:104FC000010F07D1208810F0010F03D1208810F0C5
:104FD000010FEFD0A088FF20A08000BF208810F034
:104FE000010F0BD1208810F0010F07D1208810F09D
:104FF000010F03D1208810F0010FEFD0A08800210D
:105000004FF48050306070600A2002F0F1FB40F2F3
:10501000E732FF201146A080228812F0010F0BD149
:10502000228812F0010F07D1228812F0010F03D15C
:10503000228812F0010FEFD0A28853B2002B03DABE
:105040004A1E0029E6D130E2D0B2012800F22D82BA
:1050500044F6206044F61F63FF2100BF0246184655
:10506000A18000BF238813F0010F0BD1238813F018
:10507000010F07D1238813F0010F03D1238813F008
:10508000010FEFD0A388DBB2FE2B03D0431E002814
:10509000E4D16AE1012AC0F26881FF20A08000BF4C
:1050A000208810F0010F0BD1208810F0010F07D1DC
:1050B000208810F0010F03D1208810F0010FEFD0ED
:1050C000A088FF20A08000BF208810F0010F0BD126
:1050D000208810F0010F07D1208810F0010F03D1B4
:1050E000208810F0010FEFD0A088FF20A08000BF23
:1050F000208810F0010F0BD1208810F0010F07D18C
:10510000208810F0010F03D1208810F0010FEFD09C
:10511000A088FF20A08000BF208810F0010F0BD1D5
:10512000208810F0010F07D1208810F0010F03D163
:10513000208810F0010FEFD0A088FF20A08000BFD2
:10514000208810F0010F0BD1208810F0010F07D13B
:10515000208810F0010F03D1208810F0010FEFD04C
:10516000A088FF20A08000BF208810F0010F0BD185
:10517000208810F0010F07D1208810F0010F03D113
:10518000208810F0010FEFD0A088FF20A08000BF82
:10519000208810F0010F0BD1208810F0010F07D1EB
:1051A000208810F0010F03D1208810F0010FEFD0FC
:1051B000A088FF20A08000BF208810F0010F0BD135
:1051C000208810F0010F07D1208810F0010F03D1C3
:1051D000208810F0010FEFD0A088FF20A08000BF32
:1051E000208810F0010F0BD1208810F0010F07D19B
:1051F000208810F0010F03D1208810F0010FEFD0AC
:10520000A088FF20A08000BF208810F0010F0BD1E4
:10521000208810F0010F07D1208810F0010F03D172
:10522000208810F0010FEFD0A088FF20A08000BFE1
:10523000208810F0010F0BD1208810F0010F07D14A
:10524000208810F0010F03D1208810F0010FEFD05B
:10525000A088FF20A08000BF208810F0010F0BD194
:10526000208810F0010F07D1208810F0010F03D122
:10527000208810F0010FEFD0A088FF20A08000BF91
:10528000208810F0010F0BD1208810F0010F07D1FA
:10529000208810F0010F03D1208810F0010FEFD00B
:1052A000A088FF20A08000BF208810F0010F0BD144
:1052B000208810F0010F07D1208810F0010F03D1D2
:1052C000208810F0010FEFD0A088FF20A08000BF41
:1052D000208810F0010F0BD1208810F0010F07D1AA
:1052E000208810F0010F03D1208810F0010FEFD0BB
:1052F000A088FF20A08000BF208810F0010F0BD1F4
:10530000208810F0010F07D1208810F0010F03D181
:10531000208810F0010FEFD0A088FF20A08000BFF0
:10532000208810F0010F0BD1208810F0010F07D159
:10533000208810F0010F03D1208810F0010FEFD06A
:10534000A088FF20A08000BF208810F0010F0BD1A3
:10535000208810F0010F07D1208810F0010F03D131
:10536000208810F0010FEFD0A088FF20A08000BFA0
:10537000208810F0010F0BD1208810F0010F07D109
:10538000208810F0010F03D1208810F0010FEFD01A
:10539000A088FF20A08000BF208810F0010F0BD153
:1053A000208810F0010F07D1208810F0010F03D1E1
:1053B000208810F0010FEFD0A088FF20A08000BF50
:1053C000208810F0010F0BD1208810F0010F07D1B9
:1053D000208810F0010F03D1208810F0010FEFD0CA
:1053E000A088FF20A08000BF208810F0010F0BD103
:1053F000208810F0010F07D1208810F0010F03D191
:10540000208810F0010FEFD0A088FF20A08000BFFF
:10541000208810F0010F0BD1208810F0010F07D168
:10542000208810F0010F03D1208810F0010FEFD079
:10543000A088FF20A08000BF208810F0010F0BD1B2
:10544000208810F0010F07D1208810F0010F03D140
:10545000208810F0010FEFD0A088FF20A08000BFAF
:10546000208810F0010F0BD1208810F0010F07D118
:10547000208810F0010F03D1208810F0010FEFD029
:10548000A088FF20A08000BF208810F0010F0BD162
:10549000208810F0010F07D1208810F0010F03D1F0
:1054A000208810F0010FEFD0A0884FF48050002129
:1054B00030607060092002F09BF940F2E732FF2073
:1054C0001146A080228812F0010F0BD1228812F021
:1054D000010F07D1228812F0010F03D1228812F0A8
:1054E000010FEFD0A28853B2002B03DA4A1E002925
:1054F000E6D102E0D0B2012808D94FF480503060E4
:105500004FF0FF35284607B0BDE8F08344F6206031
:1055100044F61F63FF2100BF02461846A18000BF6A
:10552000238813F0010F0BD1238813F0010F07D14B
:10553000238813F0010F03D1238813F0010FEFD05C
:10554000A388DBB2FE2B03D0431E0028E4D11CE06D
:10555000012A1ADB0020FF2105E000BFA2880F28E6
:1055600016D82A540130A180228812F0010FF5D1FB
:10557000228812F0010FF1D1228812F0010FEDD133
:10558000228812F0010FEFD0E8E74FF0FF32EAE097
:10559000FF20A080208810F0010F0BD1208810F090
:1055A000010F07D1208810F0010F03D1208810F0DF
:1055B000010FEFD0B4F804C09DF804009DF8051069
:1055C0009DF806509DF8073080EA101040EA003739
:1055D00087EA40104FF4FF5700BA81EA1040C0F349
:1055E0000311484007EA401180EA0030484000BA01
:1055F00085EA1040C0F30311484007EA401180EAF1
:105600000030484000BA83EA1040C0F3031148401C
:1056100007EA401180EA003048409DF8081000BABF
:1056200081EA1040C0F30311484007EA401180EAC4
:10563000003048409DF8091000BA81EA1040C0F3DC
:105640000311484007EA401180EA003048409DF8C5
:105650000A1000BA81EA1040C0F30311484007EA7B
:10566000401180EA003048409DF80B1000BA81EAF2
:105670001040C0F30311484007EA401180EA0030AF
:1056800048409DF80C1000BA81EA1040C0F30311A5
:10569000484007EA401180EA003048409DF80D106C
:1056A00000BA81EA1040C0F30311484007EA4011F4
:1056B00080EA0030484001BA9DF80E0080EA1141AE
:1056C000C1F30313594007EA411381EA01315940FC
:1056D0000BBA9DF80F1081EA1343C3F303156B4017
:1056E00007EA431583EA03336B409DF810501BBA59
:1056F00085EA1343C3F303156B4007EA431583EAB6
:1057000003336B409DF811501BBA85EA1343C3F372
:1057100003156B4007EA431583EA03336B409DF89A
:1057200012501BBA85EA1343C3F303156B4007EA13
:10573000431583EA03336B409DF813501BBA85EA87
:105740001343C3F303156B4007EA431783EA03339C
:105750007B405FFA8CF747EA02229BB292B2D21AE0
:1057600018BF4FF0FF32FF23A38000BF238813F040
:10577000010F0BD1238813F0010F07D1238813F0F9
:10578000010F03D1238813F0010FEFD0A388FF236B
:10579000A38000BF238813F0010F0BD1238813F0DF
:1057A000010F07D1238813F0010F03D1238813F0D1
:1057B000010FEFD0A388FF23A38000BF238813F03D
:1057C000010F0BD1238813F0010F07D1238813F0A9
:1057D000010F03D1238813F0010FEFD0A388FF231B
:1057E000A38000BF238813F0010F0BD1238813F08F
:1057F000010F07D1238813F0010F03D1238813F081
:10580000010FEFD0A388FF23A38000BF238813F0EC
:10581000010F0BD1238813F0010F07D1238813F058
:10582000010F03D1238813F0010FEFD0A388FF23CA
:10583000A38000BF238813F0010F0BD1238813F03E
:10584000010F07D1238813F0010F03D1238813F030
:10585000010FEFD0A388FF23A38000BF238813F09C
:10586000010F0BD1238813F0010F07D1238813F008
:10587000010F03D1238813F0010FEFD0A388FF237A
:10588000A38000BF238813F0010F0BD1238813F0EE
:10589000010F07D1238813F0010F03D1238813F0E0
:1058A000010FEFD0A38801324FF4805333603FF4EF
:1058B00027AE9DF804203F2A20D89DF80A709DF855
:1058C0000D2006239DF80B609DF80C5007F0030790
:1058D00003EA420200F08003BF0242EAD3129DF8BD
:1058E000093047EA8607023247EA951703F00F03AB
:1058F0000137093B07FA02F29A4010E0D8F80C2071
:1059000042F00202C8F80C209DF80C309DF80B20E4
:105910009DF80D701B0243EA02423A439202C8F816
:105920000420012210F0400F4FF0010305D1C0B256
:10593000C1F3C01160F346014B1CC8F80830C8F829
:1059400000200025284607B0BDE8F0832DE9F04F80
:1059500081B040F6104A8346002043F60807CBF892
:105960000C00C4F2010A4FF48050C4F20007CAF8D8
:105970000000FF20B88000BF388810F0010F0BD165
:10598000388810F0010F07D1388810F0010F03D1CB
:10599000388810F0010FEFD0B888FF20B88000BF22
:1059A000388810F0010F0BD1388810F0010F07D1A3
:1059B000388810F0010F03D1388810F0010FEFD0B4
:1059C000B888FF20B88000BF388810F0010F0BD1D5
:1059D000388810F0010F07D1388810F0010F03D17B
:1059E000388810F0010FEFD0B888FF20B88000BFD2
:1059F000388810F0010F0BD1388810F0010F07D153
:105A0000388810F0010F03D1388810F0010FEFD063
:105A1000B888FF20B88000BF388810F0010F0BD184
:105A2000388810F0010F07D1388810F0010F03D12A
:105A3000388810F0010FEFD0B888FF20B88000BF81
:105A4000388810F0010F0BD1388810F0010F07D102
:105A5000388810F0010F03D1388810F0010FEFD013
:105A6000B888FF20B88000BF388810F0010F0BD134
:105A7000388810F0010F07D1388810F0010F03D1DA
:105A8000388810F0010FEFD0B888FF20B88000BF31
:105A9000388810F0010F0BD1388810F0010F07D1B2
:105AA000388810F0010F03D1388810F0010FEFD0C3
:105AB000B888FF20B88000BF388810F0010F0BD1E4
:105AC000388810F0010F07D1388810F0010F03D18A
:105AD000388810F0010FEFD0B888FF20B88000BFE1
