:020000040800F2
:1000000000020020010100080501000807010008A6
:10001000090100080B0100080D01000800000000A4
:1000200000000000000000000000000000000000D0
:1000300011010008000000000000000000000000A6
:100040001701000817010008170100081701000830
:100050001701000817010008170100081701000820
:100060001701000817010008170100081701000810
:100070001701000817010008170100081701000800
:1000800017010008170100081701000817010008F0
:1000900017010008170100081701000817010008E0
:1000A00017010008170100081701000817010008D0
:1000B00017010008170100081701000817010008C0
:1000C00017010008170100081701000817010008B0
:1000D00017010008170100081701000817010008A0
:1000E000170100081701000817010008DFF80CD0FD
:1000F00000F0A8FC00480047370A00080002002072
:1001000005480047FEE7FEE7FEE7FEE7FEE7FEE7FD
:10011000FEE7FEE7FEE7FEE7ED0000080020411ED7
:10012000EF4A11604A0DEE498039C1F88420411E22
:100130004FF0E022C2F880124A0DEA490A6000BF7F
:1001400004E00022E84941F82020401C0B28F8D3A5
:10015000704700204FF02061E44A11600021121D19
:100160001160E349121D11600021121D1160121D62
:10017000116000BF05E00022DC49143141F8202065
:10018000401C0328F7D30021D84A20321160491EB1
:10019000121D1160121D1160121D11607047D449AB
:1001A0000143D24A083211607047F0B500210022A5
:1001B000002300250F24C678002E35D0CB4E0836FC
:1001C000366806F4E066C6F5E066310AC1F104055A
:1001D000CC40467806FA05F186782640314309017D
:1001E0000678B607F60EB140BF4E0778BF1056F836
:1001F00027200678B607F70EFF2606FA07F39A437C
:1002000019400A43B84E0778BF1046F827200678F1
:1002100006F01F070126BE4007787F11BF0007F1D7
:10022000E027C7F800610BE0067806F01F070126FB
:10023000BE40AB4F90F800C04FEA6C1C47F82C60F2
:10024000F0BD0021017041708170C170704710B520
:1002500000F099FB10BD10B500F097FB10BD10B574
:1002600000F095FB10BD10B500F093FB10BD10B56C
:100270000446200100F08FFB10BD10B500F08EFB8E
:1002800010BD9A480068C0F30930704710B50146A8
:100290000020002201F01F04012303FA04F2904B16
:1002A00080334C1153F824301340934201D1012084
:1002B00000E0002010BD8F490860704700F01F0269
:1002C00001219140874A121F431142F823107047C1
:1002D00086480068C0F30900704710B50146002049
:1002E000002201F01F04012303FA04F27D4B7C334A
:1002F0004C1153F824301340934201D1012000E007
:10030000002010BD7948001F006870477A4A02EA51
:10031000C112764B1B1D1A601A46126802431A60FE
:1003200070477348001D7149083108607047704874
:10033000401C6E4908310860704739B16B4A0C3275
:1003400012680243694B0C331A6006E0674A0C32AC
:1003500012688243654B0C331A60704710B5002257
:1003600000F01F04012303FA04F239B15F4B20337C
:100370001B6813435D4C2034236006E05B4B203345
:100380001B689343594C2034236010BDF0B50346DD
:100390000C4615460020FF2200260021534F083747
:1003A0003F6807F4E067C7F5E067390AC1F1040068
:1003B000CA4004FA00F105EA02073943090103F0D3
:1003C000C0008009C3F30122D700B9404FEAC20C34
:1003D000FF2707FA0CF6454F143757F82070B7433C
:1003E000DFF808C10CF1140C4CF82070674657F880
:1003F00020700F434CF82070F0BD10B5024600206D
:1004000000230021910A01F00F01012404FA01F1F7
:10041000364C2034246804EA01038B4201D10120C8
:1004200000E0002010BD002100F01F012F4A1268DB
:1004300001238B401A432D4B1A60704710B50021E1
:1004400000F01F01294A12684B1E01249C402243E0
:10045000264B1A6010BD10B5024600200023002173
:10046000C2F38331012404FA01F1204C20342468C2
:1004700004EA01038B4201D1012000E0002010BDFD
:1004800030B50146002000220023C1F38142C1F3B0
:1004900001531AB9154C2834206811E0012A0CD1F7
:1004A000124C24342468DD0024FA05F0022B02D01B
:1004B00000F00F0004E0C0B202E00C4C2C342068C5
:1004C00030BD014600200022C1F380521AB9074B0B
:1004D0003033186802E0054B343318687047000069
:1004E00080E100E084E200E000E400E004ED00E0F0
:1004F0000000FA0500EF00E080FFFF1F0020D54953
:10050000C86008611420486100208861C8610846FD
:10051000006840F00100086008464068CE49084085
:10052000CC49486008460068CC490840C949086081
:100530000846006820F4802008600846406820F4DF
:10054000FE004860002088607047C249096821F4B5
:100550008031C04A11601146096821F48021116080
:10056000B0F5803F03D0B0F5802F0ED106E0B94939
:10057000096841F48031B74A116007E0B54909685C
:1005800041F4A021B34A116000E000BF00BF7047F2
:1005900001460020AF4A106820F0F80040EAC10090
:1005A00010607047AE490860704702460020A94BB2
:1005B000586820F47C1042EA01031843A54B5860A8
:1005C0007047A7490866704701460020A14A506855
:1005D00020F003000843506070479E48406800F0D8
:1005E0000C007047014600209A4A506820F0F00045
:1005F00008435060704701460020964A506820F436
:10060000E06008435060704701460020914A5068FE
:1006100020F4605040EAC1005060704729B18D4A13
:10062000527A02438B4B5A7204E08A4A527A8243CE
:10063000884B5A7270478A49D83108607047014622
:100640000020844A506820F44040084350607047BE
:100650000021804A203211707E4A82F82010012841
:1006600002D004280AD104E001217A4A2032117014
:1006700005E00521774A2032117000E000BF00BF7D
:1006800070477849086070477249096A0143714AA6
:1006900011627047734944390860704730B50021D2
:1006A0000022002400236B4D6D6805F00C0121B180
:1006B000042905D0082923D105E06B4D056022E00F
:1006C000694D05601FE0634D6D6805F470120225E9
:1006D00005EB92425F4D6D6805F480341CB9634DA3
:1006E000554305600BE05B4D6D6805F400351DB1A9
:1006F0005E4D5543056002E05B4D5543056002E0E9
:10070000594D056000BF00BF524D6D6805F0F00106
:100710000909574D6B5C0568DD4045604D4D6D68BE
:1007200005F4E061090A524D6B5C4568DD40856067
:10073000484D6D6805F46051C90A4D4D6B5C4568C4
:10074000DD40C560434D6D6805F44041890B494D5E
:100750006B5CC568B5FBF3F5056130BD29B13D4A59
:10076000526902433B4B5A6104E03A4A5269824360
:10077000384B5A61704729B1364A92690243354B6A
:100780009A6104E0334A92698243324B9A6170471E
:1007900029B1304AD26902432E4BDA6104E02D4A76
:1007A000D26982432B4BDA61704729B1294AD2685A
:1007B0000243284BDA6004E0264AD2688243254B84
:1007C000DA60704729B1234A12690243214B1A614A
:1007D00004E0204A126982431E4B1A617047214986
:1007E0004039086070471E49C86470471949C8718C
:1007F000704710B501460022002300204A11012A4B
:1008000002D1144C236806E0022A02D1114C236A5B
:1008100001E0104C636A01F01F02012494401C4067
:100820000CB1012000E0002010BD0A48406A40F0F1
:10083000807008494862704701460020054A926866
:100840000A400AB1012000E0002070470149887287
:1008500070470000001002400000FFF8FFFFF6FEA6
:10086000000042428004424200127A0000093D002A
:10087000860A0008960A0008042808D14FF0E021F3
:10088000096941F004014FF0E022116107E04FF0E7
:10089000E021096921F004014FF0E0221161704765
:1008A0004FF0E0214861704720B900214FF0E0226D
:1008B000916112E0012808D14FF0E021096941F06F
:1008C00001014FF0E022116107E04FF0E0210969DA
:1008D00021F001014FF0E0221161704740B14FF06B
:1008E000E021096941F002014FF0E022116107E0C7
:1008F0004FF0E021096921F002014FF0E02211617F
:1009000070474FF0E0208069704710B50146002223
:10091000002300204A11012A03D14FF0E02423696B
:1009200002E04FF0E024E36901F01F02012494404B
:100930001C400CB1012000E0002010BD30BF70470A
:1009400020BF704740BF7047BFF36F8F7047BFF342
:100950004F8F7047BFF35F8F704701DF7047EFF332
:100960001480704780F31488BFF36F8F7047EFF3E4
:100970000980704780F309887047EFF3088070475B
:1009800080F30888704772B6704762B6704771B6D8
:10099000704761B6704780F311887047EFF312809B
:1009A000704740BA704700BA7047000010B5FFF7B3
:1009B000A5FD4FF48030FFF7C8FD00BF3120FFF7E1
:1009C00018FF0028FAD002201D4908600020FFF718
:1009D00009FE0020FFF718FE4FF48060FFF70BFEC2
:1009E0004FF4E0114FF48030FFF7DFFD0120FFF7F7
:1009F000E8FD00BF3920FFF7FCFE0028FAD00220F6
:100A0000FFF7E2FD00BFFFF7E8FD0828FBD1012159
:100A10007D20FFF7B0FE01218803FFF7B9FE00211A
:100A20000846FFF773FC4FF44070FFF7B8FB042053
:100A3000FFF722FF10BD10B5FFF7B8FF002010BD73
:100A400000200240064C074D06E0E06840F001033C
:100A500094E8070098471034AC42F6D3FFF74AFBFE
:100A60009C0A0008AC0A000802E008C8121F08C16E
:100A7000002AFAD170477047002001E001C1121F1F
:100A8000002AFBD1704700000000010203040102AC
:100A9000030406070809020406080000AC0A00085F
:0C0AA0000000002000020000780A00089E
:04000005080000ED02
:00000001FF
