:020000040800F2
:100000006804002001010008770B00083B0B000882
:10001000750B0008490100085D0C00080000000095
:100020000000000000000000000000009B0B000822
:100030004B01000800000000990B00089D0B000810
:100040001B0100081B0100081B0100081B01000820
:100050001B0100081B0100081B0100081B01000810
:100060001B0100081B0100081B0100081B01000800
:100070001B0100081B0100081B0100081B010008F0
:100080001B0100081B0100081B0100081B010008E0
:100090001B0100081B0100081B0100081B010008D0
:1000A0001B0100081B0100081B0100081B010008C0
:1000B0001B0100081B0100081B0100081B010008B0
:1000C0001B0100081B0100081B0100081B010008A0
:1000D0001B0100081B0100081B0100081B01000890
:1000E0001B0100081B0100081B010008DFF80CD0F1
:1000F00000F018F8004800477D0C00086804002054
:100100000648804706480047FEE7FEE7FEE7FEE7B1
:10011000FEE7FEE7FEE7FEE7FEE7FEE7150C000858
:10012000ED000008064C074D06E0E06840F00103D2
:1001300094E8070098471034AC42F6D3FFF7DAFF93
:10014000EC0C00080C0D0008FEE770472DE9F84F95
:10015000DFF890A100220AF1040B144601274FF0AA
:100160000F090BF1040E00BF0B6807FA04F52B40D2
:10017000AB4274D1DFF870C14E68A6EB0C0866453F
:100180002BD00DDC032E34D005DC36B3012E19D074
:10019000022E2FD11BE0112E16D0122E2AD119E0DB
:1001A000B8F5881F19D006DCB8F5803F15D0B8F532
:1001B000801F1FD111E0B8F5001F0ED0B8F5041F45
:1001C00018D10AE0CA6815E0CA68121D12E0CA68B0
:1001D00008320FE0CA680C320CE08A682AB1012AA2
:1001E0004FF0080203D0456104E0042202E00561FB
:1001F00000E00022FF2B01D8064601E000F10406D2
:100200004FEA840501D9A5F12005D6F800C009FA06
:1002100005F82CEA080C02FA05F54CEA050CC6F8BC
:1002200000C04D68ED0057D5304DAE6946F001066F
:10023000AE61AD6924F0030605F0010500952C4D73
:1002400006EB050CDCF80850A6074FEA167809FA09
:1002500008F6B543274EB04202D1002610E03BE03D
:10026000254EB04201D101260AE0244EB04201D110
:10027000022605E0224EB04201D1032600E004260A
:1002800006FA08F62E43CCF808604D68DAF80060EC
:10029000ED03554601D51E4300E09E432E604D6898
:1002A000DBF80060AD035D4601D51E4300E09E43D0
:1002B0002E604D68DEF80060ED02754601D51E43E4
:1002C00000E09E432E604D68AD020E4D2E6801D5B4
:1002D0001E4300E09E432E60641C102CFFF444AFCC
:1002E000BDE8F88F0004014000001110001002402A
:1002F0000000014000080140000C014000100140D6
:10030000001401400C04014001488068704700005F
:100310000000002070B504001BD094F83D000025BB
:1003200020B984F83C50204600F094F8242084F84A
:100330003D002068016821F00101016000F010FA21
:10034000404A6168914201D83F4900E03F498842F4
:1003500001D2012070BD3E492368B0FBF1F1596024
:100360006368934206D94FF4967359434FF47A73F6
:10037000B1FBF3F12368491C19626168914210D8FE
:100380004900401EB0FBF1F2521CC2F30B02042ADA
:1003900001D2042022E0B0FBF1F0401CC0F30B00BE
:1003A0001CE0A368CBB301EBC10202EB0116421EB5
:1003B000B2FBF6F2521C42F48042120536D06BB307
:1003C00001EBC10202EB0111401EB0FBF1F0401C39
:1003D000C0F30B0040F4804040F400402168C86145
:1003E000D4E90701084321680860D4E903100843F1
:1003F00021688860D4E9050108432168C860206845
:10040000016841F0010101602564202084F83D006D
:10041000256384F83E50002070BD00E008E001EB49
:100420004106421EB2FBF6F2521CC6E70120D5E798
:1004300001EB4101401EB0FBF1F0401CC0F30B008A
:10044000CAE70000A086010080841E0000093D006C
:1004500040420F0000B500680C4985B0884213D1B6
:100460004FF44060009012200190032003906946F1
:100470000748FFF76BFE0748C16941F48001C1617D
:10048000C06900F48000049005B000BD0058004031
:10049000000C0140001002400248816802781144BB
:1004A0008160704700000020074810B5016841F0E6
:1004B00010010160032000F091F8002000F006F820
:1004C00000F024F8002010BD0020024070B50D4D52
:1004D00004464FF47A712878B1FBF0F00A490968B4
:1004E000B1FBF0F000F011FB48B9102C07D200224C
:1004F0002146501E00F052F800206C6070BD0120B3
:1005000070BD0000000000200C000020214808B54C
:10051000816941F001018161816901F0010100916E
:10052000C16941F08051C161C06900F08050009004
:10053000032000F053F8002211466FF00B0000F08A
:100540002DF8002211466FF00A0000F027F8002273
:1005500011466FF0090000F021F800221146501FEB
:1005600000F01CF800221146101F00F017F80022BE
:100570001146901E00F012F800221146501E00F0A5
:100580000DF80548416821F0E06141F000714160DB
:1005900008BD00000010024000000140F0B40E4B06
:1005A0001B680C46C3F30223C3F10705042D00D9D1
:1005B0000425191D072901D2002300E0DB1E0126B6
:1005C00006FA05F1491E214099409E40761E1640CC
:1005D0003143F0BC00F0D0BA0CED00E0064900F069
:1005E000070208684FF6FF03184040EA0220034A5A
:1005F00010430860704700000CED00E00000FA05B1
:100600002DE9F047DFF83C8105460E46D8F800009A
:1006100000F00700B0420CD2D8F8001021F007011A
:100620003143C8F80010D8F8000000F00700B042CD
:1006300063D12878444C800705D56068A96820F00C
:10064000F000084360602878C00745D0686801283A
:1006500016D02168022816D0890700294DDA616872
:1006600021F0030101436160FFF74EFE6968074610
:1006700041F2883001290FD00229814619D027E0A4
:1006800021688903E9E78901E7E700BFFFF73CFE3E
:10069000C11B494501D918E081466068C0F381005B
:1006A0000128F3D118E000BFFFF72EFEC11B49451A
:1006B0000BD86068C0F381000228F5D10CE000BFC0
:1006C000FFF722FEC11B494502D90320BDE8F08790
:1006D000606810F00C0FF3D1D8F80010404601F01C
:1006E0000701B1420BD9016821F0070131430160D4
:1006F000006800F00700B04201D00120E6E728784A
:10070000400705D56068E96820F4E0600843606050
:100710002878000706D56068296920F4605040EA0F
:10072000C100606000F02CF86168084AC1F3031151
:10073000515CC840064908600020FFF7C7FE002052
:10074000C4E700000020024000100240D40C000862
:100750000C00002001480068704700000C000020D9
:100760000448054900684968044AC1F30221515C04
:10077000C84070470C00002000100240E40C000844
:1007800012A185B00FC98DE80F0014A0144A0068AB
:1007900004905168134801F00C03042B10D0082B6F
:1007A0000ED1C1F38343C9031DF803000AD5516874
:1007B00004AAC1F34041515C0A4A5043B0FBF1F036
:1007C00005B0704708494843FAE7000002030405F2
:1007D000060708090A0B0C0D0E0F1010010200008D
:1007E0000010024000127A0000093D002DE9F84F88
:1007F00004460078B94DC00748D06868C0F381004E
:10080000012807D06868C0F38100022809D1686810
:10081000C00306D52868800338D5606800286FD0EB
:1008200034E06068B0F5803F0BD010B1B0F5A02F78
:1008300011D0286820F480302860286820F48020B7
:1008400002E0286840F480302860606888B1FFF7D3
:100850005BFD064609E0286840F480202860F0E748
:10086000FFF752FD801B642875D828688003F7D5F0
:100870000CE0FFF749FD064605E000BFFFF744FD29
:10088000801B6428F0D828688003F7D42078944E21
:1008900080074FF001094FF000083BD5686810F061
:1008A0000C0F07D06868C0F38100022809D168687E
:1008B000C00306D42868800714D5206901281FD1F9
:1008C00010E02069B0B1C6F80090FFF71DFD0746A3
:1008D00005E000BFFFF718FDC01B0228C4D8286838
:1008E0008007F7D52868616920F0F80040EAC10068
:1008F00028600FE0C6F80080FFF706FD074606E017
:10090000E9E000BFFFF700FDC01B022823D82868DC
:100910008007F7D4207800072CD57248A169D9B197
:10092000C0F80090FFF7F0FC074604E0FFF7ECFC8E
:10093000C01B02280FD8686A8007F7D56A484FF4B1
:10094000FA510068B0FBF1F0009000BF0098411E22
:100950000091FAD20EE080E0C0F80080FFF7D4FCEE
:10096000074604E0FFF7D0FCC01B022875D8686A70
:100970008007F7D42078400760D5E8690027C000D9
:1009800008D4E86940F08050E861E869012700F088
:100990008050009055480168C90513D4016883460A
:1009A00041F480710160FFF7AFFC824606E000BFB2
:1009B000FFF7AAFCA0EB0A0064284ED8DBF8000081
:1009C000C005F5D5E06801280AD008B1052813D084
:1009D000286A20F001002862286A20F0040002E062
:1009E000286A40F001002862E06841F2883B98B133
:1009F000FFF78AFC82460BE0286A40F00400286278
:100A0000EEE700BFFFF780FCA0EB0A0159455AD87A
:100A1000286A8007F6D50CE0FFF776FC824605E0F1
:100A2000FFF772FCA0EB0A0159454CD8286A8007F1
:100A3000F6D41FB1E86920F08050E861E06988B31E
:100A40006968C1F38101022945D00228C6F8608097
:100A500004D0FFF759FC044638E034E0FFF754FCBB
:100A6000074604E0FFF750FCC01B02282BD828687B
:100A70008001F7D4206AB0F5803F05D16868A1688D
:100A800020F4003008436860D4E90801084369682D
:100A900021F4741108436860C6F86090FFF734FCD5
:100AA000044606E015E000BFFFF72EFC001B0228FD
:100AB00009D828688001F7D50BE000BFFFF724FCB8
:100AC000001B022802D90320BDE8F88F28688001A6
:100AD000F4D40020F8E70120F6E7000000100240FF
:100AE00000004242800442420C000020007000409E
:100AF0004FF0E0210428086903D020F004000861C9
:100B0000704740F00400FAE7704710B5401EB0F19E
:100B1000807F01D3012010BD4FF0E02460610F21E0
:100B2000601700F029F80020A06107202061002054
:100B300010BD10B5FFF7E8FF10BDFEE70B4810B57C
:100B4000094901600A49416000214FF480428160F7
:100B5000C0E9031241618161C1610162FFF7DAFB03
:100B6000002800D0FEE710BD005800401000002013
:100B7000A0860100FEE770470907090E002806DA83
:100B800000F00F0000F1E02080F8141D704700F124
:100B9000E02080F8001470477047704710B5FFF7E9
:100BA0007BFCBDE81040FFF7C4BF30B58FB001211A
:100BB0000804CDE900100024029402250491CDE937
:100BC00007504FF4E01009906846FFF70FFE00B1A0
:100BD000FEE70F20CDE90A054FF48060CDE90C4017
:100BE00002210AA80E94FFF70BFD00B1FEE7FFF704
:100BF000B1FD4FF47A71B0FBF1F0FFF786FF0420EE
:100C0000FFF776FF00221146501EFFF7C7FC0FB01A
:100C100030BD00000D48016841F0010101604168EC
:100C20000B4A1140416001680A4A114001600168A5
:100C300021F480210160416821F4FE0141604FF4FC
:100C40001F0181600449C003086070470010024022
:100C50000000FFF8FFFFF6FE08ED00E0FEE702E00F
:100C600008C8121F08C1002AFAD170477047002037
:100C700001E001C1121F002AFBD1704708B5FFF740
:100C800013FCFFF792FF1248816941F01001816166
:100C9000816901F010010091816941F020018161B9
:100CA000816901F020010091816941F008018161B1
:100CB000816901F008010091816941F004018161BD
:100CC000806900F004000090FFF738FFFEE70000A5
:100CD00000100240000000000000000001020304B8
:100CE0000607080900000000010203040C0D0008BB
:100CF00000000020100000005E0C00081C0D000821
:100D000010000020580400006E0C000801000000D4
:0C0D1000100000000000000000A24A04D7
:04000005080000ED02
:00000001FF
