:020000040800F2
:10000000500D0020A5010008AD010008AF01000857
:10001000B1010008B3010008B501000800000000AC
:10002000000000000000000000000000B701000810
:10003000B901000800000000BB0100088D5D000848
:10004000BF010008BF010008BF010008BF01000890
:10005000BF010008BF010008BD530008E5530008B8
:100060000D540008355400085D540008BF01000815
:10007000BF010008BF010008BF010008BF01000860
:10008000BF010008BF010008BF010008BF01000850
:10009000BF010008BF010008BF010008855100082A
:1000A000BF010008BF010008BF010008BF01000830
:1000B000BF010008BF010008BF010008BF01000820
:1000C000BF010008BF010008BF010008BF01000810
:1000D000BF010008BF010008BF010008BF01000800
:1000E00081520008BF010008BF01000800F002F8BB
:1000F00000F047F80AA090E8000C82448344AAF17B
:100100000107DA4501D100F03CF8AFF2090EBAE878
:100110000F0013F0010F18BFFB1A43F0010318473B
:10012000B8B70000D8B70000103A24BF78C878C12B
:10013000FAD8520724BF30C830C144BF04680C60ED
:10014000704700000023002400250026103A28BF35
:1001500078C1FBD8520728BF30C148BF0B60704739
:100160001FB59DE8030000F075F900F019F88DE85F
:100170000F0006F03DF81FBD10B5002000F0A0F9FB
:1001800010BD00F0C5FA1146FFF7EAFF00F024FCAD
:1001900000F013FB03B4FFF7EFFF03BC00F030F9EE
:1001A00000F00ABA0948804709480047FEE7FEE721
:1001B000FEE7FEE7FEE7FEE7FEE7FEE7FEE7FEE717
:1001C00004480549054A064B70470000650A0008C7
:1001D000ED00000850070020500D002050090020BD
:1001E000500900200B460146184600F0CAB8704777
:1001F00070477047704770B5064600F007F905680C
:1002000006F10B0020F00704B4429CBF002070BD33
:100210002B466A68BAB11068A04210D304F10801F5
:1002200088423CBF5068586007D35168101941603C
:100230001168091B016058601460101D70BD1346E1
:100240005268002AE7D12146284600F0EFF800283E
:10025000DED170BD70B50446051F00F0D7F8006808
:10026000002C14BF446870BD002C18BFAC423CBFCA
:1002700020466468F8D301680A18AA4218BF45608E
:1002800003D12A6805461144016028684119A1423A
:100290001CBF6C6070BD616869602168084428609B
:1002A00070BD2DE9F04791460C46804600F0AEF84F
:1002B0000768604234EA000001D1042C02D2052014
:1002C000BDE8F087601E40F0070609F10B0020F042
:1002D00007054D459CBF0020BDE8F0873B467A6886
:1002E00082B31468101D404206EA000C644525D90B
:1002F000A4EB0C00854221D8BCF1000F0BD01046B6
:1003000001686244A1EB0C01116041685160C0F8C2
:1003100000C058600346116805F10800814205D30A
:100320005019491B016015605860034652F8040FCC
:1003300058600020C8F80020BDE8F08713465268D6
:10034000002ACED12946384600F070F80028C5D1E1
:100350000620BDE8F08710B500F060F8006810BD19
:1003600010B5044600F05AF8046010BD10B5002026
:1003700000F0C7F8FFF700FFBDE81040012000F0D3
:100380003FB82DE9F041074615460E461020FFF70D
:1003900032FF04000AD06760C4E9026500F03AF851
:1003A0000168216004600020BDE8F0810120FBE7C6
:1003B0004FF0000200B5134694469646203922BFFE
:1003C000A0E80C50A0E80C50B1F12001BFF4F7AF49
:1003D000090728BFA0E80C5048BF0CC05DF804EB2B
:1003E000890028BF40F8042B08BF704748BF20F899
:1003F000022B11F0804F18BF00F8012B704700004E
:1004000001491820ABBEFEE72600020000487047F5
:10041000280000200048704758000020004870471E
:1004200020000020704770477047704738B5044679
:100430000A4600206946AFF30080002808BF38BD97
:1004400002460099204600F09EF9012038BD0120A7
:1004500000F0DAB9F8B5AFF30080054600200C468D
:10046000102000BF0646A819A0420DD932466946A1
:100470000020AFF30080070008BF00F0C5F9009826
:10048000A04218BF0546C419FFF7C0FF0560074624
:10049000F01D20F007004619284600F00AF8B44283
:1004A00008BFF8BDA21B31463868BDE8F84000F02F
:1004B0006AB900210160C0E901107047102070473F
:1004C0002DE9F0410646FFF7A5FF8046454613E0BB
:1004D00016B1E068B0420ED120682860D4E901016D
:1004E000D8F8007088472046FFF7B4FED8F800001F
:1004F000B842EBD100E025462C68002CE8D1BDE8DD
:10050000F08110B500F068F9BDE8104000F05EB968
:1005100010B5203AC0F00B80B1E81850A0E8185090
:10052000B1E81850A0E81850203ABFF4F5AF5FEAE0
:10053000027C24BFB1E81850A0E8185044BF18C985
:1005400018C0BDE810405FEA827C24BF51F8043B2C
:1005500040F8043B08BF7047D20728BF31F8023B80
:1005600048BF11F8012B28BF20F8023B48BF00F814
:10057000012B70474FF000020429C0F0128010F0E8
:10058000030C3FF417AFCCF1040CBCF1020F18BF01
:1005900000F8012BA8BF20F8022BA1EB0C01FFF7FC
:1005A00009BF5FEAC17C24BF00F8012B00F8012BD2
:1005B00048BF00F8012B70472DE9FE4F00274FF48C
:1005C0008074BA4620468DF80070FFF714FE5FEA8B
:1005D000000801D100F018F92146404600F087F8E4
:1005E000060009D04FF0010B4546C14616F8014BF5
:1005F0008FB15C2C16D01CE008F108004146C8F809
:1006000000000020C8F80400D8F800402070012045
:1006100003B0BDE8F08F222C01D0272C0FD1274644
:10062000BA462CE03078222807D05C2805D027284D
:1006300003D0BC4203D1002721E0761C04464CB114
:100640002FB9202C06D0A4F10900042802D905F8FE
:10065000014BCBE74D4502D1BAF1000F0FD0524606
:100660004946002005F8010B6846AFF300809DF86D
:10067000000068B14D464FF0000A0BF1010B002C51
:10068000B4D14FEA8B00FFF7B6FD040002D004E0BE
:10069000A946F0E7002000F0B7F800264046C4F86D
:1006A000008005E010F8011B11B9761C44F8260003
:1006B000A842F7D32146002044F826003046A7E799
:1006C00080E8FF1FC0F834D0C0F838E0C0F83CE044
:1006D0004FF00000704700BF80EC200B704700BF58
:1006E00080EC200B704700BFC0EC200B70471CB59E
:1006F0000446CDE9000169461520ABBE08B10020D3
:100700001CBD20461CBD0000004870472000002092
:100710007546FFF7F9FFAE4605006946534620F0DF
:100720000700854618B020B5FFF74AFDBDE8204018
:100730004FF000064FF000074FF000084FF0000B9D
:10074000AC46ACE8C009ACE8C009ACE8C009ACE80C
:10075000C00921F007018D4670477047704770B59A
:10076000A0FB0140B4F1805170F1000024BF0020D3
:1007700070BD2046FFF73FFD05001CBF2146FFF777
:10078000F9FE284670BD034640688C46002818BF15
:1007900088423CBF03464068F8D318681844884232
:1007A00007D00CF1030020F00700001D411A521A77
:1007B0000146081D0A60FFF74DBD10B50446AFF3B2
:1007C00000802046BDE81040FFF7E4BC002801D0BF
:1007D000FFF716BE7047000010B5002102A000F020
:1007E000B2F8012010BD0000534947414252543A2B
:1007F0002041626E6F726D616C207465726D696EFE
:100800006174696F6E00000010B500F0B5F8BDE8C6
:100810001040FFF7DBBF032A40F2308010F0030CDA
:1008200000F0158011F8013BBCF1020F624498BF43
:1008300011F801CB00F8013B38BF11F8013BA2F1E0
:10084000040298BF00F801CB38BF00F8013B11F05B
:1008500003033FF45DAE083AC0F0088051F8043B52
:10086000083A51F804CBA0E80810F5E7121D5CBF68
:1008700051F8043B40F8043BAFF30080D20724BF9B
:1008800011F8013B11F801CB48BF11F8012B24BF2F
:1008900000F8013B00F801CB48BF00F8012B70477E
:1008A0004FF0013C50F8042B51F8043B9A4221D1FF
:1008B000A2EB0C03934313EACC1317D150F8042B8B
:1008C00051F8043B9A4215D1A2EB0C03934313EA6F
:1008D000CC130BD150F8042B51F8043B9A4209D1A8
:1008E000A2EB0C03934313EACC13DBD04FF00000D0
:1008F000704700BFD01A01BAB1FA81F101F01801B6
:1009000022FA01F0CB40DBB2C0B2C01AC1F1200123
:100910002CFA01F3D11A914311EAC311E6D17047C1
:1009200086469EE8FF1FDEF834D0DEF83CE07047D4
:1009300090EC200B704700BF90EC200B704700BF7D
:10094000D0EC200B704770B505460C460A2000E03D
:100950006D1C00F039F835B128780028F8D102E094
:10096000641C00F031F814B120780028F8D1BDE8FB
:1009700070400A2000F028B810B5012805D00021E9
:1009800003A0FFF7E0FF012010BD09A1F8E7000078
:1009900053494752544D454D3A204F7574206F6668
:1009A0002068656170206D656D6F727900000000D0
:1009B0003A2048656170206D656D6F727920636FB4
:1009C000727275707465640008B569468DF8000030
:1009D0000320ABBE08BD000080B582B000200190AE
:1009E00000F008F805F0DEF901F036FAFFE701F053
:1009F000C9FBFCE780B500F0C3FA00F0EBFAFFE7B3
:100A0000312000F015FB08B9FFE7F9E742F20000DA
:100A1000C4F202000221016000F098FB00F0C4FB68
:100A200000F0AAFB00F048FB00F064FBFFE7392070
:100A300000F0FEFA08B9FFE7F9E700F067FBFFE70F
:100A400000F07CFB082801D0FFE7F9E70120012135
:100A500000F098FC00F05EFD00F0EEFC00F070FD90
:100A600080BD00BF80B541F20000C4F20200016801
:100A700041F00101016041F20401C4F202010A687F
:100A80000023CFF6FF031A400A6002684FF6FF7397
:100A9000CFF6F6631A400260026822F480220260F8
:100AA000086820F4FE00086041F20800C4F2020069
:100AB0004FF41F01016000F009F84EF60850CEF225
:100AC00000004FF00061016080BD00BF80B500F004
:100AD00001F880BD82B000200190009041F200003A
:100AE000C4F20200016841F480310160FFE741F285
:100AF0000000C4F20200006800F400300090019889
:100B000001300190FFE70099002041B9FFE701990A
:100B1000A1F5A060B1F5A06F18BF0120FFE7C007E5
:100B20000028E4D1FFE741F20000C4F202000068AF
:100B300010F4003F03D0FFE70120009002E0002006
:100B40000090FFE70098012850D1FFE742F2000033
:100B5000C4F20200016841F010010160016821F057
:100B600003010160016841F00201016041F20400EB
:100B7000C4F202000168016001680160016841F48B
:100B800080610160016821F47C110160016841F419
:100B9000E811016041F20000C4F20200016841F076
:100BA00080710160FFE741F20000C4F202000068BA
:100BB00010F0007F01D1FFE7F5E741F20400C4F235
:100BC0000200016821F003010160016841F00201A7
:100BD0000160FFE741F20400C4F20200006800F087
:100BE0000C00082801D0FFE7F4E700E0FFE702B0BF
:100BF000704700BF82B001900020009040F200409A
:100C0000C4F2010000900198807900285BD0FFE7D2
:100C10000198006840F20041C4F201010A6822EA2A
:100C2000000008600198006840F20441C4F201012C
:100C30000A6822EA0000086001980179009A1144CC
:100C40000091006800990A681043086001980068E4
:100C500040F20841C4F201010A6822EA000008607B
:100C60000198006840F20C41C4F201010A6822EACE
:100C70000000086001984079102813D1FFE701981F
:100C8000006840F20841C4F201010A68104308609C
:100C90000198006840F20C41C4F201010A68104357
:100CA00008600FE040F20040C4F20100009001989B
:100CB0004179009A11440091006800990A68104334
:100CC0000860FFE70BE001980179009A1144009158
:100CD000006800990A6822EA00000860FFE702B095
:100CE000704700BF83B0029000208DF8070000908D
:100CF00040F20040C4F201000068029908400090F0
:100D000040F21440C4F2010000680299084207D082
:100D1000FFE7009820B1FFE701208DF8070003E00E
:100D200000208DF80700FFE79DF8070003B070472B
:100D300081B00090009840F21441C4F201010860B3
:100D400001B0704788B0079006910020059004908C
:100D500003900290019000900698C17801F00F0175
:100D60000591C078C006002806D5FFE70698807870
:100D7000059908430590FFE70698007800284DD0B4
:100D8000FFE707980068019000200390FFE70398B1
:100D900007283FD8FFE70398012101FA00F00290ED
:100DA00006980088029908400490049888422CD143
:100DB000FFE703988000029002980F218140009184
:100DC0000099019A22EA01010191059901FA00F0C6
:100DD0000199084301900698C078282807D1FFE7B9
:100DE0000398012101FA00F0079948610CE0069888
:100DF000C078482807D1FFE70398012101FA00F0E5
:100E000007990861FFE7FFE7FFE7FFE70398013075
:100E10000390BCE7019807990860FFE706980088EF
:100E2000B0F5807F4FDBFFE7079840680190002016
:100E30000390FFE70398072841D8FFE7039808309D
:100E4000012101FA00F002900698008802990840FA
:100E50000490049888422DD1FFE703988000029007
:100E600002980F21814000910099019A22EA010124
:100E70000191059901FA00F0019908430190069843
:100E8000C078282808D1FFE703980830012101FA2B
:100E900000F007994861FFE70698C078482808D114
:100EA000FFE703980830012101FA00F00799086173
:100EB000FFE7FFE7FFE7039801300390BAE70198E7
:100EC00007994860FFE708B0704700BF82B0019003
:100ED000ADF8021000208DF801000198C068BDF83F
:100EE0000210084204D0FFE701208DF8010003E062
:100EF00000208DF80100FFE79DF8010002B0704767
:100F000082B00190ADF802108DF801209DF801002B
:100F100028B1FFE7BDF802000199086104E0BDF8BF
:100F2000020001994861FFE702B0704782B08DF876
:100F300007008DF80610002000909DF8060000F0D4
:100F4000030189000F2202FA01F10091009900F0DB
:100F5000FC000822C4F20102835823EA01018150F7
:100F60009DF807009DF8061001F003039B009840D0
:100F700001F0FC018B581843885002B0704700BF45
:100F800041F20000C4F20200016841F00101016079
:100F900041F20401C4F202010A680023CFF6FF0304
:100FA0001A400A6002684FF6FF73CFF6F6631A40E4
:100FB0000260026822F480220260086820F4FE00C9
:100FC000086041F20800C4F202004FF41F01016002
:100FD000704700BF81B04FF48030009041F20000B4
:100FE000C4F20200016821F480310160016821F43B
:100FF000802101600098B0F5803F04D0FFE7B0F594
:10100000802F09D011E041F20000C4F20200016813
:1010100041F48031016009E041F20000C4F20200B5
:10102000016841F4A021016000E0FFE701B07047D2
:1010300084B08DF80F000020029001908DF803001D
:101040009DF80F00400902900298012807D1FFE7A0
:1010500041F20000C4F202000068019012E0029820
:10106000022807D1FFE741F22000C4F20200006825
:10107000019006E041F22400C4F2020000680190F1
:10108000FFE7FFE79DF80F0000F01F0002900198B6
:101090000299012202FA01F1084204D0FFE701207F
:1010A0008DF8030003E000208DF80300FFE79DF8B2
:1010B000030004B0704700BF83B04FF4803002904B
:1010C0004FF4E01001900020009041F20400C4F2BF
:1010D000020001680091009921F47C1100910299AD
:1010E000019A1143009A114300910099016003B0E5
:1010F000704700BF81B001208DF803009DF8030008
:101100006021C4F24221086001B0704782B0022021
:1011100001900020009041F20400C4F20200016836
:101120000091009921F0030100910199009A114367
:1011300000910099016002B0704700BF41F20400C5
:10114000C4F20200006800F00C00704782B000207A
:101150000190009041F20400C4F202000168009185
:10116000009921F0F00100910199009A114300913A
:101170000099016002B0704782B04FF48060019026
:101180000020009041F20400C4F2020001680091C6
:10119000009921F4E06100910199009A11430091B6
:1011A0000099016002B0704782B000200190009069
:1011B00041F20400C4F2020001680091009921F498
:1011C000605100910199009A42EAC1010091009991
:1011D000016002B0704700BF85B00490002003900A
:1011E00002900190009041F20400C4F202000068F5
:1011F00000F00C000390039830B1FFE704280AD0F8
:10120000FFE708280ED047E0049841F20021C0F221
:101210007A01016047E0049841F20021C0F27A01AE
:10122000016040E041F20400C4F20200016801F4F0
:1012300070110291006800F4803001900298022140
:1012400001EB90400290019848B9FFE7029840F600
:101250000011C0F23D014843049908601BE041F2CF
:101260000400C4F20200006810F4003F09D0FFE758
:10127000029840F60011C0F23D014843049908600D
:1012800008E0029841F20021C0F27A014843049933
:101290000860FFE7FFE706E0049841F20021C0F292
:1012A0007A010160FFE741F2040CC4F2020CDCF8A1
:1012B000001001F0F0010391039909090391039AC9
:1012C0004AF66061C0F600018A5C0092049A1368D5
:1012D000009823FA00F05060DCF8000000F4E060B1
:1012E00003900398000A03900398085C0090049808
:1012F0004268009BDA408260DCF8000000F4605035
:1013000003900398C00A03900398085C0090049827
:101310004168009AD140C160DCF8000000F4404010
:1013200003900398800B039003984AF67061C0F60F
:101330000001085C00900498C168009AB1FBF2F1CA
:10134000016105B0704700BF82B001908DF80310B5
:101350009DF8030048B1FFE7019841F21401C4F27F
:1013600002010A681043086009E0019841F2140183
:10137000C4F202010A6822EA00000860FFE702B036
:10138000704700BF82B001908DF803109DF80300F4
:1013900048B1FFE7019841F21801C4F202010A685E
:1013A0001043086009E0019841F21801C4F20201FB
:1013B0000A6822EA00000860FFE702B0704700BF39
:1013C00082B001908DF803109DF8030048B1FFE74B
:1013D000019841F21C01C4F202010A68104308603E
:1013E00009E0019841F21C01C4F202010A6822EAF4
:1013F00000000860FFE702B0704700BF82B00190B4
:101400008DF803109DF8030048B1FFE7019841F201
:101410001001C4F202010A681043086009E0019853
:1014200041F21001C4F202010A6822EA00000860D9
:10143000FFE702B0704700BF81B04FF440700090EA
:1014400000980021C0F2FA5108434EF60C51CEF23A
:101450000001086001B0704784B003900020029042
:1014600001900F2000900398C078E8B3FFE74EF694
:101470000C50CEF20000006800F4E060C0F5E060BF
:10148000000A02900298C0F104010191009921FA2A
:1014900000F0009003984178019A91400291807881
:1014A00000990840029908430290029800010290B6
:1014B0000298039909784EF20042CEF20002885455
:1014C0000398007800F01F01012202FA01F14EF2A8
:1014D0000012CEF2000242EAD0004EF21C12CEF20E
:1014E00000021040016013E00398007800F01F0133
:1014F000012202FA01F14EF28012CEF2000242EA1B
:10150000D0004EF29C12CEF2000210400160FFE7C4
:1015100004B0704782B04FF000600190002000904E
:10152000019800994FF68072C1F6FF72114008438E
:101530004EF60851CEF20001086002B0704700BFBD
:1015400081B0042000900098042809D1FFE74EF2F2
:101550001000CEF20000016841F00401016008E0D3
:101560004EF21000CEF20000016821F0040101608B
:10157000FFE701B0704700BF10B58AB0099008912D
:101580000024ADF81E40ADF81C400420ADF81A0050
:1015900041F20020C0F27A00059009988088ADF8E9
:1015A0001E00BDF81E0020F03F00ADF81E0068468A
:1015B000FFF712FE0298059005984DF68361C4F27C
:1015C0001B31A0FB0101880CADF81C00BDF81C000C
:1015D000BDF81E100843ADF81E00BDF81E000999A5
:1015E00088800998018821F001010180ADF81E4032
:1015F0000898006848F2A061C0F2010188421ED834
:10160000FFE70598089909684900B0FBF1F0ADF8CB
:101610001A00BDF81A00032804DCFFE70420ADF827
:101620001A00FFE7BDF81A00BDF81E100843ADF818
:101630001E00BDF81C0001300999088446E0089896
:10164000C0884BF6FF7188420AD1FFE705980899D8
:10165000096801EB4101B0FBF1F0ADF81A000FE0B1
:1016600005980899096819225143B0FBF1F0ADF8CB
:101670001A00BDF81A0040F48040ADF81A00FFE7E8
:10168000BDF81A00000538B9FFE7BDF81A0040F0B0
:101690000100ADF81A00FFE7BDF81A00BDF81E10F2
:1016A000084340F40040ADF81E00BDF81C004FF4A4
:1016B0009671484344F6D351C1F26201A0FB010187
:1016C000012000EB911009990884FFE7BDF81E0086
:1016D000099988830998018841F0010101800998DE
:1016E0000088ADF81E00BDF81E004FF6F531084029
:1016F000ADF81E000898818840890843BDF81E1087
:101700000843ADF81E00BDF81E000999088008982E
:10171000818900890843099908810AB010BD00BF7A
:1017200082B0019001208DF803009DF8030030B1D4
:10173000FFE70198018841F00101018005E001986F
:10174000018821F001010180FFE702B0704700BF6E
:1017500082B0019001208DF803009DF8030030B1A4
:10176000FFE70198018841F48071018005E001984C
:10177000018821F480710180FFE702B0704700BF4B
:1017800082B0019001208DF803009DF8030030B174
:10179000FFE70198018841F40071018005E001989C
:1017A000018821F400710180FFE702B0704700BF9B
:1017B00082B001908DF803109DF8030030B1FFE76F
:1017C0000198018841F48061018005E00198018859
:1017D00021F480610180FFE702B0704782B0019080
:1017E0008DF803109DF803000199088202B070473C
:1017F00081B000900098008AC0B201B0704700BF6D
:1018000082B001908DF803108DF802209DF802003F
:1018100038B1FFE79DF8030040F001008DF80300A8
:1018200006E09DF8030000F0FE008DF80300FFE7DE
:101830009DF803000199088202B0704782B00190C0
:10184000ADF80210BDF80200B0F5006F06D1FFE759
:101850000198018841F40061018005E00198018848
:1018600021F400610180FFE702B0704786B0059067
:10187000049100200390029001908DF803000598D8
:10188000808A02900598008B0190019800040190D5
:1018900002980199084320F07F400390039804992F
:1018A0000840884204D1FFE701208DF8030003E0DF
:1018B00000208DF80300FFE79DF8030006B0704795
:1018C00085B00490039100208DF80B0001900090EA
:1018D000049800900398010F019120F07F4003903D
:1018E000019820B1FFE700981430009006E0BDF8A1
:1018F0000E000390009818300090FFE700980068F1
:101900000399084204D0FFE701208DF80B0003E0A3
:1019100000208DF80B00FFE79DF80B0005B0704725
:1019200083B0029001910020ADF802000298008877
:10193000ADF80200BDF8020000F44150ADF802001D
:10194000019801884288114389B282881143C28874
:101950001143028911434289114382891143C0898D
:101960000843BDF802100843ADF80200BDF80200BC
:10197000029908800298818B21F40061818301988B
:10198000008A0299088203B0704700BF82B00190BC
:1019900001208DF803009DF8030030B1FFE70198A6
:1019A000018841F04001018005E00198018821F0A3
:1019B00040010180FFE702B0704700BF82B0019094
:1019C000ADF80210BDF802000199888102B070479D
:1019D00081B000900098808901B0704782B001907A
:1019E000ADF8021000208DF8010001980089BDF8C3
:1019F00002100840000420B1FFE701208DF801002B
:101A000003E000208DF80100FFE79DF8010002B01F
:101A1000704700BF80B500F01FF800F037F800F005
:101A20004FF800F06BF800F087F800F09FF800F036
:101A3000B9F800F0D1F800F0E9F800F001F900F091
:101A400027F900F03DF900F04FF900F061F900F0DE
:101A50007BF900F087F980BD10B540F2BC3440F648
:101A600000010422C2F20004C4F20101204601F088
:101A70000BFF41F6396040F200022146C0F600003B
:101A8000C0F60002FEF7AEFB10BD00BF10B540F27D
:101A9000A43441F200014FF40052C2F20004C4F237
:101AA0000101204603F0EEFC41F6496040F20002DD
:101AB0002146C0F60000C0F60002FEF793FB10BD01
:101AC00010B582B040F2103440F600010020082228
:101AD0000823C2F200040090C4F20101204602F083
:101AE00069F841F6296040F200022146C0F6000084
:101AF000C0F60002FEF776FB02B010BD10B582B052
:101B000041F6802040F21814002100220023C0F288
:101B10000600C2F200040090204602F0C3FB44F22B
:101B2000952040F200022146C0F60000C0F60002F7
:101B3000FEF758FB02B010BD10B540F2F82440F299
:101B400018118022C2F20004C2F20001204602F005
:101B5000BFFE44F6C50040F200022146C0F6000078
:101B6000C0F60002FEF73EFB10BD00BF10B582B00C
:101B700040F29C241820002100220023C2F200041D
:101B80000090204604F0B2F841F6196040F20002DD
:101B90002146C0F60000C0F60002FEF723FB02B0AB
:101BA00010BD00BF10B540F2D02440F60041022223
:101BB000C2F20004C4F20101204601F099FF41F68F
:101BC000DD5040F200022146C0F60000C0F60002DF
:101BD000FEF708FB10BD00BF10B540F2BC2440F674
:101BE00000410122C2F20004C4F20101204601F0CA
:101BF0007FFF41F6DD5040F200022146C0F60000B2
:101C0000C0F60002FEF7EEFA10BD00BF10B540F2BC
:101C1000E42440F600414FF48062C2F20004C4F2B2
:101C20000101204601F064FF41F6DD5040F2000260
:101C30002146C0F60000C0F60002FEF7D3FA10BD40
:101C400010B582B040F2E42040F2800440F29C21C2
:101C500040F2BC2240F2D023C2F20000C2F20004E3
:101C6000C2F20001C2F20002C2F20003009020465C
:101C700003F04EFC41F6D15040F200022146C0F67E
:101C80000000C0F60002FEF7ADFA02B010BD00BFC2
:101C900010B540F2900440F28001C2F20004C2F29A
:101CA0000001204604F0F8F941F6C55040F2000268
:101CB0002146C0F60000C0F60002FEF793FA10BD00
:101CC00010B540F2B414C2F20004204600F0B0FD9A
:101CD00042F6050040F200022146C0F60000C0F6C0
:101CE0000002FEF77FFA10BD10B540F25C14C2F29C
:101CF0000004204603F07EFE45F6E91040F20002A3
:101D00002146C0F60000C0F60002FEF76BFA10BDD7
:101D100010B582B040F2F4044FF47A700021002232
:101D20000023C2F200040090204604F0DBF841F6E4
:101D3000B95040F200022146C0F60000C0F6000291
:101D4000FEF750FA02B010BD80B540F2081040F224
:101D50001811D022C2F20000C2F2000100F082FE8F
:101D600080BD00BF80B500F00FF841F6AD5040F2E5
:101D7000001140F20002C0F60000C2F20001C0F6FD
:101D80000002FEF72FFA80BD82B040F20010C2F2CE
:101D90000000019040F20810C2F20000009001988B
:101DA0000021C1700099416002B0704781B000907D
:101DB000009801B0704700BF81B00090009801B05A
:101DC000704700BF81B00090009801B0704700BF1D
:101DD00081B00090009801B0704700BF80B582B01C
:101DE0000190019800F002F802B080BD80B582B089
:101DF0000190019800F002F802B080BD80B582B079
:101E00000190019800F002F802B080BD81B000900E
:101E1000009801B0704700BF80B582B00190019872
:101E2000FFF7ECFF02B080BD80B582B00190019851
:101E300000F002F802B080BD80B582B00190019838
:101E4000FFF7D4FF02B080BD80B582B00190019849
:101E5000FFF7C4FF02B080BD80B588B008200090B5
:101E600041F61573C0F6000303A840F60001C4F262
:101E70000101022201F080FD01F0FAFAFFE740F2D1
:101E8000BC30C2F2000001F0F3FAFFE740F210307C
:101E9000C2F2000001F084FEFFE741F62571C0F6B2
:101EA0000001032002F06EF8FFE741F63571C0F63D
:101EB0000001052002F066F8FFE741F64571C0F623
:101EC0000001062002F05EF8FFE740F21810C2F2AF
:101ED000000002F031F9FFE702F004FEFFE704F032
:101EE000E3F8FFE700F036F8FFE700F05FF8FFE700
:101EF00001F0A6FAFFE703A8FFF79EFF08B080BD38
:101F00000290019103A8FFF797FFFFE7029804F002
:101F1000DEF900BF40F2E030C2F20000016801319A
:101F20000160704740F20000C2F200000021017021
:101F3000704700BF40F20000C2F2000001210170B2
:101F4000704700BF40F20000C2F2000002210170A1
:101F5000704700BF80B582B000208DF8070003F005
:101F60005DFD00F05BF842F24901C0F6000142F26B
:101F70005502C0F60002002000F08CFC42F269011C
:101F8000C0F600010120002200F084FC40F25C1049
:101F9000C2F2000000F098F840F2B410C2F2000063
:101FA00000F092F88DF8070002B080BD80B584B0D3
:101FB00040F2D030C2F200000078BFF35F8F10F023
:101FC000010F29D1FFE740F2D030C2F2000006F045
:101FD0006AFB08B3FFE70020009040F2D430C2F261
:101FE000000000210022052303F07CFFFFE741F6FB
:101FF000B950C0F6000040F2D431C2F2000140F204
:102000000002C0F60002FEF7EDF840F2D030C2F256
:10201000000001210160FFE704B080BD80B582B0FF
:1020200040F2B410C2F2000001904BF27C70C0F696
:102030000000009001985C3000F09EF80099542256
:10204000FEF7E9FB02B080BD80B5002000F082F809
:1020500080BD00BF80B500F071F8C82003F008FF14
:1020600000F06CF880BD00BF80B582B040F2E42083
:10207000C2F2000001F054FD00F046F888B1FFE71D
:1020800000F050F801460320009040F2B410C2F274
:1020900000004BF2DB73C0F600030B2200F00CFBD8
:1020A00010E000F03FF801460320009040F2B41029
:1020B000C2F200004BF2E373C0F600030B2200F003
:1020C000FBFAFFE702B080BD82B040F29001C2F29D
:1020D0000001019100900199DDF800C091F82820DD
:1020E0004CF6CD43CCF6CC43A2FB0330C00800EB4A
:1020F0008000A2EB400041F820C091F82800421C6B
:1021000081F8282002B0704780B582B040F2E42008
:10211000C2F200000190019988688989FEF7D6FE15
:1021200002B080BD81B040F2B410C2F20000009055
:10213000009890F8E40001B0704700BF80B582B00D
:1021400040F2A430C2F200000190019801F0E8FCD6
:1021500002B080BD81B08DF8030040F23050C2F271
:102160000000017840F23152C2F2000211709DF875
:102170000310017001B0704781B0009000980430E6
:1021800001B070472DE9F04782B001F0A5FD03F0E2
:10219000B3FF00F0C3F802F0AFFB01F03DF80346D7
:1021A0004FF00309CDF8009040F25C14C2F2000435
:1021B00020460021002203F0AFFB012700974BF2DD
:1021C000DF73C0F6000320460021032203F0A4FBC6
:1021D00000F018FD4FF0020ACDF800A040F20A0509
:1021E000C2F200054FF004082046002104222B46CD
:1021F00003F092FB00974BF2E176C0F60006204612
:1022000000210622334603F087FB01F063F8034602
:10221000CDF800904FF0070920460021072203F077
:102220007BFB0097204600210A22334603F074FB13
:1022300000F0E8FCCDF800A005F1080320460021DD
:102240000B2203F069FB01F0D3F840F2C005C2F2A3
:10225000000505262946052200F06CF80096204668
:10226000012104222B4603F057FB00F009FC4FF03C
:10227000080ACDF800A040F20103C2F20003204694
:102280000221042203F048FB40F2E437C2F20007C7
:10229000386840F2E806C2F200063146062200F035
:1022A00049F878682946062200F044F8CDF8008005
:1022B0004BF2D673C0F6000320460321002203F040
:1022C0002BFBCDF80090204603210422334603F077
:1022D00023FBCDF800804BF2D173C0F600032046FB
:1022E0000421002203F018FBCDF8009020460421C1
:1022F00004222B4603F010FB03F076FE01F0B8FE3B
:1023000001F06CFE0346CDF800A020460521002216
:1023100003F002FB02B0BDE8F08700BF80B582B0D9
:1023200040F29000C2F200000190019803F014FF07
:1023300002B080BDB0B58AB0069005910492069CAB
:10234000204608F035F90390039D284608F04CF923
:102350000146204608F0A8FA029005992846002276
:1023600000F034F80190049870B3FFE705980199E4
:102370002E224254029807F061FF04460D4604984D
:10238000002108910021C4F22401099107900798C7
:1023900007F0F0FB02460B460898099906F092FCFC
:1023A00002460B462046294607F038FC07F09CF908
:1023B0000290029808F0FCF80599019A1144013145
:1023C000049A00F003F8FFE70AB0B0BD80B584B00E
:1023D00003900291019200200090FFE70398E0B182
:1023E000FFE7039846F2676CC6F2666C80FB0C232D
:1023F0009A0802EBD37202EB8202A0EB420030306B
:10240000029A009B591C0091D054039880FB0C0148
:10241000881000EBD1700390E0E7FFE70098019986
:10242000884207DAFFE7029800994A1C009230229E
:102430004254F3E70298009900F008F802980099D6
:1024400000224254009804B080BD00BF85B00490C3
:10245000039100200290039801380190FFE7029851
:102460000199884212DAFFE704980299425C0092CF
:10247000019A825C425400980499019A8854029807
:1024800001300290019801380190E8E705B07047EB
:1024900040F2F030C2F20000006850B9FFE740F2AD
:1024A000F030C2F2000040F2F431C2F200010160EB
:1024B000FFE7704710B582B08DF8070000208DF857
:1024C00006009DF80700002810DBFFE79DF80700D5
:1024D00015280BDCFFE79DF80700012404FA00F043
:1024E0000121FEF74FFF8DF8064035E09DF807000B
:1024F000162815DBFFE79DF80700342810DCFFE7FE
:102500009DF8070016388DF805009DF80500012498
:1025100004FA00F00121FEF753FF8DF806401AE09F
:102520009DF80700352814DBFFE79DF807003B28DE
:102530000FDCFFE79DF80700A0F135018DF80510CD
:10254000012404FA00F00121FEF7FEFE8DF806409A
:1025500000E0FFE7FFE7FFE79DF8060000F001005D
:1025600002B010BD10B582B08DF8070000208DF8C4
:1025700006009DF80700002810DBFFE79DF8070024
:1025800015280BDCFFE79DF80700012404FA00F092
:102590000021FEF7F7FE8DF8064035E09DF80700B4
:1025A000162815DBFFE79DF80700342810DCFFE74D
:1025B0009DF8070016388DF805009DF805000124E8
:1025C00004FA00F00021FEF7FBFE8DF806401AE049
:1025D0009DF80700352814DBFFE79DF807003B282E
:1025E0000FDCFFE79DF80700A0F135018DF805101D
:1025F000012404FA00F00021FEF7A6FE8DF8064043
:1026000000E0FFE7FFE7FFE79DF8060000F00100AC
:1026100002B010BD80B582B00190019800F0F2F8D0
:1026200005F0EBFD02B080BD80B582B001908DF861
:10263000031001989DF8031019B9FFE700F090F816
:102640002EE09DF80310012911D1FFE790F8E41066
:1026500000EBC101D1F8B41041B1FFE790F8E410EC
:1026600000EBC100D0F8B4008047FFE717E09DF809
:102670000310022911D1FFE790F8E41000EBC1012B
:10268000D1F8B81041B1FFE790F8E41000EBC100B9
:10269000D0F8B8008047FFE700E0FFE7FFE7FFE77B
:1026A00002B080BD80B582B0019001985C30FFF728
:1026B00063FD02B080BD00BFB0B584B0089C03903C
:1026C0008DF80B108DF80A2001938DF80340039CC0
:1026D0009DF80B004AF6AB21CAF6AA21A0FB011215
:1026E000910801EB4101A0EB41008DF80B009DF832
:1026F0000A00410842F29342C9F24922A1FB0212A8
:102700009108C900A1EB9201A0EB41008DF80A00ED
:1027100000208DF80200FFE79DF802009DF80310ED
:1027200088421BDAFFE701989DF80210455C04F12E
:102730005C00FFF721FD9DF80B10C1EBC1019DF876
:102740000A2002EB41019DF8022011444554FFE7A5
:102750009DF8020001308DF80200DDE704B0B0BD45
:1027600010B584B0039001228DF80B20039C04F176
:102770005C0004F1590394F8E4100092002203F085
:10278000CBF894F8E40040B9FFE79DF80B0020B9BE
:10279000FFE7052084F8E40026E094F8E40005282B
:1027A00009D1FFE79DF80B00012804D1FFE70020C5
:1027B00084F8E40017E09DF80B00012806D1FFE73C
:1027C00094F8E400013084F8E4000BE09DF80B007D
:1027D00030B9FFE794F8E400013884F8E40000E041
:1027E000FFE7FFE7FFE7FFE704F15C0004F15803B0
:1027F00094F8E41001220092002203F08DF804B056
:1028000010BD00BF10B582B00190019C4AF6746003
:10281000C0F6000000F10801204640F85C1B03F000
:10282000E3F8204603F0E0F8204602B010BD00BFF8
:1028300010B586B00490049C0594204603F0DAF8A5
:102840004AF67460C0F6000000F10801204640F826
:102850005C1B03F0CFF8FFE7002084F8E4003E2182
:1028600084F85810202184F859100190FFE701984E
:102870000B280BDCFFE7019804EB80000021C0F877
:10288000B410FFE7019801300190F0E7059806B019
:1028900010BD00BF80B584B040F2B413C2F2000393
:1028A00003938DF80B00019100920398DDF804E08A
:1028B000B4309DF80B204AF6AB2CCAF6AA2CA2FB2A
:1028C0000C31890801EB4101A2EB410140F831E0F4
:1028D0009DF80B10A1FB0C239A0802EB4202A1EB1E
:1028E000420100EBC1000099416004B080BD00BF0F
:1028F00081B00090009840F2E271C1800121017125
:102900001421C17000210170417081700521017294
:1029100001B0704780B584B003900399684600F019
:1029200005F89DF8020004B080BD00BFB0B582B0CC
:1029300004460191019D2046FFF7DAFF284600F08A
:1029400025F8A978284600F037F8A070E9782846DD
:1029500000F032F860702979284600F047F82070BE
:1029600068792072A979284600F026F8E070E979A4
:10297000284600F021F82071297A284600F05EF8F8
:1029800000F5FA60E08002B0B0BD00BF10B582B0C3
:102990000190019C00208DF80100E068617A0DF142
:1029A0000102012301F0AAFDE068A21C617A07235D
:1029B00001F0E0FD02B010BD82B001908DF803106F
:1029C0009DF8030000F07F008DF802009DF80200E2
:1029D00000F00F01000900EB800001EB40008DF8D2
:1029E00002009DF8020002B0704700BF82B0019063
:1029F0008DF803109DF80300000600280DD5FFE7B1
:102A00009DF8030000F00F01C0F3401000EB400000
:102A100001EB80008DF803000CE09DF8030000F04E
:102A20000F01C0F3011000EB800001EB40008DF8B6
:102A30000300FFE79DF8030002B0704782B00190E9
:102A40008DF803109DF8030000F00F01000900EB62
:102A5000800001EB40008DF802009DF8020002B0FA
:102A6000704700BF83B0029001918DF80320029857
:102A70000199C1609DF80310417203B0704700BF17
:102A800010B588B040F20810C2F200000790022092
:102A90008DF81B00079C04A8FFF72AFF01A8214618
:102AA000FFF744FF0198029904909DF80C008DF8FF
:102AB000180005919DF81000092807DCFFE740F297
:102AC0000100C2F200003021017010E09DF81000FA
:102AD0004CF6CD41CCF6CC41A0FB0101302000EBFF
:102AE000D10040F20101C2F200010870FFE79DF839
:102AF00010009DF811104CF6CD42CCF6CC42A0FB54
:102B00000223DA0802EB8202A0EB420040F0300020
:102B100040F20102C2F2000250703A20907009297E
:102B200007DCFFE740F20100C2F200003021C17073
:102B300010E09DF811004CF6CD41CCF6CC41A0FB45
:102B40000101302000EBD10040F20101C2F200018E
:102B5000C870FFE79DF811004CF6CD41CCF6CC4192
:102B6000A0FB0112D10801EB8101A0EB410040F074
:102B7000300040F20101C2F2000108713A204871B0
:102B80009DF81B00012807D1FFE740F20100C2F2C7
:102B900000000021417133E09DF81200092807DC94
:102BA000FFE740F20100C2F200003021817110E025
:102BB0009DF812004CF6CD41CCF6CC41A0FB0101B2
:102BC000302000EBD10040F20101C2F20001887117
:102BD000FFE79DF812004CF6CD41CCF6CC41A0FBAE
:102BE0000112D10801EB8101A0EB410040F030005F
:102BF00040F20101C2F20001C87100200872FFE733
:102C000008B010BD10B58AB040F20810C2F2000042
:102C1000099002208DF8230001208DF822002D203C
:102C20008DF82100099C03A8FFF762FE6846214643
:102C3000FFF77CFE9DF808008DF8140000980199BC
:102C4000049103909DF82200012808D0FFE7022894
:102C500000F0EF80FFE7032800F0F181D9E29DF852
:102C60000F00092807DCFFE740F20A00C2F200006B
:102C70003021017010E09DF80F004CF6CD41CCF6EC
:102C8000CC41A0FB0101302000EBD10040F20A0151
:102C9000C2F200010870FFE79DF80F009DF81010C8
:102CA0004CF6CD42CCF6CC42A0FB0223DA0802EB74
:102CB0008202A0EB420040F0300040F20A02C2F271
:102CC000000250709DF821009070092907DCFFE791
:102CD00040F20A00C2F200003021C17010E09DF8FD
:102CE00010004CF6CD41CCF6CC41A0FB01013020C8
:102CF00000EBD10040F20A01C2F20001C870FFE708
:102D00009DF810004CF6CD41CCF6CC41A0FB011251
:102D1000D10801EB8101A0EB410040F0300040F20E
:102D20000A01C2F2000108719DF8210048719DF866
:102D30002300012838D1FFE7BDF81200A0F5FA60A2
:102D400007900798092807DCFFE740F20A00C2F263
:102D500000003021817110E0079846F26761C6F2E9
:102D6000666180FB0101880800EBD170303040F2D1
:102D70000A01C2F200018871FFE7079846F2676115
:102D8000C6F2666180FB0112911001EBD27101EB7A
:102D90008101A0EB4100303040F20A01C2F2000193
:102DA000C8710020087243E0BDF812000790079830
:102DB00044F6D351C1F2620180FB0112911101EB83
:102DC000D27202F1300340F20A01C2F200018B71AB
:102DD0004FF47A7302FB130248F21F53C5F2EB1350
:102DE00082FB0324620902EBD4723032CA7180FB89
:102DF00003235A1102EBD372642302FB130246F23F
:102E00006763C6F2666382FB0324A20802EBD472F6
:102E100030320A7280FB03239A0802EBD37202EB72
:102E20008202A0EB42003030487200208872FFE737
:102E3000EFE19DF82300012803D1FFE70020069071
:102E400002E002200690FFE79DF82300012839D117
:102E5000FFE7BDF81200A0F5FA600790079809286F
:102E600007DCFFE740F20A00C2F2000030210170E7
:102E700010E0079846F26761C6F2666180FB0101C7
:102E8000880800EBD170303040F20A01C2F2000134
:102E90000870FFE7079846F26761C6F2666180FB3B
:102EA0000112911001EBD27101EB8101A0EB410005
:102EB000303040F20A01C2F2000148709DF8210052
:102EC000887044E0BDF812000790079844F6D3518B
:102ED000C1F2620180FB0112911101EBD27202F189
:102EE000300340F20A01C2F200010B704FF47A7312
:102EF00002FB130248F21F53C5F2EB1382FB0324BB
:102F0000620902EBD47230324A7080FB03235A11FB
:102F100002EBD372642302FB130246F26763C6F22C
:102F2000666382FB0324A20802EBD47230328A70FB
:102F300080FB03239A0802EBD37202EB8202A0EB20
:102F400042003030C8709DF821000871FFE79DF8FD
:102F50001000092809DCFFE7069840F20A01C2F2D6
:102F6000000108443021C17012E09DF810004CF6B9
:102F7000CD41CCF6CC41A0FB0101302000EBD100CB
:102F8000069940F20A02C2F200021144C870FFE73B
:102F90009DF810004CF6CD41CCF6CC41A0FB0112BF
:102FA000D10801EB8101A0EB410040F0300006990F
:102FB00040F20A02C2F2000211440871069810445D
:102FC0009DF8211041719DF80F00092809DCFFE7E9
:102FD000069840F20A01C2F20001084430218171D2
:102FE00012E09DF80F004CF6CD41CCF6CC41A0FB91
:102FF0000101302000EBD100069940F20A02C2F232
:10300000000211448871FFE79DF80F004CF6CD4196
:10301000CCF6CC41A0FB0112D10801EB8101A0EB61
:10302000410040F03000069940F20A02C2F200026C
:103030001144C8710698104400210172E9E09DF81E
:103040001000092807DCFFE740F20A00C2F2000086
:103050003021017010E09DF810004CF6CD41CCF607
:10306000CC41A0FB0101302000EBD10040F20A016D
:10307000C2F200010870FFE79DF80F009DF81010E4
:103080004CF6CD42CCF6CC42A1FB0223DA0802EB8F
:103090008202A1EB420141F0300140F20A02C2F289
:1030A000000251709DF821109170092807DCFFE79C
:1030B00040F20A00C2F200003021C17010E09DF819
:1030C0000F004CF6CD41CCF6CC41A0FB01013020E5
:1030D00000EBD10040F20A01C2F20001C870FFE724
:1030E0009DF80F004CF6CD41CCF6CC41A0FB01126F
:1030F000D10801EB8101A0EB410040F0300040F22B
:103100000A01C2F2000108719DF8210048719DF882
:103110002300012838D1FFE7BDF81200A0F5FA60BE
:1031200007900798092807DCFFE740F20A00C2F27F
:1031300000003021817110E0079846F26761C6F205
:10314000666180FB0101880800EBD170303040F2ED
:103150000A01C2F200018871FFE7079846F2676131
:10316000C6F2666180FB0112911001EBD27101EB96
:103170008101A0EB4100303040F20A01C2F20001AF
:10318000C8710020087243E0BDF81200079007984C
:1031900044F6D351C1F2620180FB0112911101EB9F
:1031A000D27202F1300340F20A01C2F200018B71C7
:1031B0004FF47A7302FB130248F21F53C5F2EB136C
:1031C00082FB0324620902EBD4723032CA7180FBA5
:1031D00003235A1102EBD372642302FB130246F25B
:1031E0006763C6F2666382FB0324A20802EBD47213
:1031F00030320A7280FB03239A0802EBD37202EB8F
:103200008202A0EB42003030487200208872FFE753
:10321000FFE70AB010BD00BFF0B597B040F208104C
:10322000C2F20000169001208DF85700169F4BF651
:103230007800C0F6000014904AF69060C0F60000D6
:103240004169129101691191016842688368C468FB
:1032500010940F930E920D91806913904AF6AC6012
:10326000C0F60000016842688368C4680569466961
:103270000B960A95099408930792069180690C9021
:1032800003A8FFF735FB68463946FFF74FFB9DF86B
:1032900008008DF8140000980199049103909DF89E
:1032A0005700012809D1FFE79DF8140006A901EB9A
:1032B000800050F8040C149008E09DF814000DA94B
:1032C00001EB800050F8040C1490FFE7149817B03D
:1032D000F0BD00BF70B5A2B040F20810C2F200000D
:1032E000219001208DF88300219E4BF67900C0F6D5
:1032F00000001F904AF6C860C0F6000041691891AE
:1033000001691791016842688368C468169415932F
:10331000149213918169C269036A446A856AC06A1A
:103320001E901D951C941B931A9219914AF6F860F1
:10333000C0F6000041690C9101690B910168426877
:103340008368C5680A95099308920791816AC26AE1
:103350008369C569046A406A10900F940E950D93B5
:103360001292119104A8FFF7C3FA01A83146FFF7A2
:10337000DDFA9DF80C008DF818000198029905916E
:1033800004909DF88300012809D1FFE79DF81400FF
:1033900007A901EB800050F8040C1F9008E09DF88D
:1033A000140013A901EB800050F8040C1F90FFE7F4
:1033B0001F9822B070BD00BFB0B582B001908DF8EB
:1033C0000310019D9DF803008DF80000E868697AFC
:1033D0006C462246012301F091F8E868697A22469A
:1033E000012301F0C7F89DF8000002B0B0BD00BF96
:1033F00010B582B040F20810C2F200000190019CAA
:1034000020461121FFF7D8FF8DF803002046122136
:10341000FFF7D2FF8DF802009DF8030007F0FCF8DB
:1034200004469DF80200800907F0DEF84FF07A515B
:1034300007F06EF90146204606F02CFF02B010BDE1
:1034400080B582B040F20810C2F2000001900198ED
:10345000C06801688968884702B080BD80B582B0C5
:1034600001900198FEF7E8FC04F0C7FE02B080BDB1
:1034700010B584B00390039CA06840F60001C4F22C
:103480000101884202D1FFE7022035E0A06840F642
:103490000041C4F20101884202D1FFE703202AE083
:1034A000A06841F20001C4F20101884202D1FFE7A5
:1034B00004201FE0A06841F20041C4F201018842EB
:1034C00002D1FFE7052014E0A06841F60001C4F234
:1034D0000101884202D1FFE7062009E0A16841F618
:1034E0000042C4F201020820914208BF0720FFE712
:1034F000FFE7FFE7FFE7FFE78DF807002068C269F5
:103500009DF80710204690472068C2692046002198
:103510009047A088ADF8080003208DF80A004820E5
:103520008DF80B00A06802A9FDF70CFC206920B102
:10353000FFE7204600F020F8FFE7012004B010BDAF
:1035400082B001900091012002B0704781B00090DC
:1035500001B0704781B0009001B0704782B0019017
:103560000091012002B0704782B001908DF80310E5
:10357000012002B0704700BF10B582B00190019CDD
:1035800000208DF803002069D8B1FFE7204600F045
:103590001BF88DF8020020682169D0F824C09DF93D
:1035A000022020460023E047204600F08DF82068E6
:1035B000C26A9DF902102046904701208DF8030051
:1035C000FFE702B010BD00BF82B001900198818872
:1035D000012902D1FFE706206FE08188022902D18C
:1035E000FFE7072068E08188042902D1FFE708206F
:1035F00061E08188082902D1FFE709205AE081882B
:10360000102902D1FFE70A2053E08188202902D146
:10361000FFE72B204CE08188402902D1FFE72C20D6
:1036200045E08188802902D1FFE72D203EE0818896
:10363000B1F5807F02D1FFE72E2036E08188B1F519
:10364000007F02D1FFE72F202EE08188B1F5806F47
:1036500002D1FFE7302026E08188B1F5006F02D16A
:10366000FFE731201EE08188B1F5805F02D1FFE7DE
:10367000322016E08188B1F5005F02D1FFE73320E8
:103680000EE08188B1F5804F02D1FFE7342006E0DB
:1036900081880620B1F5004F08BF3520FFE7FFE71E
:1036A000FFE7FFE7FFE7FFE7FFE7FFE7FFE7FFE7EA
:1036B000FFE7FFE7FFE7FFE7FFE78DF803009DF96E
:1036C000030002B0704700BFB0B584B00390039C04
:1036D000A06840F60001C4F20101884202D1FFE770
:1036E000002035E0A06840F60041C4F201018842A4
:1036F00002D1FFE701202AE0A06841F20001C4F2F4
:103700000101884202D1FFE702201FE0A06841F2D8
:103710000041C4F20101884202D1FFE7032014E016
:10372000A06841F60001C4F20101884202D1FFE71E
:10373000042009E0A16841F60042C4F2010206201B
:10374000914208BF0520FFE7FFE7FFE7FFE7FFE73C
:103750008DF803009DF80350204600F015F801464F
:103760002846FDF7E3FBA0880190207B8DF8080038
:10377000607B8DF8090001208DF80A0001A8FDF793
:1037800039FA04B0B0BD00BF82B0019001988188C1
:10379000012902D1FFE700206FE08188022902D1D0
:1037A000FFE7012068E08188042902D1FFE70220B9
:1037B00061E08188082902D1FFE703205AE081886F
:1037C000102902D1FFE7042053E08188202902D18B
:1037D000FFE705204CE08188402902D1FFE7062061
:1037E00045E08188802902D1FFE707203EE08188FB
:1037F000B1F5807F02D1FFE7082036E08188B1F57E
:10380000007F02D1FFE709202EE08188B1F5806FAB
:1038100002D1FFE70A2026E08188B1F5006F02D1CE
:10382000FFE70B201EE08188B1F5805F02D1FFE742
:103830000C2016E08188B1F5005F02D1FFE70D2072
:103840000EE08188B1F5804F02D1FFE70E2006E03F
:1038500081880020B1F5004F08BF0F20FFE7FFE788
:10386000FFE7FFE7FFE7FFE7FFE7FFE7FFE7FFE728
:10387000FFE7FFE7FFE7FFE7FFE78DF803009DF8AD
:10388000030002B0704700BF80B584B0039002917E
:10389000ADF80620039800F013F84AF62871C0F638
:1038A00000010831016002998160BDF80610818035
:1038B000002101610C224273017304B080BD00BF7E
:1038C00080B582B00190019800F008F84AF668715E
:1038D000C0F600010831016002B080BD80B582B041
:1038E0000190019800F018F84BF2BC21C0F60001DD
:1038F0000831016002B080BD80B582B001900198AE
:10390000FEF774FA04F079FC02B080BD81B000903B
:10391000012001B0704700BF81B0009000984AF6C6
:10392000A871C0F600010831016001B0704700BF06
:1039300080B582B001900198FEF768FA04F05DFC52
:1039400002B080BD81B00090012001B0704700BF7F
:1039500082B001900091012002B0704781B00090C8
:1039600001B0704781B0009001B0704782B0019003
:103970000091012002B0704780B586B0DDF820C00C
:1039800005900491ADF80E2002938DF807C00598BC
:10399000FFF796FF4AF62871C0F600010831016072
:1039A00004998160BDF80E108180029901619DF833
:1039B000071041730021017306B080BD80B586B049
:1039C000DDF820C005900491ADF80E2043F62140AB
:1039D000C0F6000002908DF807308DF806C00598FB
:1039E000FFF76EFF4AF62871C0F60001083101604A
:1039F00004998160BDF80E108180029901619DF8E3
:103A0000071041739DF80610017306B080BD00BF1A
:103A100080B582B001900198FEF7E0F904F0EDFB6B
:103A200002B080BD10B584B00390039CA06840F63E
:103A30000001C4F20101884202D1FFE7022035E013
:103A4000A06840F60041C4F20101884202D1FFE7BC
:103A500003202AE0A06841F20001C4F2010188427B
:103A600002D1FFE704201FE0A06841F20041C4F248
:103A70000101884202D1FFE7052014E0A06841F669
:103A80000001C4F20101884202D1FFE7062009E0EB
:103A9000A16841F60042C4F201020820914208BF29
:103AA0000720FFE7FFE7FFE7FFE7FFE78DF80700E5
:103AB0002068C2699DF80710204690472068C269B7
:103AC000204600219047A089ADF8080003208DF81A
:103AD0000A00A07B8DF80B00A06802A9FDF732F95F
:103AE000A068A1890022FDF70BFA012004B010BDE7
:103AF00080B584B003900291ADF806200398FFF7DB
:103B0000DFFE4AF6CC71C0F600010831016002996F
:103B10008160BDF8061081811021817304B080BDE1
:103B200010B582B00190019CE07B40B9FFE7A0682E
:103B3000A1890022FDF7E4F90120E07307E0A06805
:103B4000A1890122FDF7DCF90020E073FFE702B054
:103B500010BD00BF40F22450C2F200000068704760
:103B600080B582B00190FFF7F5FF009000980199B1
:103B7000884204D3FFE700980199401A04E00098B6
:103B80000199401A0138FFE702B080BD80B582B0CC
:103B900001900198FEF748F904F02FFB02B080BDB8
:103BA00080B582B001900198FFF762FC012002B05D
:103BB00080BD00BF80B584B0DDF818C003900291CD
:103BC000ADF806208DF805308DF804C003980299F1
:103BD0009DF80530BDF806209DF804C0CDF800C062
:103BE000FFF7ECFE4BF20C01C0F60001083101605A
:103BF00000210175BDF8062040F2F633C2F2000341
:103C00001A808161C16180F8201080F82110416222
:103C10008162C162416301638163C16304B080BD9D
:103C200040F2F630C2F20000018840F20042C4F2D5
:103C30000102136823EA0101116040F20841C4F255
:103C400001010968008801421CD0FFE740F2F8300A
:103C5000C2F200000121017040F2F630C2F2000011
:103C6000018840F20C42C4F201021368194311604A
:103C7000008840F20841C4F201010A6822EA00000B
:103C800008601BE040F2F830C2F20000022101702F
:103C900040F2F630C2F20000018840F20842C4F25D
:103CA0000102136819431160008840F20C41C4F20C
:103CB00001010A6822EA00000860FFE740F2F630DE
:103CC000C2F20000008840F20041C4F201010A681B
:103CD00010430860704700BF10B584B00020039007
:103CE000029040F21030C2F200000190019C40F2BC
:103CF000F830C2F200000078072800F2AA80DFE85E
:103D000000F004050F929D7C5987A9E0FFF722FF80
:103D1000E06140F2F830C2F20000002101709FE043
:103D2000E069FFF71DFF0290029846280CD3FFE7D9
:103D30000298B0F5C87F07D8FFE740F2F830C2F22A
:103D400000000621017034E00298B0F52F7F0DD3FA
:103D5000FFE7029840F2DC51884207D8FFE740F2C3
:103D6000F830C2F200000321017021E00298B0F5A2
:103D7000FA6F0DD3FFE7029841F27071884207D8BD
:103D8000FFE740F2F830C2F20000042101700EE0BB
:103D9000029841F2D471884207D3FFE740F2F8302D
:103DA000C2F200000021017000E0FFE7FFE7FFE73B
:103DB000FFE755E040F2FC30C2F200000068FFF778
:103DC000CFFE03900398B0F5967F0ED9FFE7FFF77B
:103DD000C1FE40F2FC31C2F20001086040F2F8304E
:103DE000C2F200000521017006E040F2F830C2F294
:103DF000000007210170FFE732E02046032100F0B8
:103E000035F840F2F830C2F200000021017027E0DE
:103E10002046042100F02AF840F2F830C2F20000F7
:103E2000002101701CE02046052100F01FF840F23F
:103E3000F830C2F200000021017011E02046062196
:103E400000F014F840F2F830C2F2000000210170D6
:103E500006E040F2F830C2F2000000210170FFE7F6
:103E6000204600F013F804B010BD00BF82B00190EE
:103E70008DF8031001989DF80310012202FA01F158
:103E800082691143816102B0704700BF10B582B0F2
:103E90000190019CA069002861D0FFE7207E800787
:103EA00000280AD5FFE7A06A38B1FFE7A06A80477B
:103EB0002046012100F056F850E0207E40070028FF
:103EC0000AD5FFE7E06A38B1FFE7E06A804720469D
:103ED000022100F047F840E0207E000700280AD5C4
:103EE000FFE7206B38B1FFE7206B804720460321B6
:103EF00000F038F830E0207EC00600280AD5FFE741
:103F0000606B38B1FFE7606B80472046042100F00A
:103F100029F820E0207E800600280AD5FFE7A06B64
:103F200038B1FFE7A06B80472046052100F01AF862
:103F300010E0207E400600280AD5FFE7E06B38B18C
:103F4000FFE7E06B80472046062100F00BF800E019
:103F5000FFE7FFE7FFE7FFE7FFE7FFE7FFE702B065
:103F600010BD00BF82B001908DF8031001989DF83C
:103F70000310012202FA01F1826922EA0101816142
:103F800002B0704783B040F21032C2F200020292D7
:103F90008DF80700009102989DF807100339032956
:103FA0000FD8DFE801F00205080B0099016309E072
:103FB0000099416306E00099816303E00099C163C1
:103FC00000E0FFE703B0704780B582B00190019830
:103FD0004068FEF79FFC02B080BD00BFB0B582B064
:103FE00040F20010C2F20000019040F2D400C2F290
:103FF00000000090019CA07800990222FEF7E6F9EB
:1040000000983A2585706078009903310222FEF706
:10401000DDF9009845712078009906310222FEF7FB
:10402000D5F9009802B0B0BD82B0019001208DF8A2
:104030000300019801789DF8032011440170017874
:104040003C2907DBFFE7017842783C390170511CBD
:104050004170FFE741783C2907DBFFE74178827830
:104060003C394170511C8170FFE702B0704700BFBE
:1040700010B586B040F20010C2F200000490049C1B
:1040800040F20040C2F200000078BFF35F8F10F0F2
:10409000010F18D1FFE740F20040C2F2000004F027
:1040A00002FB80B1FFE72046FFF78EFFFFE740F2FB
:1040B0000441C2F20001087040F20040C2F2000068
:1040C00001210160FFE72046FFF77EFF8DF80F001A
:1040D00040F20440C2F2000000789DF80F108842C0
:1040E00017D0FFE72046FFF79FFF9DF80F0040F233
:1040F0000441C2F20001087001208DF817000CE0A5
:104100000290019140F20040C2F2000000210160E3
:1041100005E000208DF81700FFE706B010BD0298FB
:1041200002F0D5F880B582B00190019800F0B2F8A5
:1041300004F063F802B080BD10B586B00590059C10
:104140002079B0B9FFE745F20040C4F20000606199
:104150002068C26920462B2190472068C26920460A
:1041600003219047C020ADF80000204600F064F81D
:1041700037E02079012817D1FFE745F20040C4F26B
:10418000000060612068C26920462B2190472068AA
:10419000C2692046032190474FF44070ADF80000FB
:1041A000204600F049F81BE02079022817D1FFE7EC
:1041B00045F60000C4F2000060612068C269204634
:1041C0002C2190472068C2692046032190474FF474
:1041D0004060ADF80000204600F02EF8FFE7FFE752
:1041E000FFE703208DF802001C208DF8030040F645
:1041F0000040C4F201006946FCF7A4FD4FF4806062
:10420000ADF80E000020ADF808004FF48040ADF886
:1042100010004BF6FF70ADF80A00206901905020A5
:10422000ADF80C00606901A9FDF7A6F96069FDF71A
:1042300077FA012006B010BD80B582B001900198D8
:10424000416945F20042C4F2000291420BD1FFE7FE
:104250004FF400100121FDF7D1F84FF400100021B8
:10426000FDF7CCF814E0406945F60001C4F2000106
:1042700088420BD1FFE74FF480000121FDF7BEF823
:104280004FF480000021FDF7B9F800E0FFE7FFE7F9
:1042900002B080BD80B582B001900198FDF7AEFDFF
:1042A00002B080BD80B584B0DDF818C003908DF8F1
:1042B0000B1001928DF803300398FFF70FFB4BF2C0
:1042C0004C01C0F60001083101609DF80B1001712E
:1042D000019981609DF80310017306990161002125
:1042E00041610184C1618161016404B080BD00BF8E
:1042F00010B584B00290029C002001904FF6FF7030
:104300000190FFE760694FF40031FDF7D9FA38B149
:10431000FFE70198411E019108B9FFE71EE0F1E7B0
:10432000019860636069FDF713FA4FF6FF70019022
:10433000FFE760690121C0F20301FDF797FA38B980
:10434000FFE70198411E019108B9FFE706E0F0E799
:104350000198E06100208DF80F0007E0206C40F02C
:104360000100206401208DF80F00FFE79DF80F0089
:1043700004B010BD10B584B002908DF80710002075
:104380008DF80600029C009060699DF806209DF85B
:104390000710FDF735FA9DF80600B0B9FFE74FF6B4
:1043A000FF700090FFE760698221C0F20701FDF70E
:1043B0005DFA38B9FFE70098411E009108B9FFE7A0
:1043C00023E0F0E7009860621BE09DF806000128FA
:1043D00016D1FFE74FF6FF700090FFE760690221FA
:1043E000C0F20301FDF742FA38B9FFE70098411E19
:1043F000009108B9FFE708E0F0E70098A062FFE746
:10440000FFE700208DF80F0007E0206C40F002006D
:10441000206402208DF80F00FFE704B010BD00BF3C
:1044200010B584B002908DF80710029C0020009017
:104430009DF80710204600F053F84FF6FF700090EB
:10444000FFE760698421C0F20701FDF70FFA38B970
:10445000FFE70098411E009108B9FFE706E0F0E78A
:104460000098206200208DF80F0007E0206C40F0DB
:104470000400206404208DF80F00FFE79DF80F0072
:1044800004B010BD10B584B00290029C00200190D1
:104490006069FDF775F94FF6FF700190FFE76069FD
:1044A0001021C1F20001FDF70BFA38B1FFE70198C6
:1044B000411E019108B9FFE706E0F0E7019820638B
:1044C00000208DF80F0007E0206C40F0020020640F
:1044D00002208DF80F00FFE79DF80F0004B010BD1B
:1044E00080B582B001908DF80310019840699DF865
:1044F0000310FDF773F902B080BD00BF10B586B0A0
:1045000005908DF8131003920293059C00200190F2
:10451000029868B3FFE72046FFF7EAFE216C0843E4
:1045200020649DF813102046FFF724FF0398411CD8
:10453000039101782046FFF773FF216C0843206444
:10454000FFE702980138029058B1FFE70398411C39
:10455000039101782046FFF763FF216C0843206434
:10456000EFE72046FFF78EFF216C08432064FFE74A
:1045700006B010BD10B58AB004908DF80F100292ED
:104580000193049C019820B9FFE700208DF81700E3
:104590008CE140F20840C2F200004FF6FF7101606A
:1045A000FFE760694FF40031FDF78AF958B1FFE782
:1045B00040F20840C2F2000001684A1E026009B9D8
:1045C000FFE767E1EDE760690121FDF7F1F8606958
:1045D0004FF2FF71FDF732F96069FDF7B9F840F26B
:1045E0000840C2F200004FF6FF710160FFE760690A
:1045F0000121C0F20301FDF739F958B9FFE740F294
:104600000840C2F2000001684A1E026009B9FFE7D3
:1046100040E1ECE760699DF80F100122FDF7F0F82A
:1046200040F20840C2F200004FF6FF710160FFE760
:1046300060690221C1F20001FDF742F958B9FFE7B4
:1046400040F20840C2F2000001684A1E026009B947
:10465000FFE71FE1ECE70198012831D1FFE760692E
:104660000021FDF7A5F8EFF3108072B6069060699F
:10467000008B6069FDF784F862B640F20840C2F230
:1046800000004FF6FF710160FFE760694021C1F251
:104690000001FDF715F958B9FFE740F20840C2F2F2
:1046A000000001684A1E026009B9FFE7F2E0ECE78A
:1046B0006069FDF79DF802994A1C02920870CAE0F1
:1046C0000198022840D1FFE760694FF40061FDF7CF
:1046D000B5F8EFF3108072B607906069008B6069DF
:1046E0000021FDF765F862B640F20840C2F2000012
:1046F0004FF6FF710160FFE760690421C1F200011C
:10470000FDF7DEF858B9FFE740F20840C2F20000BA
:1047100001684A1E026009B9FFE7BBE0ECE7EFF36E
:10472000108072B608906069FDF72AF86069008A07
:1047300002994A1C0292087062B66069008A029966
:104740004A1C0292087085E06069008BFFE70198BF
:10475000411E0191032823D0FFE740F20840C2F236
:1047600000004FF6FF710160FFE760690421C1F2AC
:104770000001FDF7A5F858B9FFE740F20840C2F282
:10478000000001684A1E026009B9FFE782E0ECE719
:104790006069FDF72DF802994A1C02920870D6E76D
:1047A00040F20840C2F200004FF6FF710160FFE7DF
:1047B00060690421C1F20001FDF782F858B9FFE7F2
:1047C00040F20840C2F2000001684A1E026009B9C6
:1047D000FFE75FE0ECE760690021FCF7E9FFEFF33A
:1047E000108072B609906069FDF702F802994A1CC0
:1047F000029208706069FCF7C3FF62B66069FCF75B
:10480000F7FF02994A1C0292087040F20840C2F277
:1048100000004FF6FF710160FFE760694021C0F2C0
:104820000301FDF723F858B9FFE740F20840C2F250
:10483000000001684A1E026009B9FFE72AE0ECE7C0
:104840006069FCF7D5FF02994A1C029208700020AB
:104850000190FFE7FFE740F20840C2F200004FF688
:10486000FF710160FFE760691021C1F20001FDF7EF
:1048700027F858B1FFE740F20840C2F20000016893
:104880004A1E026009B9FFE704E0ECE710208DF84A
:1048900017000BE02068816820468847206C40F0B4
:1048A0000200206400208DF81700FFE70AB010BD59
:1048B00080B582B00190019800F004F803F09DFCEF
:1048C00002B080BD81B00090009801B0704700BF79
:1048D00083B0029001918DF8032002984BF28C0175
:1048E000C0F6000108310160019941609DF8031094
:1048F000017203B0704700BF10B582B040F2F820DB
:10490000C2F20000019040F2E430C2F200000090D8
:10491000019C204600F02EF800990860204600F027
:1049200043F800994860204600F054F800998860E8
:1049300000980068002105F032FD50B9FFE70098AB
:10494000006846F26661C3F6667105F01AFD20B98B
:10495000FFE7009800210160FFE700984068002110
:1049600005F00FFD20B9FFE7009800214160FFE747
:1049700002B010BD80B582B00190019800F0A0F89F
:10498000ADF80200BDF9020005F0F4F84AF6FC1299
:10499000CDF2F12246F24D23C3F6507305F03EF9F5
:1049A00004F0A2FE02B080BD10B582B00190019C5F
:1049B000204600F071F805F017FE0090206905F020
:1049C0002BFE0146009805F0FDFC0090009802B017
:1049D00010BD00BF10B584B00390039CA28920468F
:1049E000052100F017F80DF106022046032100F022
:1049F0002FF8BDF9060005F0F7FD0290606905F09B
:104A00000BFE0146029805F0DDFC0290029804B00E
:104A100010BD00BF80B584B003908DF80B10ADF8C9
:104A2000082003999DF80B008DF805009DF80900FA
:104A30008DF80600BDF808008DF807004868097A6F
:104A40000DF105020323FFF759FD04B080BD00BF3F
:104A5000B0B584B003908DF80B100192039D9DF8C2
:104A60000B008DF801006868297A0DF101042246D7
:104A70000123FFF743FD6868297A22460223FFF7E6
:104A800079FD9DF801009DF8021041EA002001998E
:104A9000088004B0B0BD00BF10B582B00190019C89
:104AA000A28920460521FFF7B5FF0DF1020220463D
:104AB0000421FFF7CDFFBDF9020002B010BD00BF19
:104AC00080B582B0019001980DF102020221FFF73A
:104AD000BFFFBDF8020047F6FC7101EA500002B0CA
:104AE00080BD00BF10B582B040F2F820C2F20000D5
:104AF0000190019C43F61F40ADF802004FF4805036
:104B0000E0600A20206102206061A2892046052120
:104B1000FFF780FFBDF8022020460021FFF77AFF53
:104B200002B010BD80B584B0039002918DF80720CB
:104B300003989DF9071009313E2900F2FA81DFE858
:104B400011F03F0046004D0054005B006200690018
:104B5000700077007E0085008C0093009A00A10011
:104B6000A800AF00B600BD00C400CB00D200D90041
:104B7000E000E700EE00F500FC0003010A0111016E
:104B800018011F0126012D0134013B014201490199
:104B9000500157015E0165016C0173017A018101C9
:104BA00088018F0196019D01A401AB01B201B901F9
:104BB000C001C701CE01D501DC01E301EA01F10129
:104BC000029940F21042C2F200021160B2E1029971
:104BD00040F21442C2F200021160ABE1029940F2CD
:104BE0001842C2F200021160A4E1029940F21C4294
:104BF000C2F2000211609DE1029940F22042C2F22D
:104C00000002116096E1029940F22442C2F20002D1
:104C100011608FE1029940F22842C2F20002116055
:104C200088E1029940F22C42C2F20002116081E157
:104C3000029940F23042C2F2000211607AE1029918
:104C400040F23442C2F20002116073E1029940F274
:104C50003842C2F2000211606CE1029940F23C421B
:104C6000C2F20002116065E1029940F24042C2F2D4
:104C7000000211605EE1029940F24442C2F2000279
:104C8000116057E1029940F24842C2F200021160FD
:104C900050E1029940F24C42C2F20002116049E137
:104CA000029940F25042C2F20002116042E10299C0
:104CB00040F25442C2F2000211603BE1029940F21C
:104CC0005842C2F20002116034E1029940F25C42A3
:104CD000C2F2000211602DE1029940F26042C2F27C
:104CE0000002116026E1029940F26442C2F2000221
:104CF00011601FE1029940F26842C2F200021160A5
:104D000018E1029940F26C42C2F20002116011E116
:104D1000029940F27042C2F2000211600AE1029967
:104D200040F27442C2F20002116003E1029940F2C3
:104D30007842C2F200021160FCE0029940F27C422B
:104D4000C2F200021160F5E0029940F28042C2F224
:104D500000021160EEE0029940F28442C2F20002C9
:104D60001160E7E0029940F28842C2F2000211604D
:104D7000E0E0029940F29042C2F200021160D9E0F4
:104D8000029940F28C42C2F200021160D2E0029914
:104D900040F29442C2F200021160CBE0029940F26C
:104DA0009842C2F200021160C4E0029940F29C42B3
:104DB000C2F200021160BDE0029940F2A042C2F2CC
:104DC00000021160B6E0029940F2A442C2F2000271
:104DD0001160AFE0029940F2A842C2F200021160F5
:104DE000A8E0029940F2AC42C2F200021160A1E0D8
:104DF000029940F2B042C2F2000211609AE00299B8
:104E000040F2AC42C2F20002116093E0029940F21B
:104E1000B042C2F2000211608CE0029940F2B4424A
:104E2000C2F20002116085E0029940F2B842C2F27B
:104E3000000211607EE0029940F2BC42C2F2000220
:104E4000116077E0029940F2C042C2F200021160A4
:104E500070E0029940F2C442C2F20002116069E0BF
:104E6000029940F2C842C2F20002116062E0029967
:104E700040F2CC42C2F2000211605BE0029940F2C3
:104E8000D042C2F20002116054E0029940F2D442D2
:104E9000C2F2000211604DE0029940F2D842C2F223
:104EA0000002116046E0029940F2DC42C2F20002C8
:104EB00011603FE0029940F2E042C2F2000211604C
:104EC00038E0029940F2E442C2F20002116031E09F
:104ED000029940F2E842C2F2000211602AE002990F
:104EE00040F2EC42C2F20002116023E0029940F26B
:104EF000F042C2F2000211601CE0029940F2F4425A
:104F0000C2F20002116015E0029940F2F842C2F2CA
:104F1000000211600EE0029940F2FC42C2F200026F
:104F2000116007E0029940F20052C2F200021160E3
:104F300000E0FFE7029939B1FFE79DF907100F2262
:104F4000002300F003F8FFE704B080BD80B584B013
:104F500003908DF80B108DF80A208DF80930002091
:104F60008DF808008DF803009DF90B002B2809DB54
:104F7000FFE79DF90B002F2804DCFFE717208DF8D1
:104F80000B000FE09DF90B00302809DBFFE79DF9CE
:104F90000B00352804DCFFE728208DF80B0000E02B
:104FA000FFE7FFE79DF80B008DF804009DF80A006D
:104FB0008DF805009DF809008DF806009DF80300A6
:104FC0008DF8070001A8FCF747FA01208DF80800CA
:104FD0009DF8080000F0010004B080BD80B582B0EB
:104FE00040F20C40C2F200000068A8BBFFE740F2AC
:104FF0000450C2F200000078BFF35F8F10F0010F81
:1050000020D1FFE740F20450C2F2000003F04BFB56
:10501000C0B1FFE700F028F8FFE745F27900C0F6DD
:10502000000040F20851C2F2000140F20002C0F656
:105030000002FBF7D7F840F20450C2F20000012151
:105040000160FFE740F20C40C2F2000040F208515C
:10505000C2F200010160FFE740F20C40C2F2000022
:10506000006802B080BD00BF81B040F20850C2F2BB
:105070000000009001B0704781B00090009801B02E
:10508000704700BF82B001908DF8031000208DF8AA
:1050900002009DF903002B2809DBFFE79DF90300BF
:1050A0002F2804DCFFE717208DF803000FE09DF99F
:1050B0000300302809DBFFE79DF90300352804DCF5
:1050C000FFE728208DF8030000E0FFE7FFE79DF8E9
:1050D000030000F01F01012202FA01F14EF28013D9
:1050E000CEF2000343EAD0004EF29C13CEF200034E
:1050F000184001608DF802209DF8020000F00100C8
:1051000002B0704782B001908DF8031000208DF836
:1051100002009DF903002B2809DBFFE79DF903003E
:105120002F2804DCFFE717208DF803000FE09DF91E
:105130000300302809DBFFE79DF90300352804DC74
:10514000FFE728208DF8030000E0FFE7FFE79DF868
:10515000030000F01F01012202FA01F14EF20013D8
:10516000CEF2000343EAD0004EF21C13CEF200034D
:10517000184001608DF802209DF8020000F0010047
:1051800002B0704780B52020FBF7ACFD90B1FFE77F
:105190002020FBF7CDFD40F2D840C2F200000068AD
:1051A00038B1FFE740F2D840C2F200000068804703
:1051B000FFE764E04020FBF795FD90B1FFE740205A
:1051C000FBF7B6FD40F2DC40C2F20000006838B1E7
:1051D000FFE740F2DC40C2F2000000688047FFE7D2
:1051E0004CE08020FBF77EFD90B1FFE78020FBF7CD
:1051F0009FFD40F2E040C2F20000006838B1FFE7D6
:1052000040F2E040C2F2000000688047FFE734E06F
:105210004FF48070FBF766FD98B1FFE74FF48070A4
:10522000FBF786FD40F2E440C2F20000006838B1AE
:10523000FFE740F2E440C2F2000000688047FFE769
:105240001AE04FF40070FBF74DFD98B1FFE74FF403
:105250000070FBF76DFD40F2E840C2F2000000680C
:1052600038B1FFE740F2E840C2F200000068804732
:10527000FFE700E0FFE7FFE7FFE7FFE7FFE780BDAD
:1052800080B54FF48060FBF72DFD98B1FFE74FF438
:105290008060FBF74DFD40F2EC40C2F20000006878
:1052A00038B1FFE740F2EC40C2F2000000688047EE
:1052B000FFE782E04FF40060FBF714FD98B1FFE7D1
:1052C0004FF40060FBF734FD40F2F040C2F2000002
:1052D000006838B1FFE740F2F040C2F20000006819
:1052E0008047FFE768E04FF48050FBF7FBFC98B184
:1052F000FFE74FF48050FBF71BFD40F2F440C2F291
:105300000000006838B1FFE740F2F440C2F200004C
:1053100000688047FFE74EE04FF40050FBF7E2FCE7
:1053200098B1FFE74FF40050FBF702FD40F2F84060
:10533000C2F20000006838B1FFE740F2F840C2F264
:10534000000000688047FFE734E04FF48040FBF73F
:10535000C9FC98B1FFE74FF48040FBF7E9FC40F24D
:10536000FC40C2F20000006838B1FFE740F2FC40A8
:10537000C2F2000000688047FFE71AE04FF40040E7
:10538000FBF7B0FC98B1FFE74FF40040FBF7D0FC0F
:1053900040F20050C2F20000006838B1FFE740F26E
:1053A0000050C2F2000000688047FFE700E0FFE71E
:1053B000FFE7FFE7FFE7FFE7FFE780BD80B50120DC
:1053C000FBF7B6FC40F24C40C2F20000006838B176
:1053D000FFE740F24C40C2F2000000688047FFE760
:1053E00080BD00BF80B50220FBF7A2FC40F2504018
:1053F000C2F20000006838B1FFE740F25040C2F24C
:10540000000000688047FFE780BD00BF80B5042032
:10541000FBF78EFC40F25440C2F20000006838B145
:10542000FFE740F25440C2F2000000688047FFE707
:1054300080BD00BF80B50820FBF77AFC40F25840E1
:10544000C2F20000006838B1FFE740F25840C2F2F3
:10545000000000688047FFE780BD00BF80B51020D6
:10546000FBF766FC40F25C40C2F20000006838B115
:10547000FFE740F25C40C2F2000000688047FFE7AF
:1054800080BD00BF10B586B005900491ADF80E2028
:10549000059C0499BDF80E202046FEF729FB4BF22F
:1054A0009C00C0F60000083020602068816820461B
:1054B0008847FFE7204606B010BD029001912046C4
:1054C000FCF78CFCFFE7029800F001FF80B582B08A
:1054D00001900198FCF7B8FC02F08FFE02B080BD8D
:1054E00080B582B001900199886889890122FBF713
:1054F00007FD02B080BD00BF80B582B00190019968
:10550000886889890022FBF7FBFC02B080BD00BFE0
:1055100084B0DDF810C003900291019200930398CB
:105520000299016000994160019981600499C1600C
:1055300004B0704710B582B00190019C20680168EA
:10554000896888476068016889688847A068016839
:1055500089688847E068016889688847204600F0C4
:1055600003F802B010BD00BF10B582B00190019CDD
:10557000A068FFF7C1FF4FF47A7000F079FCA068D3
:10558000FFF7AEFF20460021212200F01FF8204641
:105590000021BF2200F01AF820460021042200F06A
:1055A00015F820460021132200F010F820460021B3
:1055B000202200F00BF8204600210C2200F006F813
:1055C000204600F027F802B010BD00BF10B582B031
:1055D00001908DF803108DF80220019C9DF80300C6
:1055E000012804D1FFE76068FFF77AFF03E06068F5
:1055F000FFF782FFFFE72068002100F061FB2068D1
:105600009DF8021000F0A2FB2068012100F058FB79
:1056100002B010BD10B582B00190019C0020009036
:10562000FFE70098B0F5FC7F0ADAFFE7204601218A
:105630000022FFF7CBFFFFE7009801300090F0E772
:1056400020460021002200F003F802B010BD00BF88
:1056500010B584B0039002910192039C029840F02F
:105660008000C2B220460021FFF7B0FF019840F051
:105670004000C2B220460021FFF7A8FF04B010BDD1
:1056800010B584B003908DF80B10039C002001909E
:10569000FFE70198042816DCFFE79DF80B0000EBFC
:1056A00080004BF2DC01C0F6000108440199084477
:1056B00010F8A02C20460121FFF788FFFFE7019892
:1056C00001300190E5E7204601210022FFF77EFF2F
:1056D00004B010BD10B582B001904BF2C270C0F69C
:1056E00000000090019CFFE70098007840B1FFE7C0
:1056F0000098411C009101782046FFF7C1FFF3E7B5
:1057000002B010BD10B584B0039000208DF80B00DE
:105710008DF80A004BF2FC71C0F600010191039C68
:105720008DF803009DF80A0000EB400041009DF851
:105730000B202046FFF78CFF2046FFF7CBFF9DF89C
:105740000A0000EB400041009DF80B202046FFF7C7
:105750007FFFFFE701980178002039B1FFE79DF84E
:10576000031000200E29B8BF0120FFE7C00768B171
:10577000FFE70198411C019101782046FFF780FF67
:105780009DF8030001308DF80300E3E704B010BD7D
:10579000B0B584B003900291039C002520460021FF
:1057A0000022FFF755FF0195FFE7019853280BDC16
:1057B000FFE702980199415C2046FFF761FFFFE790
:1057C000019801300190F0E704B0B0BD80B582B01F
:1057D00001900198FCF712FB02F00FFD02B080BDB2
:1057E00080B582B001908DF80310019800F062F846
:1057F0009DF80300FCF75EFE02B080BD80B582B06C
:1058000001908DF80310019800F054F89DF8030002
:10581000FCF7A8FE02B080BD80B584B00390029171
:105820008DF807208DF80630039800F03BF80299B8
:105830009DF90720FFF776F9012004B080BD00BF75
:1058400080B582B001908DF803108DF802208DF89C
:105850000130019800F026F89DF801309DF80220F3
:105860009DF90310FFF772FB02B080BD80B582B0D6
:1058700001908DF80310019800F014F89DF90310C1
:10588000FFF740FC02B080BD80B582B001908DF87A
:105890000310019800F006F89DF90310FFF7F2FBE2
:1058A00002B080BD80B582B00190FFF797FB02B0D7
:1058B00080BD00BF80B582B00190FCF7E9FD02B069
:1058C00080BD00BF80B582B00190019800F08CF8D7
:1058D00002F093FC02B080BD80B582B001908DF8DB
:1058E00003109DF8030018B9FFE700F065F810E019
:1058F0009DF80300012803D1FFE700F067F807E0F7
:105900009DF80300022801D1FFE700E0FFE7FFE771
:10591000FFE702B080BD00BF84B0DDF810C0039087
:105920008DF80B108DF80A2001938DF803C0DDF877
:105930000CC09DF80B104AF6AB22CAF6AA22A1FBB6
:1059400002239A0802EB4202A1EB42018DF80B10F0
:105950009DF80A104A0842F29343C9F24923A2FB78
:1059600003239A08D200A2EB9302A1EB42018DF827
:105970000A1000218DF80210FFE79DF802109DF833
:105980000320914216DAFFE701999DF80220895C15
:105990009DF80B30C3EBC3039DF80A0000EB4300F6
:1059A000104460440171FFE79DF8020001308DF85A
:1059B0000200E2E704B0704780B540F23150C2F215
:1059C00000000078FCF7C6FB80BD00BF40F23050FD
:1059D000C2F20000017840F23152C2F200021170AE
:1059E00001310170704700BF81B00090009801B094
:1059F000704700BF10B582B00190019C4BF2FC20B3
:105A0000C0F6000000F10801204640F8041B5421B4
:105A10002E2200F0E4FB204602B010BD80B582B01B
:105A200040F25C10C2F2000001904BF22770C0F609
:105A3000000000900198043000995422FAF7EBFE20
:105A400002B080BD80B582B001900198FCF7E4F906
:105A500002F0D3FB02B080BDB0B58AB00990099CBA
:105A60002079E8BBFFE743F20000C4F201002061A7
:105A70002068C26920460C219047E020ADF80C0058
:105A800003208DF80E0018208DF80F0040F6000559
:105A9000C4F2010503A92846FBF754F965611020FB
:105AA00020830020ADF81000217B00294FF0000179
:105AB00008BF4FF48271ADF81210ADF81400ADF8C4
:105AC0001600ADF818004FF40071ADF81A10617BA4
:105AD000ADF81C10ADF81E000720ADF820009AE0CC
