:020000040800F2
:1000000098040020410D0008C90C0008CB0C000822
:10001000CD0C0008CF0C0008D10C00080000000037
:10002000000000000000000000000000D30C0008E9
:10003000D50C000800000000D70C0008D90C0008FF
:100040005D0D0008610D0008650D0008690D0008D0
:100050006D0D0008710D0008750D0008790D000880
:100060007D0D0008810D0008850D0008890D000830
:100070008D0D0008910D0008950D0008990D0008E0
:100080009D0D0008A10D0008A50D0008A90D000890
:10009000AD0D0008B10D0008B50D0008B90D000840
:1000A000BD0D0008C10D0008C50D0008C90D0008F0
:1000B000CD0D0008D10D0008D50D0008D90D0008A0
:1000C000DD0D0008E10D0008E50D0008E90D000850
:1000D000ED0D0008F10D0008F50D0008F90D000800
:1000E000FD0D0008010E0008050E00082DE9F8437B
:1000F0000646DFF878543078C1074AD5686800F0C2
:100100000C00042807D0686800F00C0008280BD108
:100110006868C10308D5296888033AD57068002843
:1001200040F0C080012069E17068B0F5803F0FD0D9
:1001300038B9296821F480312960286820F48020AA
:1001400009E0B0F5A02F296807D141F4802129608A
:10015000286840F48030286006E021F4803129606E
:100160002A6822F480222A60706868B100F01CFAC4
:1001700004462968880300F1958000F015FA001BF9
:100180006528F6D3032039E100F00EFA044628680A
:10019000810340F1878000F007FA001B6528F6D341
:1001A000F0E700F001FA001B022840F2AA80E9E71C
:1001B000306970B10121396000F0F6F90446286811
:1001C000810700F1DC8000F0EFF9001B0228F6D96E
:1001D000D8E7386000F0E8F904462868810765D55B
:1001E00000F0E2F9001B0228F7D9CBE7086000F025
:1001F000DBF90446686A810777D500F0D5F9001B62
:100200000228F7D9BEE708B9286A09E00528286A54
:1002100006D140F004002862286A40F0010005E0A1
:10022000400840002862286A20F00400286241F259
:100230008938F06868B100F0B7F98146286A81070B
:1002400000F1AA8000F0B0F9A0EB09004045F5D319
:1002500098E700F0A9F98146286A810740F19C805F
:1002600000F0A2F9A0EB09004045F5D38AE700F0C1
:100270009BF9001B022840F2A28083E700F094F96A
:10028000001B022840F2B5807CE700F0B9F8044674
:100290002868810140F1B18000F086F9001B022836
:1002A000F6D96FE73078DFF8D07281071BD5686820
:1002B00010F00C0F09D0686800F00C0008287FF4DB
:1002C00077AF6868C1033FF573AF2968880703D526
:1002D000306901287FF426AF2968706921F0F801A0
:1002E00041EAC0012960317808071DD5B069DFF8FF
:1002F0008C1200283FF47AAF01220A6000F054F912
:100300000446686A81077FF54CAFDFF8641208681D
:10031000C0084FF47A72B0FBF2F2009200BF00986E
:10032000411E00280091F9D13078410739D5E8699C
:100330000024C10009D4E86940F08050E86101243C
:10034000E86900F0805000900098DFF83482D8F817
:100350000010C8051BD4D8F8000040F48070C8F81D
:10036000000000F021F98146D8F80010C8050ED42D
:1003700000F01AF9A0EB09006528F5D302E7286818
:10038000716920F0F80040EAC1002860ABE7F0682E
:1003900001287FF438AF3FE71CB1E86920F08050B6
:1003A000E861F06948B3696801F00C0108293FF47D
:1003B000B9AE02287FF469AF00F022F8044628683D
:1003C00081013FF554AF306AB0F5803F05D16968CF
:1003D000B06821F40031014369606968306A21F432
:1003E00074110143706A01436960012000F009F84B
:1003F0000446286881017FF541AF0020BDE8F28303
:100400000020386600F0D0B82DE9F8435D4F05466E
:100410003868894600F00700484502D200F07AF8B3
:100420006CD12978514C880705D56168A86821F0FE
:10043000F001014361602878C10757D56868012839
:1004400002D121688A0303E0022803D121688A01CE
:1004500003D453E02268910750D56168890840EAC7
:100460008100606041F2893800F09EF806466868B5
:1004700001280BD1606800F00C00042836D000F091
:1004800093F8801B4045F5D303202DE0022837D197
:10049000606800F00C00082828D000F085F8801B68
:1004A0004045F5D3F0E72878410705D56168E8684D
:1004B00021F4E061014361602878010706D5606896
:1004C000296920F4605040EAC100606000F02CF817
:1004D00062682D49C2F30312895C254AC840106046
:1004E000002000F067F80020BDE8F283386800F0D3
:1004F00007008145D7D200F00DF8D4D00120F3E7F2
:10050000606810F00C0FF1D000F04EF8801B4045F1
:10051000F6D3B9E73968C90849EAC10139603868D2
:1005200000F0070048457047184912480A6802F071
:100530000C03082B00D0704710B50FF25804C2F31B
:100540008343D203E35C09D509680FF25802C1F373
:1005500040415843515CB0FBF1F010BD18460C49C6
:10056000484310BD02480068704700000010024078
:100570000C00002000127A00000042428004424237
:100580000070004000200240B80B00080410024038
:1005900000093D0002030405060708090A0B0C0DBB
:1005A0000E0F10100102000001484068704700BFA4
:1005B0000000002038B50D4D0D4A297804464FF44F
:1005C0007A70B0FBF1F11068B0FBF1F000F04BF87D
:1005D00050B9102C08D2002221464FF0FF3000F015
:1005E00025F8AC60002032BD012032BD00000020A3
:1005F0000C0000200901002881B006D52A4A00F02D
:100600000F00104400F8041C01E0284A115401B006
:100610007047274A13684FF6FF0100020B4000F4B1
:10062000E0601843234908431060704738B5204BF9
:100630001C68C4F30223C3F10704052C28BF04245B
:100640001D1D072D34BF0023DB1E012505FA04F410
:10065000641E2140994005FA03F35B1E1A401143C2
:10066000BDE83440C6E710B5401EB0F1807F01D32D
:10067000012010BD104C60600F214FF0FF30FFF7DC
:10068000B9FF0022A26007202060002010BD0428CE
:10069000094904D1086840F00400086070470A68FE
:1006A00022F004020A60704718ED00E000E400E068
:1006B0000CED00E00000FA0510E000E000F000B8EA
:1006C000704700002DE9F84F83460F460020804612
:1006D0005D495E4A5E4B4FF00F094FF0010A3C68DE
:1006E0000AFA08F606EA040EB64540F0A4807C68D3
:1006F0003CB3012C1AD0022C1DD0032C2ED0112C6F
:1007000016D0122C1AD0534DAC421CBF524DAC42E5
:1007100017D0524DAC421CBF514DAC4211D0514D7F
:10072000AC421CBF504DAC420BD018E0F86816E04C
:10073000F868001D13E0F868083010E0F8680C3025
:100740000DE0B86808B9042009E0012819BF0820A5
:10075000CBF814600820CBF8106000E00020BEF554
:10076000807F03D2DC464FEA880404E0A8F1080445
:100770000BF1040CA400DCF8005009FA04F6B543B0
:1007800000FA04F42C43CCF800407C68E40052D515
:100790001C6844F001041C604FEA980C1D6805F0C9
:1007A00001050095009C52F82C604FEA880404F083
:1007B0000C0409FA04F526EA05052C4EB34508BFDA
:1007C00000260ED02A4EB34508BF012609D0294E77
:1007D000B34508BF022604D0274EB3450CBF0326FD
:1007E000042606FA04F42C4342F82C406FEA0E0665
:1007F0007C68E50304D50D684EEA05050D6002E04E
:100800000C6834400C607C68A5034C684CBF4EEA11
:10081000040434404C607C68E5028C684CBF4EEAAE
:10082000040434408C607C68A502CC684CBF4EEA5E
:1008300004043440CC6008F10108B8F10F0F7FF6D2
:100840004EAFBDE8F18F00000004014008000140F8
:1008500018100240000011100000121000002110BA
:10086000000022100000311000003210000801408A
:10087000000C0140001001400014014080B500F060
:100880007BF800F03FF81C48016841F0100101605E
:10089000026802F0100200920099016841F0200104
:1008A0000160026802F0200200920099016841F0A4
:1008B00004010160006800F004000090009800F05E
:1008C0006DF80E480E4901604FF4827141600021BD
:1008D0008160C160016141614FF480218161082123
:1008E000C16100210162416281620A21C16200F09E
:1008F00061F800B1FEE7FEE7181002402800002072
:100900000030014000B500218FB001200791059013
:1009100002210C914FF48030069001220D904FF48B
:10092000E01109920E9105A8FFF7E0FB00B1FEE788
:100930000F2102200091019000214FF4A06002914C
:100940000390049168460221FFF75EFD00B1FEE7C7
:10095000FFF708FE4FF47A71B0FBF1F0FFF783FE6A
:100960000420FFF794FE002200214FF0FF30FFF734
:100970005DFE0FB000BD000080B50748016841F082
:10098000100101600320FFF744FE0020FFF712FE74
:1009900000F052F8002002BD0020024010B5034CC8
:1009A0000348211D00F0DDF8207010BD8C000020F0
:1009B0001000002010B5040001D1012010BD00205E
:1009C000A06294F8510010B9204600F07EF8022190
:1009D00084F851102068016821F0400101606268CC
:1009E000A068A1690243E06802432069024360698C
:1009F000024301F40071E0690A430243206A0243A2
:100A0000A06A024320680260A169606A090C01F0D3
:100A100004010143206841602068E16A01612068A7
:100A2000C16921F40061C16100206065012084F882
:100A30005100002010BD000080B53748016841F02A
:100A400001010160026802F0010200920099416810
:100A500041F080514160406800F080500090009863
:100A60000320FFF7D6FD002200216FF00B00FFF7F7
:100A7000DDFD002200216FF00A00FFF7D7FD002204
:100A800000216FF00900FFF7D1FD002200216FF077
:100A90000400FFF7CBFD002200216FF00300FFF7F9
:100AA000C5FD002200216FF00100FFF7BFFD00220D
:100AB00000214FF0FF30FFF7B9FD1848016821F021
:100AC000E06141F00071016001BD00681449884295
:100AD00000D0704718B51048124C85B0016841F439
:100AE00080510160B021006800F480500090022223
:100AF0000098019103200490029201A92046FFF77B
:100B0000E1FD40200021019002910391204601A9BE
:100B1000FFF7D8FD06B010BD1810024004000140D8
:100B2000003001400008014030B50F4C657A0346A3
:100B30000120012D14DC657A00206055607A04EBF9
:100B400080056B60607A20440272607A421C627297
:100B5000303008703A2048702F2088700020C8700C
:100B600030BD0022E0E70000800000200E49086848
:100B700040F0010008604A680C4802404A600B6877
:100B80000B4803400B60086820F4802008604FF495
:100B90001F004A6822F4FE024A6088604FF000603D
:100BA0000449086070470000001002400000FFF890
:100BB000FFFFF6FE08ED00E000000000000000006E
:100BC000010203040607080919E050F8042BD307B3
:100BD00044BFA9F101039A18091F0023042942F810
:100BE000043BF9D25FEA817C134604D54FF0000C38
:100BF000A2F800C09B1CC90744BF0021197050F81F
:100C0000041B0029E1D1704710B450F8041B79B1DE
:100C10000268436802440830DC0744BFA9F10104BC
:100C2000E31852F8044B43F8044B091FF9D1ECE7E1
:100C300010BC704710B5074979441831064C7C4404
:100C4000163404E00A68081D114488470146A14291
:100C5000F8D110BD3000000050000000010000007D
:100C6000000000001000000000A24A04A90C0008C7
:100C7000AB0C0008BD0C0008C10C0008C50C000836
:100C80000100000045FFFFFF6C000000280000206D
:100C90000000000075FFFFFF28000000C0FFFFFFFD
:100CA000000000200000000000E000BF0248012119
:100CB0000170007870470000240000200020704779
:100CC00000207047012070477047FEE7FEE7FEE70F
:100CD000FEE770477047704780B500F005F8BDE843
:100CE0000140FFF7EBBC000002494A68087882180F
:100CF0004A6070470000002000F00DF8002801D085
:100D0000FFF798FFAFF300800020AFF30080FFF7FC
:100D1000B5FD00F002F80120704700F001B80000B6
:100D20000746384600F002F8FBE7000080B5AFF355
:100D30000080024A11001820ABBEFBE7260002002B
:100D400001488047014800476D0B0008510D00081D
:100D5000AFF30080AFF30080FFF7CEFFFFF7FEBFD9
:100D6000FFF7FEBFFFF7FEBFFFF7FEBFFFF7FEBFB7
:100D7000FFF7FEBFFFF7FEBFFFF7FEBFFFF7FEBFA7
:100D8000FFF7FEBFFFF7FEBFFFF7FEBFFFF7FEBF97
:100D9000FFF7FEBFFFF7FEBFFFF7FEBFFFF7FEBF87
:100DA000FFF7FEBFFFF7FEBFFFF7FEBFFFF7FEBF77
:100DB000FFF7FEBFFFF7FEBFFFF7FEBFFFF7FEBF67
:100DC000FFF7FEBFFFF7FEBFFFF7FEBFFFF7FEBF57
:100DD000FFF7FEBFFFF7FEBFFFF7FEBFFFF7FEBF47
:100DE000FFF7FEBFFFF7FEBFFFF7FEBFFFF7FEBF37
:100DF000FFF7FEBFFFF7FEBFFFF7FEBFFFF7FEBF27
:080E0000FFF7FEBFFFF7FEBF84
:0400000508000D5191
:00000001FF
